{
	"data": {
		"bytecode": {
			"linkReferences": {},
			"object": "60a060405234801561000f575f5ffd5b506040516147d83803806147d88339818101604052810190610031919061055c565b336040518060400160405280601381526020017f50726564696374697665204475656c204e4654000000000000000000000000008152506040518060400160405280600581526020017f50444e4654000000000000000000000000000000000000000000000000000000815250815f90816100ac91906107c4565b5080600190816100bc91906107c4565b5050505f73ffffffffffffffffffffffffffffffffffffffff168173ffffffffffffffffffffffffffffffffffffffff160361012f575f6040517f1e4fbdf700000000000000000000000000000000000000000000000000000000815260040161012691906108a2565b60405180910390fd5b61013e8161035860201b60201c565b508073ffffffffffffffffffffffffffffffffffffffff1660808173ffffffffffffffffffffffffffffffffffffffff16815250506101d36040518060400160405280600681526020017f436f6d6d6f6e00000000000000000000000000000000000000000000000000008152506119646040518060800160405280604d81526020016146f3604d913961041b60201b60201c565b6102336040518060400160405280600481526020017f52617265000000000000000000000000000000000000000000000000000000008152506109606040518060800160405280604b8152602001614740604b913961041b60201b60201c565b6102936040518060400160405280600481526020017f45706963000000000000000000000000000000000000000000000000000000008152506103206040518060800160405280604b81526020016146a8604b913961041b60201b60201c565b6102f36040518060400160405280600981526020017f4c6567656e64617279000000000000000000000000000000000000000000000081525061012c6040518060800160405280605081526020016146586050913961041b60201b60201c565b6103526040518060400160405280600681526020017f4d7974686963000000000000000000000000000000000000000000000000000081525060966040518060800160405280604d815260200161478b604d913961041b60201b60201c565b50610a06565b5f60065f9054906101000a900473ffffffffffffffffffffffffffffffffffffffff1690508160065f6101000a81548173ffffffffffffffffffffffffffffffffffffffff021916908373ffffffffffffffffffffffffffffffffffffffff1602179055508173ffffffffffffffffffffffffffffffffffffffff168173ffffffffffffffffffffffffffffffffffffffff167f8be0079c531659141344cd1fd0a4f28419497f9722a3daafe3b4186f6b6457e060405160405180910390a35050565b600a604051806060016040528085815260200184815260200183815250908060018154018082558091505060019003905f5260205f2090600302015f909190919091505f820151815f01908161047191906107c4565b5060208201518160010155604082015181600201908161049191906107c4565b50505081600b5f8282546104a591906108e8565b925050819055506001600a805490506104be919061091b565b7f0310f76bacb85a30c594eea3308fbf6a30d1e569e2f297bc77aac281a6ca1f118484846040516104f1939291906109c3565b60405180910390a2505050565b5f5ffd5b5f73ffffffffffffffffffffffffffffffffffffffff82169050919050565b5f61052b82610502565b9050919050565b61053b81610521565b8114610545575f5ffd5b50565b5f8151905061055681610532565b92915050565b5f60208284031215610571576105706104fe565b5b5f61057e84828501610548565b91505092915050565b5f81519050919050565b7f4e487b71000000000000000000000000000000000000000000000000000000005f52604160045260245ffd5b7f4e487b71000000000000000000000000000000000000000000000000000000005f52602260045260245ffd5b5f600282049050600182168061060257607f821691505b602082108103610615576106146105be565b5b50919050565b5f819050815f5260205f209050919050565b5f6020601f8301049050919050565b5f82821b905092915050565b5f600883026106777fffffffffffffffffffffffffffffffffffffffffffffffffffffffffffffffff8261063c565b610681868361063c565b95508019841693508086168417925050509392505050565b5f819050919050565b5f819050919050565b5f6106c56106c06106bb84610699565b6106a2565b610699565b9050919050565b5f819050919050565b6106de836106ab565b6106f26106ea826106cc565b848454610648565b825550505050565b5f5f905090565b6107096106fa565b6107148184846106d5565b505050565b5b818110156107375761072c5f82610701565b60018101905061071a565b5050565b601f82111561077c5761074d8161061b565b6107568461062d565b81016020851015610765578190505b6107796107718561062d565b830182610719565b50505b505050565b5f82821c905092915050565b5f61079c5f1984600802610781565b1980831691505092915050565b5f6107b4838361078d565b9150826002028217905092915050565b6107cd82610587565b67ffffffffffffffff8111156107e6576107e5610591565b5b6107f082546105eb565b6107fb82828561073b565b5f60209050601f83116001811461082c575f841561081a578287015190505b61082485826107a9565b86555061088b565b601f19841661083a8661061b565b5f5b828110156108615784890151825560018201915060208501945060208101905061083c565b8683101561087e578489015161087a601f89168261078d565b8355505b6001600288020188555050505b505050505050565b61089c81610521565b82525050565b5f6020820190506108b55f830184610893565b92915050565b7f4e487b71000000000000000000000000000000000000000000000000000000005f52601160045260245ffd5b5f6108f282610699565b91506108fd83610699565b9250828201905080821115610915576109146108bb565b5b92915050565b5f61092582610699565b915061093083610699565b9250828203905081811115610948576109476108bb565b5b92915050565b5f82825260208201905092915050565b8281835e5f83830152505050565b5f601f19601f8301169050919050565b5f61098682610587565b610990818561094e565b93506109a081856020860161095e565b6109a98161096c565b840191505092915050565b6109bd81610699565b82525050565b5f6060820190508181035f8301526109db818661097c565b90506109ea60208301856109b4565b81810360408301526109fc818461097c565b9050949350505050565b608051613c1e610a3a5f395f8181610cbc01528181610d56015281816112670152818161135001526114340152613c1e5ff3fe6080604052600436106101ed575f3560e01c806380e3204e1161010c578063a22cb4651161009f578063c156bbbd1161006e578063c156bbbd146106d3578063c87b56dd146106fb578063e985e9c514610737578063f2fde38b14610773578063fe1300721461079b576101ed565b8063a22cb4651461061d578063a98ad46c14610645578063afb0a3691461066f578063b88d4fde146106ab576101ed565b806395d89b41116100db57806395d89b411461057757806396c82e57146105a157806398bdf6f5146105cb5780639d2a74b8146105f5576101ed565b806380e3204e146104dd5780638bf7f484146105075780638da5cb5b146105435780638f2aef5b1461056d576101ed565b80634aa82d6d11610184578063690d832011610153578063690d8320146104275780636efd7f331461044f57806370a082311461048b578063715018a6146104c7576101ed565b80634aa82d6d146103715780634fc3f41a1461039b57806359db80f8146103c35780636352211e146103eb576101ed565b806317b8e1cf116101c057806317b8e1cf146102bb57806323b872dd146102f957806342842e0e146103215780634317117814610349576101ed565b806301ffc9a7146101f157806306fdde031461022d578063081812fc14610257578063095ea7b314610293575b5f5ffd5b3480156101fc575f5ffd5b506102176004803603810190610212919061282a565b6107d7565b604051610224919061286f565b60405180910390f35b348015610238575f5ffd5b506102416108b8565b60405161024e91906128f8565b60405180910390f35b348015610262575f5ffd5b5061027d6004803603810190610278919061294b565b610947565b60405161028a91906129b5565b60405180910390f35b34801561029e575f5ffd5b506102b960048036038101906102b491906129f8565b610962565b005b3480156102c6575f5ffd5b506102e160048036038101906102dc919061294b565b610978565b6040516102f093929190612a45565b60405180910390f35b348015610304575f5ffd5b5061031f600480360381019061031a9190612a88565b610ab9565b005b34801561032c575f5ffd5b5061034760048036038101906103429190612a88565b610bb8565b005b348015610354575f5ffd5b5061036f600480360381019061036a9190612b39565b610bd7565b005b34801561037c575f5ffd5b50610385610c77565b6040516103929190612bca565b60405180910390f35b3480156103a6575f5ffd5b506103c160048036038101906103bc919061294b565b610c83565b005b3480156103ce575f5ffd5b506103e960048036038101906103e49190612be3565b610cb1565b005b3480156103f6575f5ffd5b50610411600480360381019061040c919061294b565b610df4565b60405161041e91906129b5565b60405180910390f35b348015610432575f5ffd5b5061044d60048036038101906104489190612c49565b610e05565b005b34801561045a575f5ffd5b506104756004803603810190610470919061294b565b610e39565b6040516104829190612bca565b60405180910390f35b348015610496575f5ffd5b506104b160048036038101906104ac9190612be3565b610e4e565b6040516104be9190612bca565b60405180910390f35b3480156104d2575f5ffd5b506104db610f04565b005b3480156104e8575f5ffd5b506104f1610f17565b6040516104fe9190612bca565b60405180910390f35b348015610512575f5ffd5b5061052d6004803603810190610528919061294b565b610f24565b60405161053a919061286f565b60405180910390f35b34801561054e575f5ffd5b50610557610f40565b60405161056491906129b5565b60405180910390f35b610575610f68565b005b348015610582575f5ffd5b5061058b61104d565b60405161059891906128f8565b60405180910390f35b3480156105ac575f5ffd5b506105b56110dd565b6040516105c29190612bca565b60405180910390f35b3480156105d6575f5ffd5b506105df6110e3565b6040516105ec9190612bca565b60405180910390f35b348015610600575f5ffd5b5061061b60048036038101906106169190612c74565b6110e9565b005b348015610628575f5ffd5b50610643600480360381019061063e9190612d41565b61124f565b005b348015610650575f5ffd5b50610659611265565b6040516106669190612dda565b60405180910390f35b34801561067a575f5ffd5b506106956004803603810190610690919061294b565b611289565b6040516106a29190612bca565b60405180910390f35b3480156106b6575f5ffd5b506106d160048036038101906106cc9190612f1b565b61129e565b005b3480156106de575f5ffd5b506106f960048036038101906106f4919061294b565b6112c3565b005b348015610706575f5ffd5b50610721600480360381019061071c919061294b565b6114fa565b60405161072e91906128f8565b60405180910390f35b348015610742575f5ffd5b5061075d60048036038101906107589190612f9b565b611634565b60405161076a919061286f565b60405180910390f35b34801561077e575f5ffd5b5061079960048036038101906107949190612be3565b6116c2565b005b3480156107a6575f5ffd5b506107c160048036038101906107bc919061294b565b611746565b6040516107ce91906128f8565b60405180910390f35b5f7f80ac58cd000000000000000000000000000000000000000000000000000000007bffffffffffffffffffffffffffffffffffffffffffffffffffffffff1916827bffffffffffffffffffffffffffffffffffffffffffffffffffffffff191614806108a157507f5b5e139f000000000000000000000000000000000000000000000000000000007bffffffffffffffffffffffffffffffffffffffffffffffffffffffff1916827bffffffffffffffffffffffffffffffffffffffffffffffffffffffff1916145b806108b157506108b082611809565b5b9050919050565b60605f80546108c690613006565b80601f01602080910402602001604051908101604052809291908181526020018280546108f290613006565b801561093d5780601f106109145761010080835404028352916020019161093d565b820191905f5260205f20905b81548152906001019060200180831161092057829003601f168201915b5050505050905090565b5f61095182611872565b5061095b826118f8565b9050919050565b610974828261096f611931565b611938565b5050565b600a8181548110610987575f80fd5b905f5260205f2090600302015f91509050805f0180546109a690613006565b80601f01602080910402602001604051908101604052809291908181526020018280546109d290613006565b8015610a1d5780601f106109f457610100808354040283529160200191610a1d565b820191905f5260205f20905b815481529060010190602001808311610a0057829003601f168201915b505050505090806001015490806002018054610a3890613006565b80601f0160208091040260200160405190810160405280929190818152602001828054610a6490613006565b8015610aaf5780601f10610a8657610100808354040283529160200191610aaf565b820191905f5260205f20905b815481529060010190602001808311610a9257829003601f168201915b5050505050905083565b5f73ffffffffffffffffffffffffffffffffffffffff168273ffffffffffffffffffffffffffffffffffffffff1603610b29575f6040517f64a0ae92000000000000000000000000000000000000000000000000000000008152600401610b2091906129b5565b60405180910390fd5b5f610b3c8383610b37611931565b61194a565b90508373ffffffffffffffffffffffffffffffffffffffff168173ffffffffffffffffffffffffffffffffffffffff1614610bb2578382826040517f64283d7b000000000000000000000000000000000000000000000000000000008152600401610ba993929190613036565b60405180910390fd5b50505050565b610bd283838360405180602001604052805f81525061129e565b505050565b610bdf611b55565b610c7085858080601f0160208091040260200160405190810160405280939291908181526020018383808284375f81840152601f19601f820116905080830192505050505050508484848080601f0160208091040260200160405190810160405280939291908181526020018383808284375f81840152601f19601f82011690508083019250505050505050611bdc565b5050505050565b6706f05b59d3b2000081565b610c8b611b55565b61e10042610c999190613098565b60085f8381526020019081526020015f208190555050565b610cb9611b55565b5f7f000000000000000000000000000000000000000000000000000000000000000073ffffffffffffffffffffffffffffffffffffffff166370a08231306040518263ffffffff1660e01b8152600401610d1391906129b5565b602060405180830381865afa158015610d2e573d5f5f3e3d5ffd5b505050506040513d601f19601f82011682018060405250810190610d5291906130df565b90507f000000000000000000000000000000000000000000000000000000000000000073ffffffffffffffffffffffffffffffffffffffff1663a9059cbb83836040518363ffffffff1660e01b8152600401610daf92919061310a565b6020604051808303815f875af1158015610dcb573d5f5f3e3d5ffd5b505050506040513d601f19601f82011682018060405250810190610def9190613145565b505050565b5f610dfe82611872565b9050919050565b610e0d611b55565b610e36478273ffffffffffffffffffffffffffffffffffffffff16611cbf90919063ffffffff16565b50565b6008602052805f5260405f205f915090505481565b5f5f73ffffffffffffffffffffffffffffffffffffffff168273ffffffffffffffffffffffffffffffffffffffff1603610ebf575f6040517f89c62b64000000000000000000000000000000000000000000000000000000008152600401610eb691906129b5565b60405180910390fd5b60035f8373ffffffffffffffffffffffffffffffffffffffff1673ffffffffffffffffffffffffffffffffffffffff1681526020019081526020015f20549050919050565b610f0c611b55565b610f155f611d85565b565b683635c9adc5dea0000081565b5f60085f8381526020019081526020015f205442109050919050565b5f60065f9054906101000a900473ffffffffffffffffffffffffffffffffffffffff16905090565b6706f05b59d3b20000341015610fb3576040517f08c379a0000000000000000000000000000000000000000000000000000000008152600401610faa906131e0565b60405180910390fd5b5f6706f05b59d3b2000034610fc8919061322b565b90505f6706f05b59d3b2000082610fdf919061325b565b90505f8134610fee919061329c565b90505f81111561102257611021813373ffffffffffffffffffffffffffffffffffffffff16611cbf90919063ffffffff16565b5b5f5f90505b838110156110475761103a336001611e48565b8080600101915050611027565b50505050565b60606001805461105c90613006565b80601f016020809104026020016040519081016040528092919081815260200182805461108890613006565b80156110d35780601f106110aa576101008083540402835291602001916110d3565b820191905f5260205f20905b8154815290600101906020018083116110b657829003601f168201915b5050505050905090565b600b5481565b60075481565b6110f1611b55565b600a805490508610611138576040517f08c379a000000000000000000000000000000000000000000000000000000000815260040161112f90613319565b60405180910390fd5b82600a878154811061114d5761114c613337565b5b905f5260205f20906003020160010154600b5461116a919061329c565b6111749190613098565b600b819055508484600a88815481106111905761118f613337565b5b905f5260205f2090600302015f0191826111ab929190613505565b5082600a87815481106111c1576111c0613337565b5b905f5260205f209060030201600101819055508181600a88815481106111ea576111e9613337565b5b905f5260205f2090600302016002019182611206929190613505565b50857f9163484c583f3ddec1cf08426a7d53d5d201447e001c364fed79b28a7479e980868686868660405161123f9594939291906135fe565b60405180910390a2505050505050565b61126161125a611931565b8383611f85565b5050565b7f000000000000000000000000000000000000000000000000000000000000000081565b6009602052805f5260405f205f915090505481565b6112a9848484610ab9565b6112bd6112b4611931565b858585856120ee565b50505050565b683635c9adc5dea0000081101561130f576040517f08c379a0000000000000000000000000000000000000000000000000000000008152600401611306906136b5565b60405180910390fd5b5f683635c9adc5dea0000082611325919061322b565b90505f683635c9adc5dea000008261133d919061325b565b90505f818461134c919061329c565b90507f000000000000000000000000000000000000000000000000000000000000000073ffffffffffffffffffffffffffffffffffffffff166323b872dd3330876040518463ffffffff1660e01b81526004016113ab939291906136d3565b6020604051808303815f875af11580156113c7573d5f5f3e3d5ffd5b505050506040513d601f19601f820116820180604052508101906113eb9190613145565b61142a576040517f08c379a000000000000000000000000000000000000000000000000000000000815260040161142190613752565b60405180910390fd5b5f8111156114cf577f000000000000000000000000000000000000000000000000000000000000000073ffffffffffffffffffffffffffffffffffffffff1663a9059cbb33836040518363ffffffff1660e01b815260040161148d92919061310a565b6020604051808303815f875af11580156114a9573d5f5f3e3d5ffd5b505050506040513d601f19601f820116820180604052508101906114cd9190613145565b505b5f5f90505b838110156114f3576114e6335f611e48565b80806001019150506114d4565b5050505050565b60605f73ffffffffffffffffffffffffffffffffffffffff1661151c83610df4565b73ffffffffffffffffffffffffffffffffffffffff1603611572576040517f08c379a0000000000000000000000000000000000000000000000000000000008152600401611569906137e0565b60405180910390fd5b600a60095f8481526020019081526020015f20548154811061159757611596613337565b5b905f5260205f20906003020160020180546115b190613006565b80601f01602080910402602001604051908101604052809291908181526020018280546115dd90613006565b80156116285780601f106115ff57610100808354040283529160200191611628565b820191905f5260205f20905b81548152906001019060200180831161160b57829003601f168201915b50505050509050919050565b5f60055f8473ffffffffffffffffffffffffffffffffffffffff1673ffffffffffffffffffffffffffffffffffffffff1681526020019081526020015f205f8373ffffffffffffffffffffffffffffffffffffffff1673ffffffffffffffffffffffffffffffffffffffff1681526020019081526020015f205f9054906101000a900460ff16905092915050565b6116ca611b55565b5f73ffffffffffffffffffffffffffffffffffffffff168173ffffffffffffffffffffffffffffffffffffffff160361173a575f6040517f1e4fbdf700000000000000000000000000000000000000000000000000000000815260040161173191906129b5565b60405180910390fd5b61174381611d85565b50565b6060600a60095f8481526020019081526020015f20548154811061176d5761176c613337565b5b905f5260205f2090600302015f01805461178690613006565b80601f01602080910402602001604051908101604052809291908181526020018280546117b290613006565b80156117fd5780601f106117d4576101008083540402835291602001916117fd565b820191905f5260205f20905b8154815290600101906020018083116117e057829003601f168201915b50505050509050919050565b5f7f01ffc9a7000000000000000000000000000000000000000000000000000000007bffffffffffffffffffffffffffffffffffffffffffffffffffffffff1916827bffffffffffffffffffffffffffffffffffffffffffffffffffffffff1916149050919050565b5f5f61187d8361229a565b90505f73ffffffffffffffffffffffffffffffffffffffff168173ffffffffffffffffffffffffffffffffffffffff16036118ef57826040517f7e2732890000000000000000000000000000000000000000000000000000000081526004016118e69190612bca565b60405180910390fd5b80915050919050565b5f60045f8381526020019081526020015f205f9054906101000a900473ffffffffffffffffffffffffffffffffffffffff169050919050565b5f33905090565b61194583838360016122d3565b505050565b5f5f6119558461229a565b90505f73ffffffffffffffffffffffffffffffffffffffff168373ffffffffffffffffffffffffffffffffffffffff161461199657611995818486612492565b5b5f73ffffffffffffffffffffffffffffffffffffffff168173ffffffffffffffffffffffffffffffffffffffff1614611a21576119d55f855f5f6122d3565b600160035f8373ffffffffffffffffffffffffffffffffffffffff1673ffffffffffffffffffffffffffffffffffffffff1681526020019081526020015f205f82825403925050819055505b5f73ffffffffffffffffffffffffffffffffffffffff168573ffffffffffffffffffffffffffffffffffffffff1614611aa057600160035f8773ffffffffffffffffffffffffffffffffffffffff1673ffffffffffffffffffffffffffffffffffffffff1681526020019081526020015f205f82825401925050819055505b8460025f8681526020019081526020015f205f6101000a81548173ffffffffffffffffffffffffffffffffffffffff021916908373ffffffffffffffffffffffffffffffffffffffff160217905550838573ffffffffffffffffffffffffffffffffffffffff168273ffffffffffffffffffffffffffffffffffffffff167fddf252ad1be2c89b69c2b068fc378daa952ba7f163c4a11628f55a4df523b3ef60405160405180910390a4809150509392505050565b611b5d611931565b73ffffffffffffffffffffffffffffffffffffffff16611b7b610f40565b73ffffffffffffffffffffffffffffffffffffffff1614611bda57611b9e611931565b6040517f118cdaa7000000000000000000000000000000000000000000000000000000008152600401611bd191906129b5565b60405180910390fd5b565b600a604051806060016040528085815260200184815260200183815250908060018154018082558091505060019003905f5260205f2090600302015f909190919091505f820151815f019081611c3291906137fe565b50602082015181600101556040820151816002019081611c5291906137fe565b50505081600b5f828254611c669190613098565b925050819055506001600a80549050611c7f919061329c565b7f0310f76bacb85a30c594eea3308fbf6a30d1e569e2f297bc77aac281a6ca1f11848484604051611cb293929190612a45565b60405180910390a2505050565b80471015611d065747816040517fcf479181000000000000000000000000000000000000000000000000000000008152600401611cfd9291906138cd565b60405180910390fd5b5f5f8373ffffffffffffffffffffffffffffffffffffffff1683604051611d2c90613921565b5f6040518083038185875af1925050503d805f8114611d66576040519150601f19603f3d011682016040523d82523d5f602084013e611d6b565b606091505b509150915081611d7f57611d7e81612555565b5b50505050565b5f60065f9054906101000a900473ffffffffffffffffffffffffffffffffffffffff1690508160065f6101000a81548173ffffffffffffffffffffffffffffffffffffffff021916908373ffffffffffffffffffffffffffffffffffffffff1602179055508173ffffffffffffffffffffffffffffffffffffffff168173ffffffffffffffffffffffffffffffffffffffff167f8be0079c531659141344cd1fd0a4f28419497f9722a3daafe3b4186f6b6457e060405160405180910390a35050565b5f60075f8154611e5790613935565b9190508190559050611e698382612599565b5f600b54611e7783866125b6565b611e81919061397c565b90505f5f90505f5f90505b600a80549050811015611efa57600a8181548110611ead57611eac613337565b5b905f5260205f2090600302016001015482611ec89190613098565b915081831015611eed578060095f8681526020019081526020015f2081905550611efa565b8080600101915050611e8c565b50828573ffffffffffffffffffffffffffffffffffffffff167ff2a8e8d2c40e75b74c3dfe5668cd9a6556268c70e6154796f79ebb6fa93b62ab600a60095f8881526020019081526020015f205481548110611f5957611f58613337565b5b905f5260205f2090600302015f0187604051611f76929190613a2d565b60405180910390a35050505050565b5f73ffffffffffffffffffffffffffffffffffffffff168273ffffffffffffffffffffffffffffffffffffffff1603611ff557816040517f5b08ba18000000000000000000000000000000000000000000000000000000008152600401611fec91906129b5565b60405180910390fd5b8060055f8573ffffffffffffffffffffffffffffffffffffffff1673ffffffffffffffffffffffffffffffffffffffff1681526020019081526020015f205f8473ffffffffffffffffffffffffffffffffffffffff1673ffffffffffffffffffffffffffffffffffffffff1681526020019081526020015f205f6101000a81548160ff0219169083151502179055508173ffffffffffffffffffffffffffffffffffffffff168373ffffffffffffffffffffffffffffffffffffffff167f17307eab39ab6107e8899845ad3d59bd9653f200f220920489ca2b5937696c31836040516120e1919061286f565b60405180910390a3505050565b5f8373ffffffffffffffffffffffffffffffffffffffff163b1115612293578273ffffffffffffffffffffffffffffffffffffffff1663150b7a02868685856040518563ffffffff1660e01b815260040161214c9493929190613aad565b6020604051808303815f875af192505050801561218757506040513d601f19601f820116820180604052508101906121849190613b0b565b60015b612208573d805f81146121b5576040519150601f19603f3d011682016040523d82523d5f602084013e6121ba565b606091505b505f81510361220057836040517f64a0ae920000000000000000000000000000000000000000000000000000000081526004016121f791906129b5565b60405180910390fd5b805181602001fd5b63150b7a0260e01b7bffffffffffffffffffffffffffffffffffffffffffffffffffffffff1916817bffffffffffffffffffffffffffffffffffffffffffffffffffffffff19161461229157836040517f64a0ae9200000000000000000000000000000000000000000000000000000000815260040161228891906129b5565b60405180910390fd5b505b5050505050565b5f60025f8381526020019081526020015f205f9054906101000a900473ffffffffffffffffffffffffffffffffffffffff169050919050565b808061230b57505f73ffffffffffffffffffffffffffffffffffffffff168273ffffffffffffffffffffffffffffffffffffffff1614155b1561243d575f61231a84611872565b90505f73ffffffffffffffffffffffffffffffffffffffff168373ffffffffffffffffffffffffffffffffffffffff161415801561238457508273ffffffffffffffffffffffffffffffffffffffff168173ffffffffffffffffffffffffffffffffffffffff1614155b801561239757506123958184611634565b155b156123d957826040517fa9fbf51f0000000000000000000000000000000000000000000000000000000081526004016123d091906129b5565b60405180910390fd5b811561243b57838573ffffffffffffffffffffffffffffffffffffffff168273ffffffffffffffffffffffffffffffffffffffff167f8c5be1e5ebec7d5bd14f71427d1e84f3dd0314c0f7b2291e5b200ac8c7c3b92560405160405180910390a45b505b8360045f8581526020019081526020015f205f6101000a81548173ffffffffffffffffffffffffffffffffffffffff021916908373ffffffffffffffffffffffffffffffffffffffff16021790555050505050565b61249d8383836125ee565b612550575f73ffffffffffffffffffffffffffffffffffffffff168373ffffffffffffffffffffffffffffffffffffffff160361251157806040517f7e2732890000000000000000000000000000000000000000000000000000000081526004016125089190612bca565b60405180910390fd5b81816040517f177e802f00000000000000000000000000000000000000000000000000000000815260040161254792919061310a565b60405180910390fd5b505050565b5f815111156125675780518082602001fd5b6040517fd6bda27500000000000000000000000000000000000000000000000000000000815260040160405180910390fd5b6125b2828260405180602001604052805f8152506126ae565b5050565b5f424484846040516020016125ce9493929190613b9b565b604051602081830303815290604052805190602001205f1c905092915050565b5f5f73ffffffffffffffffffffffffffffffffffffffff168373ffffffffffffffffffffffffffffffffffffffff16141580156126a557508273ffffffffffffffffffffffffffffffffffffffff168473ffffffffffffffffffffffffffffffffffffffff16148061266657506126658484611634565b5b806126a457508273ffffffffffffffffffffffffffffffffffffffff1661268c836118f8565b73ffffffffffffffffffffffffffffffffffffffff16145b5b90509392505050565b6126b883836126d1565b6126cc6126c3611931565b5f8585856120ee565b505050565b5f73ffffffffffffffffffffffffffffffffffffffff168273ffffffffffffffffffffffffffffffffffffffff1603612741575f6040517f64a0ae9200000000000000000000000000000000000000000000000000000000815260040161273891906129b5565b60405180910390fd5b5f61274d83835f61194a565b90505f73ffffffffffffffffffffffffffffffffffffffff168173ffffffffffffffffffffffffffffffffffffffff16146127bf575f6040517f73c6ac6e0000000000000000000000000000000000000000000000000000000081526004016127b691906129b5565b60405180910390fd5b505050565b5f604051905090565b5f5ffd5b5f5ffd5b5f7fffffffff0000000000000000000000000000000000000000000000000000000082169050919050565b612809816127d5565b8114612813575f5ffd5b50565b5f8135905061282481612800565b92915050565b5f6020828403121561283f5761283e6127cd565b5b5f61284c84828501612816565b91505092915050565b5f8115159050919050565b61286981612855565b82525050565b5f6020820190506128825f830184612860565b92915050565b5f81519050919050565b5f82825260208201905092915050565b8281835e5f83830152505050565b5f601f19601f8301169050919050565b5f6128ca82612888565b6128d48185612892565b93506128e48185602086016128a2565b6128ed816128b0565b840191505092915050565b5f6020820190508181035f83015261291081846128c0565b905092915050565b5f819050919050565b61292a81612918565b8114612934575f5ffd5b50565b5f8135905061294581612921565b92915050565b5f602082840312156129605761295f6127cd565b5b5f61296d84828501612937565b91505092915050565b5f73ffffffffffffffffffffffffffffffffffffffff82169050919050565b5f61299f82612976565b9050919050565b6129af81612995565b82525050565b5f6020820190506129c85f8301846129a6565b92915050565b6129d781612995565b81146129e1575f5ffd5b50565b5f813590506129f2816129ce565b92915050565b5f5f60408385031215612a0e57612a0d6127cd565b5b5f612a1b858286016129e4565b9250506020612a2c85828601612937565b9150509250929050565b612a3f81612918565b82525050565b5f6060820190508181035f830152612a5d81866128c0565b9050612a6c6020830185612a36565b8181036040830152612a7e81846128c0565b9050949350505050565b5f5f5f60608486031215612a9f57612a9e6127cd565b5b5f612aac868287016129e4565b9350506020612abd868287016129e4565b9250506040612ace86828701612937565b9150509250925092565b5f5ffd5b5f5ffd5b5f5ffd5b5f5f83601f840112612af957612af8612ad8565b5b8235905067ffffffffffffffff811115612b1657612b15612adc565b5b602083019150836001820283011115612b3257612b31612ae0565b5b9250929050565b5f5f5f5f5f60608688031215612b5257612b516127cd565b5b5f86013567ffffffffffffffff811115612b6f57612b6e6127d1565b5b612b7b88828901612ae4565b95509550506020612b8e88828901612937565b935050604086013567ffffffffffffffff811115612baf57612bae6127d1565b5b612bbb88828901612ae4565b92509250509295509295909350565b5f602082019050612bdd5f830184612a36565b92915050565b5f60208284031215612bf857612bf76127cd565b5b5f612c05848285016129e4565b91505092915050565b5f612c1882612976565b9050919050565b612c2881612c0e565b8114612c32575f5ffd5b50565b5f81359050612c4381612c1f565b92915050565b5f60208284031215612c5e57612c5d6127cd565b5b5f612c6b84828501612c35565b91505092915050565b5f5f5f5f5f5f60808789031215612c8e57612c8d6127cd565b5b5f612c9b89828a01612937565b965050602087013567ffffffffffffffff811115612cbc57612cbb6127d1565b5b612cc889828a01612ae4565b95509550506040612cdb89828a01612937565b935050606087013567ffffffffffffffff811115612cfc57612cfb6127d1565b5b612d0889828a01612ae4565b92509250509295509295509295565b612d2081612855565b8114612d2a575f5ffd5b50565b5f81359050612d3b81612d17565b92915050565b5f5f60408385031215612d5757612d566127cd565b5b5f612d64858286016129e4565b9250506020612d7585828601612d2d565b9150509250929050565b5f819050919050565b5f612da2612d9d612d9884612976565b612d7f565b612976565b9050919050565b5f612db382612d88565b9050919050565b5f612dc482612da9565b9050919050565b612dd481612dba565b82525050565b5f602082019050612ded5f830184612dcb565b92915050565b5f5ffd5b7f4e487b71000000000000000000000000000000000000000000000000000000005f52604160045260245ffd5b612e2d826128b0565b810181811067ffffffffffffffff82111715612e4c57612e4b612df7565b5b80604052505050565b5f612e5e6127c4565b9050612e6a8282612e24565b919050565b5f67ffffffffffffffff821115612e8957612e88612df7565b5b612e92826128b0565b9050602081019050919050565b828183375f83830152505050565b5f612ebf612eba84612e6f565b612e55565b905082815260208101848484011115612edb57612eda612df3565b5b612ee6848285612e9f565b509392505050565b5f82601f830112612f0257612f01612ad8565b5b8135612f12848260208601612ead565b91505092915050565b5f5f5f5f60808587031215612f3357612f326127cd565b5b5f612f40878288016129e4565b9450506020612f51878288016129e4565b9350506040612f6287828801612937565b925050606085013567ffffffffffffffff811115612f8357612f826127d1565b5b612f8f87828801612eee565b91505092959194509250565b5f5f60408385031215612fb157612fb06127cd565b5b5f612fbe858286016129e4565b9250506020612fcf858286016129e4565b9150509250929050565b7f4e487b71000000000000000000000000000000000000000000000000000000005f52602260045260245ffd5b5f600282049050600182168061301d57607f821691505b6020821081036130305761302f612fd9565b5b50919050565b5f6060820190506130495f8301866129a6565b6130566020830185612a36565b61306360408301846129a6565b949350505050565b7f4e487b71000000000000000000000000000000000000000000000000000000005f52601160045260245ffd5b5f6130a282612918565b91506130ad83612918565b92508282019050808211156130c5576130c461306b565b5b92915050565b5f815190506130d981612921565b92915050565b5f602082840312156130f4576130f36127cd565b5b5f613101848285016130cb565b91505092915050565b5f60408201905061311d5f8301856129a6565b61312a6020830184612a36565b9392505050565b5f8151905061313f81612d17565b92915050565b5f6020828403121561315a576131596127cd565b5b5f61316784828501613131565b91505092915050565b7f53656e6420656e6f7567682045544820666f72206174206c65617374206f6e655f8201527f204e465400000000000000000000000000000000000000000000000000000000602082015250565b5f6131ca602483612892565b91506131d582613170565b604082019050919050565b5f6020820190508181035f8301526131f7816131be565b9050919050565b7f4e487b71000000000000000000000000000000000000000000000000000000005f52601260045260245ffd5b5f61323582612918565b915061324083612918565b9250826132505761324f6131fe565b5b828204905092915050565b5f61326582612918565b915061327083612918565b925082820261327e81612918565b915082820484148315176132955761329461306b565b5b5092915050565b5f6132a682612918565b91506132b183612918565b92508282039050818111156132c9576132c861306b565b5b92915050565b7f496e76616c6964207261726974792049440000000000000000000000000000005f82015250565b5f613303601183612892565b915061330e826132cf565b602082019050919050565b5f6020820190508181035f830152613330816132f7565b9050919050565b7f4e487b71000000000000000000000000000000000000000000000000000000005f52603260045260245ffd5b5f82905092915050565b5f819050815f5260205f209050919050565b5f6020601f8301049050919050565b5f82821b905092915050565b5f600883026133ca7fffffffffffffffffffffffffffffffffffffffffffffffffffffffffffffffff8261338f565b6133d4868361338f565b95508019841693508086168417925050509392505050565b5f6134066134016133fc84612918565b612d7f565b612918565b9050919050565b5f819050919050565b61341f836133ec565b61343361342b8261340d565b84845461339b565b825550505050565b5f5f905090565b61344a61343b565b613455818484613416565b505050565b5b818110156134785761346d5f82613442565b60018101905061345b565b5050565b601f8211156134bd5761348e8161336e565b61349784613380565b810160208510156134a6578190505b6134ba6134b285613380565b83018261345a565b50505b505050565b5f82821c905092915050565b5f6134dd5f19846008026134c2565b1980831691505092915050565b5f6134f583836134ce565b9150826002028217905092915050565b61350f8383613364565b67ffffffffffffffff81111561352857613527612df7565b5b6135328254613006565b61353d82828561347c565b5f601f83116001811461356a575f8415613558578287013590505b61356285826134ea565b8655506135c9565b601f1984166135788661336e565b5f5b8281101561359f5784890135825560018201915060208501945060208101905061357a565b868310156135bc57848901356135b8601f8916826134ce565b8355505b6001600288020188555050505b50505050505050565b5f6135dd8385612892565b93506135ea838584612e9f565b6135f3836128b0565b840190509392505050565b5f6060820190508181035f8301526136178187896135d2565b90506136266020830186612a36565b81810360408301526136398184866135d2565b90509695505050505050565b7f53656e6420656e6f756768205553445420666f72206174206c65617374206f6e5f8201527f65204e4654000000000000000000000000000000000000000000000000000000602082015250565b5f61369f602583612892565b91506136aa82613645565b604082019050919050565b5f6020820190508181035f8301526136cc81613693565b9050919050565b5f6060820190506136e65f8301866129a6565b6136f360208301856129a6565b6137006040830184612a36565b949350505050565b7f55534454207061796d656e74206661696c6564000000000000000000000000005f82015250565b5f61373c601383612892565b915061374782613708565b602082019050919050565b5f6020820190508181035f83015261376981613730565b9050919050565b7f4552433732314d657461646174613a206e6f6e6578697374656e7420746f6b655f8201527f6e00000000000000000000000000000000000000000000000000000000000000602082015250565b5f6137ca602183612892565b91506137d582613770565b604082019050919050565b5f6020820190508181035f8301526137f7816137be565b9050919050565b61380782612888565b67ffffffffffffffff8111156138205761381f612df7565b5b61382a8254613006565b61383582828561347c565b5f60209050601f831160018114613866575f8415613854578287015190505b61385e85826134ea565b8655506138c5565b601f1984166138748661336e565b5f5b8281101561389b57848901518255600182019150602085019450602081019050613876565b868310156138b857848901516138b4601f8916826134ce565b8355505b6001600288020188555050505b505050505050565b5f6040820190506138e05f830185612a36565b6138ed6020830184612a36565b9392505050565b5f81905092915050565b50565b5f61390c5f836138f4565b9150613917826138fe565b5f82019050919050565b5f61392b82613901565b9150819050919050565b5f61393f82612918565b91507fffffffffffffffffffffffffffffffffffffffffffffffffffffffffffffffff82036139715761397061306b565b5b600182019050919050565b5f61398682612918565b915061399183612918565b9250826139a1576139a06131fe565b5b828206905092915050565b5f81546139b881613006565b6139c28186612892565b9450600182165f81146139dc57600181146139f257613a24565b60ff198316865281151560200286019350613a24565b6139fb8561336e565b5f5b83811015613a1c578154818901526001820191506020810190506139fd565b808801955050505b50505092915050565b5f6040820190508181035f830152613a4581856139ac565b9050613a546020830184612860565b9392505050565b5f81519050919050565b5f82825260208201905092915050565b5f613a7f82613a5b565b613a898185613a65565b9350613a998185602086016128a2565b613aa2816128b0565b840191505092915050565b5f608082019050613ac05f8301876129a6565b613acd60208301866129a6565b613ada6040830185612a36565b8181036060830152613aec8184613a75565b905095945050505050565b5f81519050613b0581612800565b92915050565b5f60208284031215613b2057613b1f6127cd565b5b5f613b2d84828501613af7565b91505092915050565b5f819050919050565b613b50613b4b82612918565b613b36565b82525050565b5f8160601b9050919050565b5f613b6c82613b56565b9050919050565b5f613b7d82613b62565b9050919050565b613b95613b9082612995565b613b73565b82525050565b5f613ba68287613b3f565b602082019150613bb68286613b3f565b602082019150613bc68285613b3f565b602082019150613bd68284613b84565b6014820191508190509594505050505056fea26469706673582212203ec6689d734bb72720a4f4060837b49a21510410d44300bf1b7cbb03103d70c864736f6c634300081d0033697066733a2f2f62616679626569686a6d35766732746c71737934356d6c3634746c79777a67616e757078787674726d73707a7569323677687a6b76623675346c792f6c6567656e646172792e706e67697066733a2f2f62616679626569686a6d35766732746c71737934356d6c3634746c79777a67616e757078787674726d73707a7569323677687a6b76623675346c792f657069632e706e67697066733a2f2f62616679626569686a6d35766732746c71737934356d6c3634746c79777a67616e757078787674726d73707a7569323677687a6b76623675346c792f636f6d6d6f6e2e706e67697066733a2f2f62616679626569686a6d35766732746c71737934356d6c3634746c79777a67616e757078787674726d73707a7569323677687a6b76623675346c792f726172652e706e67697066733a2f2f62616679626569686a6d35766732746c71737934356d6c3634746c79777a67616e757078787674726d73707a7569323677687a6b76623675346c792f6d79746869632e706e67",
			"opcodes": "PUSH1 0xA0 PUSH1 0x40 MSTORE CALLVALUE DUP1 ISZERO PUSH2 0xF JUMPI PUSH0 PUSH0 REVERT JUMPDEST POP PUSH1 0x40 MLOAD PUSH2 0x47D8 CODESIZE SUB DUP1 PUSH2 0x47D8 DUP4 CODECOPY DUP2 DUP2 ADD PUSH1 0x40 MSTORE DUP2 ADD SWAP1 PUSH2 0x31 SWAP2 SWAP1 PUSH2 0x55C JUMP JUMPDEST CALLER PUSH1 0x40 MLOAD DUP1 PUSH1 0x40 ADD PUSH1 0x40 MSTORE DUP1 PUSH1 0x13 DUP2 MSTORE PUSH1 0x20 ADD PUSH32 0x50726564696374697665204475656C204E465400000000000000000000000000 DUP2 MSTORE POP PUSH1 0x40 MLOAD DUP1 PUSH1 0x40 ADD PUSH1 0x40 MSTORE DUP1 PUSH1 0x5 DUP2 MSTORE PUSH1 0x20 ADD PUSH32 0x50444E4654000000000000000000000000000000000000000000000000000000 DUP2 MSTORE POP DUP2 PUSH0 SWAP1 DUP2 PUSH2 0xAC SWAP2 SWAP1 PUSH2 0x7C4 JUMP JUMPDEST POP DUP1 PUSH1 0x1 SWAP1 DUP2 PUSH2 0xBC SWAP2 SWAP1 PUSH2 0x7C4 JUMP JUMPDEST POP POP POP PUSH0 PUSH20 0xFFFFFFFFFFFFFFFFFFFFFFFFFFFFFFFFFFFFFFFF AND DUP2 PUSH20 0xFFFFFFFFFFFFFFFFFFFFFFFFFFFFFFFFFFFFFFFF AND SUB PUSH2 0x12F JUMPI PUSH0 PUSH1 0x40 MLOAD PUSH32 0x1E4FBDF700000000000000000000000000000000000000000000000000000000 DUP2 MSTORE PUSH1 0x4 ADD PUSH2 0x126 SWAP2 SWAP1 PUSH2 0x8A2 JUMP JUMPDEST PUSH1 0x40 MLOAD DUP1 SWAP2 SUB SWAP1 REVERT JUMPDEST PUSH2 0x13E DUP2 PUSH2 0x358 PUSH1 0x20 SHL PUSH1 0x20 SHR JUMP JUMPDEST POP DUP1 PUSH20 0xFFFFFFFFFFFFFFFFFFFFFFFFFFFFFFFFFFFFFFFF AND PUSH1 0x80 DUP2 PUSH20 0xFFFFFFFFFFFFFFFFFFFFFFFFFFFFFFFFFFFFFFFF AND DUP2 MSTORE POP POP PUSH2 0x1D3 PUSH1 0x40 MLOAD DUP1 PUSH1 0x40 ADD PUSH1 0x40 MSTORE DUP1 PUSH1 0x6 DUP2 MSTORE PUSH1 0x20 ADD PUSH32 0x436F6D6D6F6E0000000000000000000000000000000000000000000000000000 DUP2 MSTORE POP PUSH2 0x1964 PUSH1 0x40 MLOAD DUP1 PUSH1 0x80 ADD PUSH1 0x40 MSTORE DUP1 PUSH1 0x4D DUP2 MSTORE PUSH1 0x20 ADD PUSH2 0x46F3 PUSH1 0x4D SWAP2 CODECOPY PUSH2 0x41B PUSH1 0x20 SHL PUSH1 0x20 SHR JUMP JUMPDEST PUSH2 0x233 PUSH1 0x40 MLOAD DUP1 PUSH1 0x40 ADD PUSH1 0x40 MSTORE DUP1 PUSH1 0x4 DUP2 MSTORE PUSH1 0x20 ADD PUSH32 0x5261726500000000000000000000000000000000000000000000000000000000 DUP2 MSTORE POP PUSH2 0x960 PUSH1 0x40 MLOAD DUP1 PUSH1 0x80 ADD PUSH1 0x40 MSTORE DUP1 PUSH1 0x4B DUP2 MSTORE PUSH1 0x20 ADD PUSH2 0x4740 PUSH1 0x4B SWAP2 CODECOPY PUSH2 0x41B PUSH1 0x20 SHL PUSH1 0x20 SHR JUMP JUMPDEST PUSH2 0x293 PUSH1 0x40 MLOAD DUP1 PUSH1 0x40 ADD PUSH1 0x40 MSTORE DUP1 PUSH1 0x4 DUP2 MSTORE PUSH1 0x20 ADD PUSH32 0x4570696300000000000000000000000000000000000000000000000000000000 DUP2 MSTORE POP PUSH2 0x320 PUSH1 0x40 MLOAD DUP1 PUSH1 0x80 ADD PUSH1 0x40 MSTORE DUP1 PUSH1 0x4B DUP2 MSTORE PUSH1 0x20 ADD PUSH2 0x46A8 PUSH1 0x4B SWAP2 CODECOPY PUSH2 0x41B PUSH1 0x20 SHL PUSH1 0x20 SHR JUMP JUMPDEST PUSH2 0x2F3 PUSH1 0x40 MLOAD DUP1 PUSH1 0x40 ADD PUSH1 0x40 MSTORE DUP1 PUSH1 0x9 DUP2 MSTORE PUSH1 0x20 ADD PUSH32 0x4C6567656E646172790000000000000000000000000000000000000000000000 DUP2 MSTORE POP PUSH2 0x12C PUSH1 0x40 MLOAD DUP1 PUSH1 0x80 ADD PUSH1 0x40 MSTORE DUP1 PUSH1 0x50 DUP2 MSTORE PUSH1 0x20 ADD PUSH2 0x4658 PUSH1 0x50 SWAP2 CODECOPY PUSH2 0x41B PUSH1 0x20 SHL PUSH1 0x20 SHR JUMP JUMPDEST PUSH2 0x352 PUSH1 0x40 MLOAD DUP1 PUSH1 0x40 ADD PUSH1 0x40 MSTORE DUP1 PUSH1 0x6 DUP2 MSTORE PUSH1 0x20 ADD PUSH32 0x4D79746869630000000000000000000000000000000000000000000000000000 DUP2 MSTORE POP PUSH1 0x96 PUSH1 0x40 MLOAD DUP1 PUSH1 0x80 ADD PUSH1 0x40 MSTORE DUP1 PUSH1 0x4D DUP2 MSTORE PUSH1 0x20 ADD PUSH2 0x478B PUSH1 0x4D SWAP2 CODECOPY PUSH2 0x41B PUSH1 0x20 SHL PUSH1 0x20 SHR JUMP JUMPDEST POP PUSH2 0xA06 JUMP JUMPDEST PUSH0 PUSH1 0x6 PUSH0 SWAP1 SLOAD SWAP1 PUSH2 0x100 EXP SWAP1 DIV PUSH20 0xFFFFFFFFFFFFFFFFFFFFFFFFFFFFFFFFFFFFFFFF AND SWAP1 POP DUP2 PUSH1 0x6 PUSH0 PUSH2 0x100 EXP DUP2 SLOAD DUP2 PUSH20 0xFFFFFFFFFFFFFFFFFFFFFFFFFFFFFFFFFFFFFFFF MUL NOT AND SWAP1 DUP4 PUSH20 0xFFFFFFFFFFFFFFFFFFFFFFFFFFFFFFFFFFFFFFFF AND MUL OR SWAP1 SSTORE POP DUP2 PUSH20 0xFFFFFFFFFFFFFFFFFFFFFFFFFFFFFFFFFFFFFFFF AND DUP2 PUSH20 0xFFFFFFFFFFFFFFFFFFFFFFFFFFFFFFFFFFFFFFFF AND PUSH32 0x8BE0079C531659141344CD1FD0A4F28419497F9722A3DAAFE3B4186F6B6457E0 PUSH1 0x40 MLOAD PUSH1 0x40 MLOAD DUP1 SWAP2 SUB SWAP1 LOG3 POP POP JUMP JUMPDEST PUSH1 0xA PUSH1 0x40 MLOAD DUP1 PUSH1 0x60 ADD PUSH1 0x40 MSTORE DUP1 DUP6 DUP2 MSTORE PUSH1 0x20 ADD DUP5 DUP2 MSTORE PUSH1 0x20 ADD DUP4 DUP2 MSTORE POP SWAP1 DUP1 PUSH1 0x1 DUP2 SLOAD ADD DUP1 DUP3 SSTORE DUP1 SWAP2 POP POP PUSH1 0x1 SWAP1 SUB SWAP1 PUSH0 MSTORE PUSH1 0x20 PUSH0 KECCAK256 SWAP1 PUSH1 0x3 MUL ADD PUSH0 SWAP1 SWAP2 SWAP1 SWAP2 SWAP1 SWAP2 POP PUSH0 DUP3 ADD MLOAD DUP2 PUSH0 ADD SWAP1 DUP2 PUSH2 0x471 SWAP2 SWAP1 PUSH2 0x7C4 JUMP JUMPDEST POP PUSH1 0x20 DUP3 ADD MLOAD DUP2 PUSH1 0x1 ADD SSTORE PUSH1 0x40 DUP3 ADD MLOAD DUP2 PUSH1 0x2 ADD SWAP1 DUP2 PUSH2 0x491 SWAP2 SWAP1 PUSH2 0x7C4 JUMP JUMPDEST POP POP POP DUP2 PUSH1 0xB PUSH0 DUP3 DUP3 SLOAD PUSH2 0x4A5 SWAP2 SWAP1 PUSH2 0x8E8 JUMP JUMPDEST SWAP3 POP POP DUP2 SWAP1 SSTORE POP PUSH1 0x1 PUSH1 0xA DUP1 SLOAD SWAP1 POP PUSH2 0x4BE SWAP2 SWAP1 PUSH2 0x91B JUMP JUMPDEST PUSH32 0x310F76BACB85A30C594EEA3308FBF6A30D1E569E2F297BC77AAC281A6CA1F11 DUP5 DUP5 DUP5 PUSH1 0x40 MLOAD PUSH2 0x4F1 SWAP4 SWAP3 SWAP2 SWAP1 PUSH2 0x9C3 JUMP JUMPDEST PUSH1 0x40 MLOAD DUP1 SWAP2 SUB SWAP1 LOG2 POP POP POP JUMP JUMPDEST PUSH0 PUSH0 REVERT JUMPDEST PUSH0 PUSH20 0xFFFFFFFFFFFFFFFFFFFFFFFFFFFFFFFFFFFFFFFF DUP3 AND SWAP1 POP SWAP2 SWAP1 POP JUMP JUMPDEST PUSH0 PUSH2 0x52B DUP3 PUSH2 0x502 JUMP JUMPDEST SWAP1 POP SWAP2 SWAP1 POP JUMP JUMPDEST PUSH2 0x53B DUP2 PUSH2 0x521 JUMP JUMPDEST DUP2 EQ PUSH2 0x545 JUMPI PUSH0 PUSH0 REVERT JUMPDEST POP JUMP JUMPDEST PUSH0 DUP2 MLOAD SWAP1 POP PUSH2 0x556 DUP2 PUSH2 0x532 JUMP JUMPDEST SWAP3 SWAP2 POP POP JUMP JUMPDEST PUSH0 PUSH1 0x20 DUP3 DUP5 SUB SLT ISZERO PUSH2 0x571 JUMPI PUSH2 0x570 PUSH2 0x4FE JUMP JUMPDEST JUMPDEST PUSH0 PUSH2 0x57E DUP5 DUP3 DUP6 ADD PUSH2 0x548 JUMP JUMPDEST SWAP2 POP POP SWAP3 SWAP2 POP POP JUMP JUMPDEST PUSH0 DUP2 MLOAD SWAP1 POP SWAP2 SWAP1 POP JUMP JUMPDEST PUSH32 0x4E487B7100000000000000000000000000000000000000000000000000000000 PUSH0 MSTORE PUSH1 0x41 PUSH1 0x4 MSTORE PUSH1 0x24 PUSH0 REVERT JUMPDEST PUSH32 0x4E487B7100000000000000000000000000000000000000000000000000000000 PUSH0 MSTORE PUSH1 0x22 PUSH1 0x4 MSTORE PUSH1 0x24 PUSH0 REVERT JUMPDEST PUSH0 PUSH1 0x2 DUP3 DIV SWAP1 POP PUSH1 0x1 DUP3 AND DUP1 PUSH2 0x602 JUMPI PUSH1 0x7F DUP3 AND SWAP2 POP JUMPDEST PUSH1 0x20 DUP3 LT DUP2 SUB PUSH2 0x615 JUMPI PUSH2 0x614 PUSH2 0x5BE JUMP JUMPDEST JUMPDEST POP SWAP2 SWAP1 POP JUMP JUMPDEST PUSH0 DUP2 SWAP1 POP DUP2 PUSH0 MSTORE PUSH1 0x20 PUSH0 KECCAK256 SWAP1 POP SWAP2 SWAP1 POP JUMP JUMPDEST PUSH0 PUSH1 0x20 PUSH1 0x1F DUP4 ADD DIV SWAP1 POP SWAP2 SWAP1 POP JUMP JUMPDEST PUSH0 DUP3 DUP3 SHL SWAP1 POP SWAP3 SWAP2 POP POP JUMP JUMPDEST PUSH0 PUSH1 0x8 DUP4 MUL PUSH2 0x677 PUSH32 0xFFFFFFFFFFFFFFFFFFFFFFFFFFFFFFFFFFFFFFFFFFFFFFFFFFFFFFFFFFFFFFFF DUP3 PUSH2 0x63C JUMP JUMPDEST PUSH2 0x681 DUP7 DUP4 PUSH2 0x63C JUMP JUMPDEST SWAP6 POP DUP1 NOT DUP5 AND SWAP4 POP DUP1 DUP7 AND DUP5 OR SWAP3 POP POP POP SWAP4 SWAP3 POP POP POP JUMP JUMPDEST PUSH0 DUP2 SWAP1 POP SWAP2 SWAP1 POP JUMP JUMPDEST PUSH0 DUP2 SWAP1 POP SWAP2 SWAP1 POP JUMP JUMPDEST PUSH0 PUSH2 0x6C5 PUSH2 0x6C0 PUSH2 0x6BB DUP5 PUSH2 0x699 JUMP JUMPDEST PUSH2 0x6A2 JUMP JUMPDEST PUSH2 0x699 JUMP JUMPDEST SWAP1 POP SWAP2 SWAP1 POP JUMP JUMPDEST PUSH0 DUP2 SWAP1 POP SWAP2 SWAP1 POP JUMP JUMPDEST PUSH2 0x6DE DUP4 PUSH2 0x6AB JUMP JUMPDEST PUSH2 0x6F2 PUSH2 0x6EA DUP3 PUSH2 0x6CC JUMP JUMPDEST DUP5 DUP5 SLOAD PUSH2 0x648 JUMP JUMPDEST DUP3 SSTORE POP POP POP POP JUMP JUMPDEST PUSH0 PUSH0 SWAP1 POP SWAP1 JUMP JUMPDEST PUSH2 0x709 PUSH2 0x6FA JUMP JUMPDEST PUSH2 0x714 DUP2 DUP5 DUP5 PUSH2 0x6D5 JUMP JUMPDEST POP POP POP JUMP JUMPDEST JUMPDEST DUP2 DUP2 LT ISZERO PUSH2 0x737 JUMPI PUSH2 0x72C PUSH0 DUP3 PUSH2 0x701 JUMP JUMPDEST PUSH1 0x1 DUP2 ADD SWAP1 POP PUSH2 0x71A JUMP JUMPDEST POP POP JUMP JUMPDEST PUSH1 0x1F DUP3 GT ISZERO PUSH2 0x77C JUMPI PUSH2 0x74D DUP2 PUSH2 0x61B JUMP JUMPDEST PUSH2 0x756 DUP5 PUSH2 0x62D JUMP JUMPDEST DUP2 ADD PUSH1 0x20 DUP6 LT ISZERO PUSH2 0x765 JUMPI DUP2 SWAP1 POP JUMPDEST PUSH2 0x779 PUSH2 0x771 DUP6 PUSH2 0x62D JUMP JUMPDEST DUP4 ADD DUP3 PUSH2 0x719 JUMP JUMPDEST POP POP JUMPDEST POP POP POP JUMP JUMPDEST PUSH0 DUP3 DUP3 SHR SWAP1 POP SWAP3 SWAP2 POP POP JUMP JUMPDEST PUSH0 PUSH2 0x79C PUSH0 NOT DUP5 PUSH1 0x8 MUL PUSH2 0x781 JUMP JUMPDEST NOT DUP1 DUP4 AND SWAP2 POP POP SWAP3 SWAP2 POP POP JUMP JUMPDEST PUSH0 PUSH2 0x7B4 DUP4 DUP4 PUSH2 0x78D JUMP JUMPDEST SWAP2 POP DUP3 PUSH1 0x2 MUL DUP3 OR SWAP1 POP SWAP3 SWAP2 POP POP JUMP JUMPDEST PUSH2 0x7CD DUP3 PUSH2 0x587 JUMP JUMPDEST PUSH8 0xFFFFFFFFFFFFFFFF DUP2 GT ISZERO PUSH2 0x7E6 JUMPI PUSH2 0x7E5 PUSH2 0x591 JUMP JUMPDEST JUMPDEST PUSH2 0x7F0 DUP3 SLOAD PUSH2 0x5EB JUMP JUMPDEST PUSH2 0x7FB DUP3 DUP3 DUP6 PUSH2 0x73B JUMP JUMPDEST PUSH0 PUSH1 0x20 SWAP1 POP PUSH1 0x1F DUP4 GT PUSH1 0x1 DUP2 EQ PUSH2 0x82C JUMPI PUSH0 DUP5 ISZERO PUSH2 0x81A JUMPI DUP3 DUP8 ADD MLOAD SWAP1 POP JUMPDEST PUSH2 0x824 DUP6 DUP3 PUSH2 0x7A9 JUMP JUMPDEST DUP7 SSTORE POP PUSH2 0x88B JUMP JUMPDEST PUSH1 0x1F NOT DUP5 AND PUSH2 0x83A DUP7 PUSH2 0x61B JUMP JUMPDEST PUSH0 JUMPDEST DUP3 DUP2 LT ISZERO PUSH2 0x861 JUMPI DUP5 DUP10 ADD MLOAD DUP3 SSTORE PUSH1 0x1 DUP3 ADD SWAP2 POP PUSH1 0x20 DUP6 ADD SWAP5 POP PUSH1 0x20 DUP2 ADD SWAP1 POP PUSH2 0x83C JUMP JUMPDEST DUP7 DUP4 LT ISZERO PUSH2 0x87E JUMPI DUP5 DUP10 ADD MLOAD PUSH2 0x87A PUSH1 0x1F DUP10 AND DUP3 PUSH2 0x78D JUMP JUMPDEST DUP4 SSTORE POP JUMPDEST PUSH1 0x1 PUSH1 0x2 DUP9 MUL ADD DUP9 SSTORE POP POP POP JUMPDEST POP POP POP POP POP POP JUMP JUMPDEST PUSH2 0x89C DUP2 PUSH2 0x521 JUMP JUMPDEST DUP3 MSTORE POP POP JUMP JUMPDEST PUSH0 PUSH1 0x20 DUP3 ADD SWAP1 POP PUSH2 0x8B5 PUSH0 DUP4 ADD DUP5 PUSH2 0x893 JUMP JUMPDEST SWAP3 SWAP2 POP POP JUMP JUMPDEST PUSH32 0x4E487B7100000000000000000000000000000000000000000000000000000000 PUSH0 MSTORE PUSH1 0x11 PUSH1 0x4 MSTORE PUSH1 0x24 PUSH0 REVERT JUMPDEST PUSH0 PUSH2 0x8F2 DUP3 PUSH2 0x699 JUMP JUMPDEST SWAP2 POP PUSH2 0x8FD DUP4 PUSH2 0x699 JUMP JUMPDEST SWAP3 POP DUP3 DUP3 ADD SWAP1 POP DUP1 DUP3 GT ISZERO PUSH2 0x915 JUMPI PUSH2 0x914 PUSH2 0x8BB JUMP JUMPDEST JUMPDEST SWAP3 SWAP2 POP POP JUMP JUMPDEST PUSH0 PUSH2 0x925 DUP3 PUSH2 0x699 JUMP JUMPDEST SWAP2 POP PUSH2 0x930 DUP4 PUSH2 0x699 JUMP JUMPDEST SWAP3 POP DUP3 DUP3 SUB SWAP1 POP DUP2 DUP2 GT ISZERO PUSH2 0x948 JUMPI PUSH2 0x947 PUSH2 0x8BB JUMP JUMPDEST JUMPDEST SWAP3 SWAP2 POP POP JUMP JUMPDEST PUSH0 DUP3 DUP3 MSTORE PUSH1 0x20 DUP3 ADD SWAP1 POP SWAP3 SWAP2 POP POP JUMP JUMPDEST DUP3 DUP2 DUP4 MCOPY PUSH0 DUP4 DUP4 ADD MSTORE POP POP POP JUMP JUMPDEST PUSH0 PUSH1 0x1F NOT PUSH1 0x1F DUP4 ADD AND SWAP1 POP SWAP2 SWAP1 POP JUMP JUMPDEST PUSH0 PUSH2 0x986 DUP3 PUSH2 0x587 JUMP JUMPDEST PUSH2 0x990 DUP2 DUP6 PUSH2 0x94E JUMP JUMPDEST SWAP4 POP PUSH2 0x9A0 DUP2 DUP6 PUSH1 0x20 DUP7 ADD PUSH2 0x95E JUMP JUMPDEST PUSH2 0x9A9 DUP2 PUSH2 0x96C JUMP JUMPDEST DUP5 ADD SWAP2 POP POP SWAP3 SWAP2 POP POP JUMP JUMPDEST PUSH2 0x9BD DUP2 PUSH2 0x699 JUMP JUMPDEST DUP3 MSTORE POP POP JUMP JUMPDEST PUSH0 PUSH1 0x60 DUP3 ADD SWAP1 POP DUP2 DUP2 SUB PUSH0 DUP4 ADD MSTORE PUSH2 0x9DB DUP2 DUP7 PUSH2 0x97C JUMP JUMPDEST SWAP1 POP PUSH2 0x9EA PUSH1 0x20 DUP4 ADD DUP6 PUSH2 0x9B4 JUMP JUMPDEST DUP2 DUP2 SUB PUSH1 0x40 DUP4 ADD MSTORE PUSH2 0x9FC DUP2 DUP5 PUSH2 0x97C JUMP JUMPDEST SWAP1 POP SWAP5 SWAP4 POP POP POP POP JUMP JUMPDEST PUSH1 0x80 MLOAD PUSH2 0x3C1E PUSH2 0xA3A PUSH0 CODECOPY PUSH0 DUP2 DUP2 PUSH2 0xCBC ADD MSTORE DUP2 DUP2 PUSH2 0xD56 ADD MSTORE DUP2 DUP2 PUSH2 0x1267 ADD MSTORE DUP2 DUP2 PUSH2 0x1350 ADD MSTORE PUSH2 0x1434 ADD MSTORE PUSH2 0x3C1E PUSH0 RETURN INVALID PUSH1 0x80 PUSH1 0x40 MSTORE PUSH1 0x4 CALLDATASIZE LT PUSH2 0x1ED JUMPI PUSH0 CALLDATALOAD PUSH1 0xE0 SHR DUP1 PUSH4 0x80E3204E GT PUSH2 0x10C JUMPI DUP1 PUSH4 0xA22CB465 GT PUSH2 0x9F JUMPI DUP1 PUSH4 0xC156BBBD GT PUSH2 0x6E JUMPI DUP1 PUSH4 0xC156BBBD EQ PUSH2 0x6D3 JUMPI DUP1 PUSH4 0xC87B56DD EQ PUSH2 0x6FB JUMPI DUP1 PUSH4 0xE985E9C5 EQ PUSH2 0x737 JUMPI DUP1 PUSH4 0xF2FDE38B EQ PUSH2 0x773 JUMPI DUP1 PUSH4 0xFE130072 EQ PUSH2 0x79B JUMPI PUSH2 0x1ED JUMP JUMPDEST DUP1 PUSH4 0xA22CB465 EQ PUSH2 0x61D JUMPI DUP1 PUSH4 0xA98AD46C EQ PUSH2 0x645 JUMPI DUP1 PUSH4 0xAFB0A369 EQ PUSH2 0x66F JUMPI DUP1 PUSH4 0xB88D4FDE EQ PUSH2 0x6AB JUMPI PUSH2 0x1ED JUMP JUMPDEST DUP1 PUSH4 0x95D89B41 GT PUSH2 0xDB JUMPI DUP1 PUSH4 0x95D89B41 EQ PUSH2 0x577 JUMPI DUP1 PUSH4 0x96C82E57 EQ PUSH2 0x5A1 JUMPI DUP1 PUSH4 0x98BDF6F5 EQ PUSH2 0x5CB JUMPI DUP1 PUSH4 0x9D2A74B8 EQ PUSH2 0x5F5 JUMPI PUSH2 0x1ED JUMP JUMPDEST DUP1 PUSH4 0x80E3204E EQ PUSH2 0x4DD JUMPI DUP1 PUSH4 0x8BF7F484 EQ PUSH2 0x507 JUMPI DUP1 PUSH4 0x8DA5CB5B EQ PUSH2 0x543 JUMPI DUP1 PUSH4 0x8F2AEF5B EQ PUSH2 0x56D JUMPI PUSH2 0x1ED JUMP JUMPDEST DUP1 PUSH4 0x4AA82D6D GT PUSH2 0x184 JUMPI DUP1 PUSH4 0x690D8320 GT PUSH2 0x153 JUMPI DUP1 PUSH4 0x690D8320 EQ PUSH2 0x427 JUMPI DUP1 PUSH4 0x6EFD7F33 EQ PUSH2 0x44F JUMPI DUP1 PUSH4 0x70A08231 EQ PUSH2 0x48B JUMPI DUP1 PUSH4 0x715018A6 EQ PUSH2 0x4C7 JUMPI PUSH2 0x1ED JUMP JUMPDEST DUP1 PUSH4 0x4AA82D6D EQ PUSH2 0x371 JUMPI DUP1 PUSH4 0x4FC3F41A EQ PUSH2 0x39B JUMPI DUP1 PUSH4 0x59DB80F8 EQ PUSH2 0x3C3 JUMPI DUP1 PUSH4 0x6352211E EQ PUSH2 0x3EB JUMPI PUSH2 0x1ED JUMP JUMPDEST DUP1 PUSH4 0x17B8E1CF GT PUSH2 0x1C0 JUMPI DUP1 PUSH4 0x17B8E1CF EQ PUSH2 0x2BB JUMPI DUP1 PUSH4 0x23B872DD EQ PUSH2 0x2F9 JUMPI DUP1 PUSH4 0x42842E0E EQ PUSH2 0x321 JUMPI DUP1 PUSH4 0x43171178 EQ PUSH2 0x349 JUMPI PUSH2 0x1ED JUMP JUMPDEST DUP1 PUSH4 0x1FFC9A7 EQ PUSH2 0x1F1 JUMPI DUP1 PUSH4 0x6FDDE03 EQ PUSH2 0x22D JUMPI DUP1 PUSH4 0x81812FC EQ PUSH2 0x257 JUMPI DUP1 PUSH4 0x95EA7B3 EQ PUSH2 0x293 JUMPI JUMPDEST PUSH0 PUSH0 REVERT JUMPDEST CALLVALUE DUP1 ISZERO PUSH2 0x1FC JUMPI PUSH0 PUSH0 REVERT JUMPDEST POP PUSH2 0x217 PUSH1 0x4 DUP1 CALLDATASIZE SUB DUP2 ADD SWAP1 PUSH2 0x212 SWAP2 SWAP1 PUSH2 0x282A JUMP JUMPDEST PUSH2 0x7D7 JUMP JUMPDEST PUSH1 0x40 MLOAD PUSH2 0x224 SWAP2 SWAP1 PUSH2 0x286F JUMP JUMPDEST PUSH1 0x40 MLOAD DUP1 SWAP2 SUB SWAP1 RETURN JUMPDEST CALLVALUE DUP1 ISZERO PUSH2 0x238 JUMPI PUSH0 PUSH0 REVERT JUMPDEST POP PUSH2 0x241 PUSH2 0x8B8 JUMP JUMPDEST PUSH1 0x40 MLOAD PUSH2 0x24E SWAP2 SWAP1 PUSH2 0x28F8 JUMP JUMPDEST PUSH1 0x40 MLOAD DUP1 SWAP2 SUB SWAP1 RETURN JUMPDEST CALLVALUE DUP1 ISZERO PUSH2 0x262 JUMPI PUSH0 PUSH0 REVERT JUMPDEST POP PUSH2 0x27D PUSH1 0x4 DUP1 CALLDATASIZE SUB DUP2 ADD SWAP1 PUSH2 0x278 SWAP2 SWAP1 PUSH2 0x294B JUMP JUMPDEST PUSH2 0x947 JUMP JUMPDEST PUSH1 0x40 MLOAD PUSH2 0x28A SWAP2 SWAP1 PUSH2 0x29B5 JUMP JUMPDEST PUSH1 0x40 MLOAD DUP1 SWAP2 SUB SWAP1 RETURN JUMPDEST CALLVALUE DUP1 ISZERO PUSH2 0x29E JUMPI PUSH0 PUSH0 REVERT JUMPDEST POP PUSH2 0x2B9 PUSH1 0x4 DUP1 CALLDATASIZE SUB DUP2 ADD SWAP1 PUSH2 0x2B4 SWAP2 SWAP1 PUSH2 0x29F8 JUMP JUMPDEST PUSH2 0x962 JUMP JUMPDEST STOP JUMPDEST CALLVALUE DUP1 ISZERO PUSH2 0x2C6 JUMPI PUSH0 PUSH0 REVERT JUMPDEST POP PUSH2 0x2E1 PUSH1 0x4 DUP1 CALLDATASIZE SUB DUP2 ADD SWAP1 PUSH2 0x2DC SWAP2 SWAP1 PUSH2 0x294B JUMP JUMPDEST PUSH2 0x978 JUMP JUMPDEST PUSH1 0x40 MLOAD PUSH2 0x2F0 SWAP4 SWAP3 SWAP2 SWAP1 PUSH2 0x2A45 JUMP JUMPDEST PUSH1 0x40 MLOAD DUP1 SWAP2 SUB SWAP1 RETURN JUMPDEST CALLVALUE DUP1 ISZERO PUSH2 0x304 JUMPI PUSH0 PUSH0 REVERT JUMPDEST POP PUSH2 0x31F PUSH1 0x4 DUP1 CALLDATASIZE SUB DUP2 ADD SWAP1 PUSH2 0x31A SWAP2 SWAP1 PUSH2 0x2A88 JUMP JUMPDEST PUSH2 0xAB9 JUMP JUMPDEST STOP JUMPDEST CALLVALUE DUP1 ISZERO PUSH2 0x32C JUMPI PUSH0 PUSH0 REVERT JUMPDEST POP PUSH2 0x347 PUSH1 0x4 DUP1 CALLDATASIZE SUB DUP2 ADD SWAP1 PUSH2 0x342 SWAP2 SWAP1 PUSH2 0x2A88 JUMP JUMPDEST PUSH2 0xBB8 JUMP JUMPDEST STOP JUMPDEST CALLVALUE DUP1 ISZERO PUSH2 0x354 JUMPI PUSH0 PUSH0 REVERT JUMPDEST POP PUSH2 0x36F PUSH1 0x4 DUP1 CALLDATASIZE SUB DUP2 ADD SWAP1 PUSH2 0x36A SWAP2 SWAP1 PUSH2 0x2B39 JUMP JUMPDEST PUSH2 0xBD7 JUMP JUMPDEST STOP JUMPDEST CALLVALUE DUP1 ISZERO PUSH2 0x37C JUMPI PUSH0 PUSH0 REVERT JUMPDEST POP PUSH2 0x385 PUSH2 0xC77 JUMP JUMPDEST PUSH1 0x40 MLOAD PUSH2 0x392 SWAP2 SWAP1 PUSH2 0x2BCA JUMP JUMPDEST PUSH1 0x40 MLOAD DUP1 SWAP2 SUB SWAP1 RETURN JUMPDEST CALLVALUE DUP1 ISZERO PUSH2 0x3A6 JUMPI PUSH0 PUSH0 REVERT JUMPDEST POP PUSH2 0x3C1 PUSH1 0x4 DUP1 CALLDATASIZE SUB DUP2 ADD SWAP1 PUSH2 0x3BC SWAP2 SWAP1 PUSH2 0x294B JUMP JUMPDEST PUSH2 0xC83 JUMP JUMPDEST STOP JUMPDEST CALLVALUE DUP1 ISZERO PUSH2 0x3CE JUMPI PUSH0 PUSH0 REVERT JUMPDEST POP PUSH2 0x3E9 PUSH1 0x4 DUP1 CALLDATASIZE SUB DUP2 ADD SWAP1 PUSH2 0x3E4 SWAP2 SWAP1 PUSH2 0x2BE3 JUMP JUMPDEST PUSH2 0xCB1 JUMP JUMPDEST STOP JUMPDEST CALLVALUE DUP1 ISZERO PUSH2 0x3F6 JUMPI PUSH0 PUSH0 REVERT JUMPDEST POP PUSH2 0x411 PUSH1 0x4 DUP1 CALLDATASIZE SUB DUP2 ADD SWAP1 PUSH2 0x40C SWAP2 SWAP1 PUSH2 0x294B JUMP JUMPDEST PUSH2 0xDF4 JUMP JUMPDEST PUSH1 0x40 MLOAD PUSH2 0x41E SWAP2 SWAP1 PUSH2 0x29B5 JUMP JUMPDEST PUSH1 0x40 MLOAD DUP1 SWAP2 SUB SWAP1 RETURN JUMPDEST CALLVALUE DUP1 ISZERO PUSH2 0x432 JUMPI PUSH0 PUSH0 REVERT JUMPDEST POP PUSH2 0x44D PUSH1 0x4 DUP1 CALLDATASIZE SUB DUP2 ADD SWAP1 PUSH2 0x448 SWAP2 SWAP1 PUSH2 0x2C49 JUMP JUMPDEST PUSH2 0xE05 JUMP JUMPDEST STOP JUMPDEST CALLVALUE DUP1 ISZERO PUSH2 0x45A JUMPI PUSH0 PUSH0 REVERT JUMPDEST POP PUSH2 0x475 PUSH1 0x4 DUP1 CALLDATASIZE SUB DUP2 ADD SWAP1 PUSH2 0x470 SWAP2 SWAP1 PUSH2 0x294B JUMP JUMPDEST PUSH2 0xE39 JUMP JUMPDEST PUSH1 0x40 MLOAD PUSH2 0x482 SWAP2 SWAP1 PUSH2 0x2BCA JUMP JUMPDEST PUSH1 0x40 MLOAD DUP1 SWAP2 SUB SWAP1 RETURN JUMPDEST CALLVALUE DUP1 ISZERO PUSH2 0x496 JUMPI PUSH0 PUSH0 REVERT JUMPDEST POP PUSH2 0x4B1 PUSH1 0x4 DUP1 CALLDATASIZE SUB DUP2 ADD SWAP1 PUSH2 0x4AC SWAP2 SWAP1 PUSH2 0x2BE3 JUMP JUMPDEST PUSH2 0xE4E JUMP JUMPDEST PUSH1 0x40 MLOAD PUSH2 0x4BE SWAP2 SWAP1 PUSH2 0x2BCA JUMP JUMPDEST PUSH1 0x40 MLOAD DUP1 SWAP2 SUB SWAP1 RETURN JUMPDEST CALLVALUE DUP1 ISZERO PUSH2 0x4D2 JUMPI PUSH0 PUSH0 REVERT JUMPDEST POP PUSH2 0x4DB PUSH2 0xF04 JUMP JUMPDEST STOP JUMPDEST CALLVALUE DUP1 ISZERO PUSH2 0x4E8 JUMPI PUSH0 PUSH0 REVERT JUMPDEST POP PUSH2 0x4F1 PUSH2 0xF17 JUMP JUMPDEST PUSH1 0x40 MLOAD PUSH2 0x4FE SWAP2 SWAP1 PUSH2 0x2BCA JUMP JUMPDEST PUSH1 0x40 MLOAD DUP1 SWAP2 SUB SWAP1 RETURN JUMPDEST CALLVALUE DUP1 ISZERO PUSH2 0x512 JUMPI PUSH0 PUSH0 REVERT JUMPDEST POP PUSH2 0x52D PUSH1 0x4 DUP1 CALLDATASIZE SUB DUP2 ADD SWAP1 PUSH2 0x528 SWAP2 SWAP1 PUSH2 0x294B JUMP JUMPDEST PUSH2 0xF24 JUMP JUMPDEST PUSH1 0x40 MLOAD PUSH2 0x53A SWAP2 SWAP1 PUSH2 0x286F JUMP JUMPDEST PUSH1 0x40 MLOAD DUP1 SWAP2 SUB SWAP1 RETURN JUMPDEST CALLVALUE DUP1 ISZERO PUSH2 0x54E JUMPI PUSH0 PUSH0 REVERT JUMPDEST POP PUSH2 0x557 PUSH2 0xF40 JUMP JUMPDEST PUSH1 0x40 MLOAD PUSH2 0x564 SWAP2 SWAP1 PUSH2 0x29B5 JUMP JUMPDEST PUSH1 0x40 MLOAD DUP1 SWAP2 SUB SWAP1 RETURN JUMPDEST PUSH2 0x575 PUSH2 0xF68 JUMP JUMPDEST STOP JUMPDEST CALLVALUE DUP1 ISZERO PUSH2 0x582 JUMPI PUSH0 PUSH0 REVERT JUMPDEST POP PUSH2 0x58B PUSH2 0x104D JUMP JUMPDEST PUSH1 0x40 MLOAD PUSH2 0x598 SWAP2 SWAP1 PUSH2 0x28F8 JUMP JUMPDEST PUSH1 0x40 MLOAD DUP1 SWAP2 SUB SWAP1 RETURN JUMPDEST CALLVALUE DUP1 ISZERO PUSH2 0x5AC JUMPI PUSH0 PUSH0 REVERT JUMPDEST POP PUSH2 0x5B5 PUSH2 0x10DD JUMP JUMPDEST PUSH1 0x40 MLOAD PUSH2 0x5C2 SWAP2 SWAP1 PUSH2 0x2BCA JUMP JUMPDEST PUSH1 0x40 MLOAD DUP1 SWAP2 SUB SWAP1 RETURN JUMPDEST CALLVALUE DUP1 ISZERO PUSH2 0x5D6 JUMPI PUSH0 PUSH0 REVERT JUMPDEST POP PUSH2 0x5DF PUSH2 0x10E3 JUMP JUMPDEST PUSH1 0x40 MLOAD PUSH2 0x5EC SWAP2 SWAP1 PUSH2 0x2BCA JUMP JUMPDEST PUSH1 0x40 MLOAD DUP1 SWAP2 SUB SWAP1 RETURN JUMPDEST CALLVALUE DUP1 ISZERO PUSH2 0x600 JUMPI PUSH0 PUSH0 REVERT JUMPDEST POP PUSH2 0x61B PUSH1 0x4 DUP1 CALLDATASIZE SUB DUP2 ADD SWAP1 PUSH2 0x616 SWAP2 SWAP1 PUSH2 0x2C74 JUMP JUMPDEST PUSH2 0x10E9 JUMP JUMPDEST STOP JUMPDEST CALLVALUE DUP1 ISZERO PUSH2 0x628 JUMPI PUSH0 PUSH0 REVERT JUMPDEST POP PUSH2 0x643 PUSH1 0x4 DUP1 CALLDATASIZE SUB DUP2 ADD SWAP1 PUSH2 0x63E SWAP2 SWAP1 PUSH2 0x2D41 JUMP JUMPDEST PUSH2 0x124F JUMP JUMPDEST STOP JUMPDEST CALLVALUE DUP1 ISZERO PUSH2 0x650 JUMPI PUSH0 PUSH0 REVERT JUMPDEST POP PUSH2 0x659 PUSH2 0x1265 JUMP JUMPDEST PUSH1 0x40 MLOAD PUSH2 0x666 SWAP2 SWAP1 PUSH2 0x2DDA JUMP JUMPDEST PUSH1 0x40 MLOAD DUP1 SWAP2 SUB SWAP1 RETURN JUMPDEST CALLVALUE DUP1 ISZERO PUSH2 0x67A JUMPI PUSH0 PUSH0 REVERT JUMPDEST POP PUSH2 0x695 PUSH1 0x4 DUP1 CALLDATASIZE SUB DUP2 ADD SWAP1 PUSH2 0x690 SWAP2 SWAP1 PUSH2 0x294B JUMP JUMPDEST PUSH2 0x1289 JUMP JUMPDEST PUSH1 0x40 MLOAD PUSH2 0x6A2 SWAP2 SWAP1 PUSH2 0x2BCA JUMP JUMPDEST PUSH1 0x40 MLOAD DUP1 SWAP2 SUB SWAP1 RETURN JUMPDEST CALLVALUE DUP1 ISZERO PUSH2 0x6B6 JUMPI PUSH0 PUSH0 REVERT JUMPDEST POP PUSH2 0x6D1 PUSH1 0x4 DUP1 CALLDATASIZE SUB DUP2 ADD SWAP1 PUSH2 0x6CC SWAP2 SWAP1 PUSH2 0x2F1B JUMP JUMPDEST PUSH2 0x129E JUMP JUMPDEST STOP JUMPDEST CALLVALUE DUP1 ISZERO PUSH2 0x6DE JUMPI PUSH0 PUSH0 REVERT JUMPDEST POP PUSH2 0x6F9 PUSH1 0x4 DUP1 CALLDATASIZE SUB DUP2 ADD SWAP1 PUSH2 0x6F4 SWAP2 SWAP1 PUSH2 0x294B JUMP JUMPDEST PUSH2 0x12C3 JUMP JUMPDEST STOP JUMPDEST CALLVALUE DUP1 ISZERO PUSH2 0x706 JUMPI PUSH0 PUSH0 REVERT JUMPDEST POP PUSH2 0x721 PUSH1 0x4 DUP1 CALLDATASIZE SUB DUP2 ADD SWAP1 PUSH2 0x71C SWAP2 SWAP1 PUSH2 0x294B JUMP JUMPDEST PUSH2 0x14FA JUMP JUMPDEST PUSH1 0x40 MLOAD PUSH2 0x72E SWAP2 SWAP1 PUSH2 0x28F8 JUMP JUMPDEST PUSH1 0x40 MLOAD DUP1 SWAP2 SUB SWAP1 RETURN JUMPDEST CALLVALUE DUP1 ISZERO PUSH2 0x742 JUMPI PUSH0 PUSH0 REVERT JUMPDEST POP PUSH2 0x75D PUSH1 0x4 DUP1 CALLDATASIZE SUB DUP2 ADD SWAP1 PUSH2 0x758 SWAP2 SWAP1 PUSH2 0x2F9B JUMP JUMPDEST PUSH2 0x1634 JUMP JUMPDEST PUSH1 0x40 MLOAD PUSH2 0x76A SWAP2 SWAP1 PUSH2 0x286F JUMP JUMPDEST PUSH1 0x40 MLOAD DUP1 SWAP2 SUB SWAP1 RETURN JUMPDEST CALLVALUE DUP1 ISZERO PUSH2 0x77E JUMPI PUSH0 PUSH0 REVERT JUMPDEST POP PUSH2 0x799 PUSH1 0x4 DUP1 CALLDATASIZE SUB DUP2 ADD SWAP1 PUSH2 0x794 SWAP2 SWAP1 PUSH2 0x2BE3 JUMP JUMPDEST PUSH2 0x16C2 JUMP JUMPDEST STOP JUMPDEST CALLVALUE DUP1 ISZERO PUSH2 0x7A6 JUMPI PUSH0 PUSH0 REVERT JUMPDEST POP PUSH2 0x7C1 PUSH1 0x4 DUP1 CALLDATASIZE SUB DUP2 ADD SWAP1 PUSH2 0x7BC SWAP2 SWAP1 PUSH2 0x294B JUMP JUMPDEST PUSH2 0x1746 JUMP JUMPDEST PUSH1 0x40 MLOAD PUSH2 0x7CE SWAP2 SWAP1 PUSH2 0x28F8 JUMP JUMPDEST PUSH1 0x40 MLOAD DUP1 SWAP2 SUB SWAP1 RETURN JUMPDEST PUSH0 PUSH32 0x80AC58CD00000000000000000000000000000000000000000000000000000000 PUSH28 0xFFFFFFFFFFFFFFFFFFFFFFFFFFFFFFFFFFFFFFFFFFFFFFFFFFFFFFFF NOT AND DUP3 PUSH28 0xFFFFFFFFFFFFFFFFFFFFFFFFFFFFFFFFFFFFFFFFFFFFFFFFFFFFFFFF NOT AND EQ DUP1 PUSH2 0x8A1 JUMPI POP PUSH32 0x5B5E139F00000000000000000000000000000000000000000000000000000000 PUSH28 0xFFFFFFFFFFFFFFFFFFFFFFFFFFFFFFFFFFFFFFFFFFFFFFFFFFFFFFFF NOT AND DUP3 PUSH28 0xFFFFFFFFFFFFFFFFFFFFFFFFFFFFFFFFFFFFFFFFFFFFFFFFFFFFFFFF NOT AND EQ JUMPDEST DUP1 PUSH2 0x8B1 JUMPI POP PUSH2 0x8B0 DUP3 PUSH2 0x1809 JUMP JUMPDEST JUMPDEST SWAP1 POP SWAP2 SWAP1 POP JUMP JUMPDEST PUSH1 0x60 PUSH0 DUP1 SLOAD PUSH2 0x8C6 SWAP1 PUSH2 0x3006 JUMP JUMPDEST DUP1 PUSH1 0x1F ADD PUSH1 0x20 DUP1 SWAP2 DIV MUL PUSH1 0x20 ADD PUSH1 0x40 MLOAD SWAP1 DUP2 ADD PUSH1 0x40 MSTORE DUP1 SWAP3 SWAP2 SWAP1 DUP2 DUP2 MSTORE PUSH1 0x20 ADD DUP3 DUP1 SLOAD PUSH2 0x8F2 SWAP1 PUSH2 0x3006 JUMP JUMPDEST DUP1 ISZERO PUSH2 0x93D JUMPI DUP1 PUSH1 0x1F LT PUSH2 0x914 JUMPI PUSH2 0x100 DUP1 DUP4 SLOAD DIV MUL DUP4 MSTORE SWAP2 PUSH1 0x20 ADD SWAP2 PUSH2 0x93D JUMP JUMPDEST DUP3 ADD SWAP2 SWAP1 PUSH0 MSTORE PUSH1 0x20 PUSH0 KECCAK256 SWAP1 JUMPDEST DUP2 SLOAD DUP2 MSTORE SWAP1 PUSH1 0x1 ADD SWAP1 PUSH1 0x20 ADD DUP1 DUP4 GT PUSH2 0x920 JUMPI DUP3 SWAP1 SUB PUSH1 0x1F AND DUP3 ADD SWAP2 JUMPDEST POP POP POP POP POP SWAP1 POP SWAP1 JUMP JUMPDEST PUSH0 PUSH2 0x951 DUP3 PUSH2 0x1872 JUMP JUMPDEST POP PUSH2 0x95B DUP3 PUSH2 0x18F8 JUMP JUMPDEST SWAP1 POP SWAP2 SWAP1 POP JUMP JUMPDEST PUSH2 0x974 DUP3 DUP3 PUSH2 0x96F PUSH2 0x1931 JUMP JUMPDEST PUSH2 0x1938 JUMP JUMPDEST POP POP JUMP JUMPDEST PUSH1 0xA DUP2 DUP2 SLOAD DUP2 LT PUSH2 0x987 JUMPI PUSH0 DUP1 REVERT JUMPDEST SWAP1 PUSH0 MSTORE PUSH1 0x20 PUSH0 KECCAK256 SWAP1 PUSH1 0x3 MUL ADD PUSH0 SWAP2 POP SWAP1 POP DUP1 PUSH0 ADD DUP1 SLOAD PUSH2 0x9A6 SWAP1 PUSH2 0x3006 JUMP JUMPDEST DUP1 PUSH1 0x1F ADD PUSH1 0x20 DUP1 SWAP2 DIV MUL PUSH1 0x20 ADD PUSH1 0x40 MLOAD SWAP1 DUP2 ADD PUSH1 0x40 MSTORE DUP1 SWAP3 SWAP2 SWAP1 DUP2 DUP2 MSTORE PUSH1 0x20 ADD DUP3 DUP1 SLOAD PUSH2 0x9D2 SWAP1 PUSH2 0x3006 JUMP JUMPDEST DUP1 ISZERO PUSH2 0xA1D JUMPI DUP1 PUSH1 0x1F LT PUSH2 0x9F4 JUMPI PUSH2 0x100 DUP1 DUP4 SLOAD DIV MUL DUP4 MSTORE SWAP2 PUSH1 0x20 ADD SWAP2 PUSH2 0xA1D JUMP JUMPDEST DUP3 ADD SWAP2 SWAP1 PUSH0 MSTORE PUSH1 0x20 PUSH0 KECCAK256 SWAP1 JUMPDEST DUP2 SLOAD DUP2 MSTORE SWAP1 PUSH1 0x1 ADD SWAP1 PUSH1 0x20 ADD DUP1 DUP4 GT PUSH2 0xA00 JUMPI DUP3 SWAP1 SUB PUSH1 0x1F AND DUP3 ADD SWAP2 JUMPDEST POP POP POP POP POP SWAP1 DUP1 PUSH1 0x1 ADD SLOAD SWAP1 DUP1 PUSH1 0x2 ADD DUP1 SLOAD PUSH2 0xA38 SWAP1 PUSH2 0x3006 JUMP JUMPDEST DUP1 PUSH1 0x1F ADD PUSH1 0x20 DUP1 SWAP2 DIV MUL PUSH1 0x20 ADD PUSH1 0x40 MLOAD SWAP1 DUP2 ADD PUSH1 0x40 MSTORE DUP1 SWAP3 SWAP2 SWAP1 DUP2 DUP2 MSTORE PUSH1 0x20 ADD DUP3 DUP1 SLOAD PUSH2 0xA64 SWAP1 PUSH2 0x3006 JUMP JUMPDEST DUP1 ISZERO PUSH2 0xAAF JUMPI DUP1 PUSH1 0x1F LT PUSH2 0xA86 JUMPI PUSH2 0x100 DUP1 DUP4 SLOAD DIV MUL DUP4 MSTORE SWAP2 PUSH1 0x20 ADD SWAP2 PUSH2 0xAAF JUMP JUMPDEST DUP3 ADD SWAP2 SWAP1 PUSH0 MSTORE PUSH1 0x20 PUSH0 KECCAK256 SWAP1 JUMPDEST DUP2 SLOAD DUP2 MSTORE SWAP1 PUSH1 0x1 ADD SWAP1 PUSH1 0x20 ADD DUP1 DUP4 GT PUSH2 0xA92 JUMPI DUP3 SWAP1 SUB PUSH1 0x1F AND DUP3 ADD SWAP2 JUMPDEST POP POP POP POP POP SWAP1 POP DUP4 JUMP JUMPDEST PUSH0 PUSH20 0xFFFFFFFFFFFFFFFFFFFFFFFFFFFFFFFFFFFFFFFF AND DUP3 PUSH20 0xFFFFFFFFFFFFFFFFFFFFFFFFFFFFFFFFFFFFFFFF AND SUB PUSH2 0xB29 JUMPI PUSH0 PUSH1 0x40 MLOAD PUSH32 0x64A0AE9200000000000000000000000000000000000000000000000000000000 DUP2 MSTORE PUSH1 0x4 ADD PUSH2 0xB20 SWAP2 SWAP1 PUSH2 0x29B5 JUMP JUMPDEST PUSH1 0x40 MLOAD DUP1 SWAP2 SUB SWAP1 REVERT JUMPDEST PUSH0 PUSH2 0xB3C DUP4 DUP4 PUSH2 0xB37 PUSH2 0x1931 JUMP JUMPDEST PUSH2 0x194A JUMP JUMPDEST SWAP1 POP DUP4 PUSH20 0xFFFFFFFFFFFFFFFFFFFFFFFFFFFFFFFFFFFFFFFF AND DUP2 PUSH20 0xFFFFFFFFFFFFFFFFFFFFFFFFFFFFFFFFFFFFFFFF AND EQ PUSH2 0xBB2 JUMPI DUP4 DUP3 DUP3 PUSH1 0x40 MLOAD PUSH32 0x64283D7B00000000000000000000000000000000000000000000000000000000 DUP2 MSTORE PUSH1 0x4 ADD PUSH2 0xBA9 SWAP4 SWAP3 SWAP2 SWAP1 PUSH2 0x3036 JUMP JUMPDEST PUSH1 0x40 MLOAD DUP1 SWAP2 SUB SWAP1 REVERT JUMPDEST POP POP POP POP JUMP JUMPDEST PUSH2 0xBD2 DUP4 DUP4 DUP4 PUSH1 0x40 MLOAD DUP1 PUSH1 0x20 ADD PUSH1 0x40 MSTORE DUP1 PUSH0 DUP2 MSTORE POP PUSH2 0x129E JUMP JUMPDEST POP POP POP JUMP JUMPDEST PUSH2 0xBDF PUSH2 0x1B55 JUMP JUMPDEST PUSH2 0xC70 DUP6 DUP6 DUP1 DUP1 PUSH1 0x1F ADD PUSH1 0x20 DUP1 SWAP2 DIV MUL PUSH1 0x20 ADD PUSH1 0x40 MLOAD SWAP1 DUP2 ADD PUSH1 0x40 MSTORE DUP1 SWAP4 SWAP3 SWAP2 SWAP1 DUP2 DUP2 MSTORE PUSH1 0x20 ADD DUP4 DUP4 DUP1 DUP3 DUP5 CALLDATACOPY PUSH0 DUP2 DUP5 ADD MSTORE PUSH1 0x1F NOT PUSH1 0x1F DUP3 ADD AND SWAP1 POP DUP1 DUP4 ADD SWAP3 POP POP POP POP POP POP POP DUP5 DUP5 DUP5 DUP1 DUP1 PUSH1 0x1F ADD PUSH1 0x20 DUP1 SWAP2 DIV MUL PUSH1 0x20 ADD PUSH1 0x40 MLOAD SWAP1 DUP2 ADD PUSH1 0x40 MSTORE DUP1 SWAP4 SWAP3 SWAP2 SWAP1 DUP2 DUP2 MSTORE PUSH1 0x20 ADD DUP4 DUP4 DUP1 DUP3 DUP5 CALLDATACOPY PUSH0 DUP2 DUP5 ADD MSTORE PUSH1 0x1F NOT PUSH1 0x1F DUP3 ADD AND SWAP1 POP DUP1 DUP4 ADD SWAP3 POP POP POP POP POP POP POP PUSH2 0x1BDC JUMP JUMPDEST POP POP POP POP POP JUMP JUMPDEST PUSH8 0x6F05B59D3B20000 DUP2 JUMP JUMPDEST PUSH2 0xC8B PUSH2 0x1B55 JUMP JUMPDEST PUSH2 0xE100 TIMESTAMP PUSH2 0xC99 SWAP2 SWAP1 PUSH2 0x3098 JUMP JUMPDEST PUSH1 0x8 PUSH0 DUP4 DUP2 MSTORE PUSH1 0x20 ADD SWAP1 DUP2 MSTORE PUSH1 0x20 ADD PUSH0 KECCAK256 DUP2 SWAP1 SSTORE POP POP JUMP JUMPDEST PUSH2 0xCB9 PUSH2 0x1B55 JUMP JUMPDEST PUSH0 PUSH32 0x0 PUSH20 0xFFFFFFFFFFFFFFFFFFFFFFFFFFFFFFFFFFFFFFFF AND PUSH4 0x70A08231 ADDRESS PUSH1 0x40 MLOAD DUP3 PUSH4 0xFFFFFFFF AND PUSH1 0xE0 SHL DUP2 MSTORE PUSH1 0x4 ADD PUSH2 0xD13 SWAP2 SWAP1 PUSH2 0x29B5 JUMP JUMPDEST PUSH1 0x20 PUSH1 0x40 MLOAD DUP1 DUP4 SUB DUP2 DUP7 GAS STATICCALL ISZERO DUP1 ISZERO PUSH2 0xD2E JUMPI RETURNDATASIZE PUSH0 PUSH0 RETURNDATACOPY RETURNDATASIZE PUSH0 REVERT JUMPDEST POP POP POP POP PUSH1 0x40 MLOAD RETURNDATASIZE PUSH1 0x1F NOT PUSH1 0x1F DUP3 ADD AND DUP3 ADD DUP1 PUSH1 0x40 MSTORE POP DUP2 ADD SWAP1 PUSH2 0xD52 SWAP2 SWAP1 PUSH2 0x30DF JUMP JUMPDEST SWAP1 POP PUSH32 0x0 PUSH20 0xFFFFFFFFFFFFFFFFFFFFFFFFFFFFFFFFFFFFFFFF AND PUSH4 0xA9059CBB DUP4 DUP4 PUSH1 0x40 MLOAD DUP4 PUSH4 0xFFFFFFFF AND PUSH1 0xE0 SHL DUP2 MSTORE PUSH1 0x4 ADD PUSH2 0xDAF SWAP3 SWAP2 SWAP1 PUSH2 0x310A JUMP JUMPDEST PUSH1 0x20 PUSH1 0x40 MLOAD DUP1 DUP4 SUB DUP2 PUSH0 DUP8 GAS CALL ISZERO DUP1 ISZERO PUSH2 0xDCB JUMPI RETURNDATASIZE PUSH0 PUSH0 RETURNDATACOPY RETURNDATASIZE PUSH0 REVERT JUMPDEST POP POP POP POP PUSH1 0x40 MLOAD RETURNDATASIZE PUSH1 0x1F NOT PUSH1 0x1F DUP3 ADD AND DUP3 ADD DUP1 PUSH1 0x40 MSTORE POP DUP2 ADD SWAP1 PUSH2 0xDEF SWAP2 SWAP1 PUSH2 0x3145 JUMP JUMPDEST POP POP POP JUMP JUMPDEST PUSH0 PUSH2 0xDFE DUP3 PUSH2 0x1872 JUMP JUMPDEST SWAP1 POP SWAP2 SWAP1 POP JUMP JUMPDEST PUSH2 0xE0D PUSH2 0x1B55 JUMP JUMPDEST PUSH2 0xE36 SELFBALANCE DUP3 PUSH20 0xFFFFFFFFFFFFFFFFFFFFFFFFFFFFFFFFFFFFFFFF AND PUSH2 0x1CBF SWAP1 SWAP2 SWAP1 PUSH4 0xFFFFFFFF AND JUMP JUMPDEST POP JUMP JUMPDEST PUSH1 0x8 PUSH1 0x20 MSTORE DUP1 PUSH0 MSTORE PUSH1 0x40 PUSH0 KECCAK256 PUSH0 SWAP2 POP SWAP1 POP SLOAD DUP2 JUMP JUMPDEST PUSH0 PUSH0 PUSH20 0xFFFFFFFFFFFFFFFFFFFFFFFFFFFFFFFFFFFFFFFF AND DUP3 PUSH20 0xFFFFFFFFFFFFFFFFFFFFFFFFFFFFFFFFFFFFFFFF AND SUB PUSH2 0xEBF JUMPI PUSH0 PUSH1 0x40 MLOAD PUSH32 0x89C62B6400000000000000000000000000000000000000000000000000000000 DUP2 MSTORE PUSH1 0x4 ADD PUSH2 0xEB6 SWAP2 SWAP1 PUSH2 0x29B5 JUMP JUMPDEST PUSH1 0x40 MLOAD DUP1 SWAP2 SUB SWAP1 REVERT JUMPDEST PUSH1 0x3 PUSH0 DUP4 PUSH20 0xFFFFFFFFFFFFFFFFFFFFFFFFFFFFFFFFFFFFFFFF AND PUSH20 0xFFFFFFFFFFFFFFFFFFFFFFFFFFFFFFFFFFFFFFFF AND DUP2 MSTORE PUSH1 0x20 ADD SWAP1 DUP2 MSTORE PUSH1 0x20 ADD PUSH0 KECCAK256 SLOAD SWAP1 POP SWAP2 SWAP1 POP JUMP JUMPDEST PUSH2 0xF0C PUSH2 0x1B55 JUMP JUMPDEST PUSH2 0xF15 PUSH0 PUSH2 0x1D85 JUMP JUMPDEST JUMP JUMPDEST PUSH9 0x3635C9ADC5DEA00000 DUP2 JUMP JUMPDEST PUSH0 PUSH1 0x8 PUSH0 DUP4 DUP2 MSTORE PUSH1 0x20 ADD SWAP1 DUP2 MSTORE PUSH1 0x20 ADD PUSH0 KECCAK256 SLOAD TIMESTAMP LT SWAP1 POP SWAP2 SWAP1 POP JUMP JUMPDEST PUSH0 PUSH1 0x6 PUSH0 SWAP1 SLOAD SWAP1 PUSH2 0x100 EXP SWAP1 DIV PUSH20 0xFFFFFFFFFFFFFFFFFFFFFFFFFFFFFFFFFFFFFFFF AND SWAP1 POP SWAP1 JUMP JUMPDEST PUSH8 0x6F05B59D3B20000 CALLVALUE LT ISZERO PUSH2 0xFB3 JUMPI PUSH1 0x40 MLOAD PUSH32 0x8C379A000000000000000000000000000000000000000000000000000000000 DUP2 MSTORE PUSH1 0x4 ADD PUSH2 0xFAA SWAP1 PUSH2 0x31E0 JUMP JUMPDEST PUSH1 0x40 MLOAD DUP1 SWAP2 SUB SWAP1 REVERT JUMPDEST PUSH0 PUSH8 0x6F05B59D3B20000 CALLVALUE PUSH2 0xFC8 SWAP2 SWAP1 PUSH2 0x322B JUMP JUMPDEST SWAP1 POP PUSH0 PUSH8 0x6F05B59D3B20000 DUP3 PUSH2 0xFDF SWAP2 SWAP1 PUSH2 0x325B JUMP JUMPDEST SWAP1 POP PUSH0 DUP2 CALLVALUE PUSH2 0xFEE SWAP2 SWAP1 PUSH2 0x329C JUMP JUMPDEST SWAP1 POP PUSH0 DUP2 GT ISZERO PUSH2 0x1022 JUMPI PUSH2 0x1021 DUP2 CALLER PUSH20 0xFFFFFFFFFFFFFFFFFFFFFFFFFFFFFFFFFFFFFFFF AND PUSH2 0x1CBF SWAP1 SWAP2 SWAP1 PUSH4 0xFFFFFFFF AND JUMP JUMPDEST JUMPDEST PUSH0 PUSH0 SWAP1 POP JUMPDEST DUP4 DUP2 LT ISZERO PUSH2 0x1047 JUMPI PUSH2 0x103A CALLER PUSH1 0x1 PUSH2 0x1E48 JUMP JUMPDEST DUP1 DUP1 PUSH1 0x1 ADD SWAP2 POP POP PUSH2 0x1027 JUMP JUMPDEST POP POP POP POP JUMP JUMPDEST PUSH1 0x60 PUSH1 0x1 DUP1 SLOAD PUSH2 0x105C SWAP1 PUSH2 0x3006 JUMP JUMPDEST DUP1 PUSH1 0x1F ADD PUSH1 0x20 DUP1 SWAP2 DIV MUL PUSH1 0x20 ADD PUSH1 0x40 MLOAD SWAP1 DUP2 ADD PUSH1 0x40 MSTORE DUP1 SWAP3 SWAP2 SWAP1 DUP2 DUP2 MSTORE PUSH1 0x20 ADD DUP3 DUP1 SLOAD PUSH2 0x1088 SWAP1 PUSH2 0x3006 JUMP JUMPDEST DUP1 ISZERO PUSH2 0x10D3 JUMPI DUP1 PUSH1 0x1F LT PUSH2 0x10AA JUMPI PUSH2 0x100 DUP1 DUP4 SLOAD DIV MUL DUP4 MSTORE SWAP2 PUSH1 0x20 ADD SWAP2 PUSH2 0x10D3 JUMP JUMPDEST DUP3 ADD SWAP2 SWAP1 PUSH0 MSTORE PUSH1 0x20 PUSH0 KECCAK256 SWAP1 JUMPDEST DUP2 SLOAD DUP2 MSTORE SWAP1 PUSH1 0x1 ADD SWAP1 PUSH1 0x20 ADD DUP1 DUP4 GT PUSH2 0x10B6 JUMPI DUP3 SWAP1 SUB PUSH1 0x1F AND DUP3 ADD SWAP2 JUMPDEST POP POP POP POP POP SWAP1 POP SWAP1 JUMP JUMPDEST PUSH1 0xB SLOAD DUP2 JUMP JUMPDEST PUSH1 0x7 SLOAD DUP2 JUMP JUMPDEST PUSH2 0x10F1 PUSH2 0x1B55 JUMP JUMPDEST PUSH1 0xA DUP1 SLOAD SWAP1 POP DUP7 LT PUSH2 0x1138 JUMPI PUSH1 0x40 MLOAD PUSH32 0x8C379A000000000000000000000000000000000000000000000000000000000 DUP2 MSTORE PUSH1 0x4 ADD PUSH2 0x112F SWAP1 PUSH2 0x3319 JUMP JUMPDEST PUSH1 0x40 MLOAD DUP1 SWAP2 SUB SWAP1 REVERT JUMPDEST DUP3 PUSH1 0xA DUP8 DUP2 SLOAD DUP2 LT PUSH2 0x114D JUMPI PUSH2 0x114C PUSH2 0x3337 JUMP JUMPDEST JUMPDEST SWAP1 PUSH0 MSTORE PUSH1 0x20 PUSH0 KECCAK256 SWAP1 PUSH1 0x3 MUL ADD PUSH1 0x1 ADD SLOAD PUSH1 0xB SLOAD PUSH2 0x116A SWAP2 SWAP1 PUSH2 0x329C JUMP JUMPDEST PUSH2 0x1174 SWAP2 SWAP1 PUSH2 0x3098 JUMP JUMPDEST PUSH1 0xB DUP2 SWAP1 SSTORE POP DUP5 DUP5 PUSH1 0xA DUP9 DUP2 SLOAD DUP2 LT PUSH2 0x1190 JUMPI PUSH2 0x118F PUSH2 0x3337 JUMP JUMPDEST JUMPDEST SWAP1 PUSH0 MSTORE PUSH1 0x20 PUSH0 KECCAK256 SWAP1 PUSH1 0x3 MUL ADD PUSH0 ADD SWAP2 DUP3 PUSH2 0x11AB SWAP3 SWAP2 SWAP1 PUSH2 0x3505 JUMP JUMPDEST POP DUP3 PUSH1 0xA DUP8 DUP2 SLOAD DUP2 LT PUSH2 0x11C1 JUMPI PUSH2 0x11C0 PUSH2 0x3337 JUMP JUMPDEST JUMPDEST SWAP1 PUSH0 MSTORE PUSH1 0x20 PUSH0 KECCAK256 SWAP1 PUSH1 0x3 MUL ADD PUSH1 0x1 ADD DUP2 SWAP1 SSTORE POP DUP2 DUP2 PUSH1 0xA DUP9 DUP2 SLOAD DUP2 LT PUSH2 0x11EA JUMPI PUSH2 0x11E9 PUSH2 0x3337 JUMP JUMPDEST JUMPDEST SWAP1 PUSH0 MSTORE PUSH1 0x20 PUSH0 KECCAK256 SWAP1 PUSH1 0x3 MUL ADD PUSH1 0x2 ADD SWAP2 DUP3 PUSH2 0x1206 SWAP3 SWAP2 SWAP1 PUSH2 0x3505 JUMP JUMPDEST POP DUP6 PUSH32 0x9163484C583F3DDEC1CF08426A7D53D5D201447E001C364FED79B28A7479E980 DUP7 DUP7 DUP7 DUP7 DUP7 PUSH1 0x40 MLOAD PUSH2 0x123F SWAP6 SWAP5 SWAP4 SWAP3 SWAP2 SWAP1 PUSH2 0x35FE JUMP JUMPDEST PUSH1 0x40 MLOAD DUP1 SWAP2 SUB SWAP1 LOG2 POP POP POP POP POP POP JUMP JUMPDEST PUSH2 0x1261 PUSH2 0x125A PUSH2 0x1931 JUMP JUMPDEST DUP4 DUP4 PUSH2 0x1F85 JUMP JUMPDEST POP POP JUMP JUMPDEST PUSH32 0x0 DUP2 JUMP JUMPDEST PUSH1 0x9 PUSH1 0x20 MSTORE DUP1 PUSH0 MSTORE PUSH1 0x40 PUSH0 KECCAK256 PUSH0 SWAP2 POP SWAP1 POP SLOAD DUP2 JUMP JUMPDEST PUSH2 0x12A9 DUP5 DUP5 DUP5 PUSH2 0xAB9 JUMP JUMPDEST PUSH2 0x12BD PUSH2 0x12B4 PUSH2 0x1931 JUMP JUMPDEST DUP6 DUP6 DUP6 DUP6 PUSH2 0x20EE JUMP JUMPDEST POP POP POP POP JUMP JUMPDEST PUSH9 0x3635C9ADC5DEA00000 DUP2 LT ISZERO PUSH2 0x130F JUMPI PUSH1 0x40 MLOAD PUSH32 0x8C379A000000000000000000000000000000000000000000000000000000000 DUP2 MSTORE PUSH1 0x4 ADD PUSH2 0x1306 SWAP1 PUSH2 0x36B5 JUMP JUMPDEST PUSH1 0x40 MLOAD DUP1 SWAP2 SUB SWAP1 REVERT JUMPDEST PUSH0 PUSH9 0x3635C9ADC5DEA00000 DUP3 PUSH2 0x1325 SWAP2 SWAP1 PUSH2 0x322B JUMP JUMPDEST SWAP1 POP PUSH0 PUSH9 0x3635C9ADC5DEA00000 DUP3 PUSH2 0x133D SWAP2 SWAP1 PUSH2 0x325B JUMP JUMPDEST SWAP1 POP PUSH0 DUP2 DUP5 PUSH2 0x134C SWAP2 SWAP1 PUSH2 0x329C JUMP JUMPDEST SWAP1 POP PUSH32 0x0 PUSH20 0xFFFFFFFFFFFFFFFFFFFFFFFFFFFFFFFFFFFFFFFF AND PUSH4 0x23B872DD CALLER ADDRESS DUP8 PUSH1 0x40 MLOAD DUP5 PUSH4 0xFFFFFFFF AND PUSH1 0xE0 SHL DUP2 MSTORE PUSH1 0x4 ADD PUSH2 0x13AB SWAP4 SWAP3 SWAP2 SWAP1 PUSH2 0x36D3 JUMP JUMPDEST PUSH1 0x20 PUSH1 0x40 MLOAD DUP1 DUP4 SUB DUP2 PUSH0 DUP8 GAS CALL ISZERO DUP1 ISZERO PUSH2 0x13C7 JUMPI RETURNDATASIZE PUSH0 PUSH0 RETURNDATACOPY RETURNDATASIZE PUSH0 REVERT JUMPDEST POP POP POP POP PUSH1 0x40 MLOAD RETURNDATASIZE PUSH1 0x1F NOT PUSH1 0x1F DUP3 ADD AND DUP3 ADD DUP1 PUSH1 0x40 MSTORE POP DUP2 ADD SWAP1 PUSH2 0x13EB SWAP2 SWAP1 PUSH2 0x3145 JUMP JUMPDEST PUSH2 0x142A JUMPI PUSH1 0x40 MLOAD PUSH32 0x8C379A000000000000000000000000000000000000000000000000000000000 DUP2 MSTORE PUSH1 0x4 ADD PUSH2 0x1421 SWAP1 PUSH2 0x3752 JUMP JUMPDEST PUSH1 0x40 MLOAD DUP1 SWAP2 SUB SWAP1 REVERT JUMPDEST PUSH0 DUP2 GT ISZERO PUSH2 0x14CF JUMPI PUSH32 0x0 PUSH20 0xFFFFFFFFFFFFFFFFFFFFFFFFFFFFFFFFFFFFFFFF AND PUSH4 0xA9059CBB CALLER DUP4 PUSH1 0x40 MLOAD DUP4 PUSH4 0xFFFFFFFF AND PUSH1 0xE0 SHL DUP2 MSTORE PUSH1 0x4 ADD PUSH2 0x148D SWAP3 SWAP2 SWAP1 PUSH2 0x310A JUMP JUMPDEST PUSH1 0x20 PUSH1 0x40 MLOAD DUP1 DUP4 SUB DUP2 PUSH0 DUP8 GAS CALL ISZERO DUP1 ISZERO PUSH2 0x14A9 JUMPI RETURNDATASIZE PUSH0 PUSH0 RETURNDATACOPY RETURNDATASIZE PUSH0 REVERT JUMPDEST POP POP POP POP PUSH1 0x40 MLOAD RETURNDATASIZE PUSH1 0x1F NOT PUSH1 0x1F DUP3 ADD AND DUP3 ADD DUP1 PUSH1 0x40 MSTORE POP DUP2 ADD SWAP1 PUSH2 0x14CD SWAP2 SWAP1 PUSH2 0x3145 JUMP JUMPDEST POP JUMPDEST PUSH0 PUSH0 SWAP1 POP JUMPDEST DUP4 DUP2 LT ISZERO PUSH2 0x14F3 JUMPI PUSH2 0x14E6 CALLER PUSH0 PUSH2 0x1E48 JUMP JUMPDEST DUP1 DUP1 PUSH1 0x1 ADD SWAP2 POP POP PUSH2 0x14D4 JUMP JUMPDEST POP POP POP POP POP JUMP JUMPDEST PUSH1 0x60 PUSH0 PUSH20 0xFFFFFFFFFFFFFFFFFFFFFFFFFFFFFFFFFFFFFFFF AND PUSH2 0x151C DUP4 PUSH2 0xDF4 JUMP JUMPDEST PUSH20 0xFFFFFFFFFFFFFFFFFFFFFFFFFFFFFFFFFFFFFFFF AND SUB PUSH2 0x1572 JUMPI PUSH1 0x40 MLOAD PUSH32 0x8C379A000000000000000000000000000000000000000000000000000000000 DUP2 MSTORE PUSH1 0x4 ADD PUSH2 0x1569 SWAP1 PUSH2 0x37E0 JUMP JUMPDEST PUSH1 0x40 MLOAD DUP1 SWAP2 SUB SWAP1 REVERT JUMPDEST PUSH1 0xA PUSH1 0x9 PUSH0 DUP5 DUP2 MSTORE PUSH1 0x20 ADD SWAP1 DUP2 MSTORE PUSH1 0x20 ADD PUSH0 KECCAK256 SLOAD DUP2 SLOAD DUP2 LT PUSH2 0x1597 JUMPI PUSH2 0x1596 PUSH2 0x3337 JUMP JUMPDEST JUMPDEST SWAP1 PUSH0 MSTORE PUSH1 0x20 PUSH0 KECCAK256 SWAP1 PUSH1 0x3 MUL ADD PUSH1 0x2 ADD DUP1 SLOAD PUSH2 0x15B1 SWAP1 PUSH2 0x3006 JUMP JUMPDEST DUP1 PUSH1 0x1F ADD PUSH1 0x20 DUP1 SWAP2 DIV MUL PUSH1 0x20 ADD PUSH1 0x40 MLOAD SWAP1 DUP2 ADD PUSH1 0x40 MSTORE DUP1 SWAP3 SWAP2 SWAP1 DUP2 DUP2 MSTORE PUSH1 0x20 ADD DUP3 DUP1 SLOAD PUSH2 0x15DD SWAP1 PUSH2 0x3006 JUMP JUMPDEST DUP1 ISZERO PUSH2 0x1628 JUMPI DUP1 PUSH1 0x1F LT PUSH2 0x15FF JUMPI PUSH2 0x100 DUP1 DUP4 SLOAD DIV MUL DUP4 MSTORE SWAP2 PUSH1 0x20 ADD SWAP2 PUSH2 0x1628 JUMP JUMPDEST DUP3 ADD SWAP2 SWAP1 PUSH0 MSTORE PUSH1 0x20 PUSH0 KECCAK256 SWAP1 JUMPDEST DUP2 SLOAD DUP2 MSTORE SWAP1 PUSH1 0x1 ADD SWAP1 PUSH1 0x20 ADD DUP1 DUP4 GT PUSH2 0x160B JUMPI DUP3 SWAP1 SUB PUSH1 0x1F AND DUP3 ADD SWAP2 JUMPDEST POP POP POP POP POP SWAP1 POP SWAP2 SWAP1 POP JUMP JUMPDEST PUSH0 PUSH1 0x5 PUSH0 DUP5 PUSH20 0xFFFFFFFFFFFFFFFFFFFFFFFFFFFFFFFFFFFFFFFF AND PUSH20 0xFFFFFFFFFFFFFFFFFFFFFFFFFFFFFFFFFFFFFFFF AND DUP2 MSTORE PUSH1 0x20 ADD SWAP1 DUP2 MSTORE PUSH1 0x20 ADD PUSH0 KECCAK256 PUSH0 DUP4 PUSH20 0xFFFFFFFFFFFFFFFFFFFFFFFFFFFFFFFFFFFFFFFF AND PUSH20 0xFFFFFFFFFFFFFFFFFFFFFFFFFFFFFFFFFFFFFFFF AND DUP2 MSTORE PUSH1 0x20 ADD SWAP1 DUP2 MSTORE PUSH1 0x20 ADD PUSH0 KECCAK256 PUSH0 SWAP1 SLOAD SWAP1 PUSH2 0x100 EXP SWAP1 DIV PUSH1 0xFF AND SWAP1 POP SWAP3 SWAP2 POP POP JUMP JUMPDEST PUSH2 0x16CA PUSH2 0x1B55 JUMP JUMPDEST PUSH0 PUSH20 0xFFFFFFFFFFFFFFFFFFFFFFFFFFFFFFFFFFFFFFFF AND DUP2 PUSH20 0xFFFFFFFFFFFFFFFFFFFFFFFFFFFFFFFFFFFFFFFF AND SUB PUSH2 0x173A JUMPI PUSH0 PUSH1 0x40 MLOAD PUSH32 0x1E4FBDF700000000000000000000000000000000000000000000000000000000 DUP2 MSTORE PUSH1 0x4 ADD PUSH2 0x1731 SWAP2 SWAP1 PUSH2 0x29B5 JUMP JUMPDEST PUSH1 0x40 MLOAD DUP1 SWAP2 SUB SWAP1 REVERT JUMPDEST PUSH2 0x1743 DUP2 PUSH2 0x1D85 JUMP JUMPDEST POP JUMP JUMPDEST PUSH1 0x60 PUSH1 0xA PUSH1 0x9 PUSH0 DUP5 DUP2 MSTORE PUSH1 0x20 ADD SWAP1 DUP2 MSTORE PUSH1 0x20 ADD PUSH0 KECCAK256 SLOAD DUP2 SLOAD DUP2 LT PUSH2 0x176D JUMPI PUSH2 0x176C PUSH2 0x3337 JUMP JUMPDEST JUMPDEST SWAP1 PUSH0 MSTORE PUSH1 0x20 PUSH0 KECCAK256 SWAP1 PUSH1 0x3 MUL ADD PUSH0 ADD DUP1 SLOAD PUSH2 0x1786 SWAP1 PUSH2 0x3006 JUMP JUMPDEST DUP1 PUSH1 0x1F ADD PUSH1 0x20 DUP1 SWAP2 DIV MUL PUSH1 0x20 ADD PUSH1 0x40 MLOAD SWAP1 DUP2 ADD PUSH1 0x40 MSTORE DUP1 SWAP3 SWAP2 SWAP1 DUP2 DUP2 MSTORE PUSH1 0x20 ADD DUP3 DUP1 SLOAD PUSH2 0x17B2 SWAP1 PUSH2 0x3006 JUMP JUMPDEST DUP1 ISZERO PUSH2 0x17FD JUMPI DUP1 PUSH1 0x1F LT PUSH2 0x17D4 JUMPI PUSH2 0x100 DUP1 DUP4 SLOAD DIV MUL DUP4 MSTORE SWAP2 PUSH1 0x20 ADD SWAP2 PUSH2 0x17FD JUMP JUMPDEST DUP3 ADD SWAP2 SWAP1 PUSH0 MSTORE PUSH1 0x20 PUSH0 KECCAK256 SWAP1 JUMPDEST DUP2 SLOAD DUP2 MSTORE SWAP1 PUSH1 0x1 ADD SWAP1 PUSH1 0x20 ADD DUP1 DUP4 GT PUSH2 0x17E0 JUMPI DUP3 SWAP1 SUB PUSH1 0x1F AND DUP3 ADD SWAP2 JUMPDEST POP POP POP POP POP SWAP1 POP SWAP2 SWAP1 POP JUMP JUMPDEST PUSH0 PUSH32 0x1FFC9A700000000000000000000000000000000000000000000000000000000 PUSH28 0xFFFFFFFFFFFFFFFFFFFFFFFFFFFFFFFFFFFFFFFFFFFFFFFFFFFFFFFF NOT AND DUP3 PUSH28 0xFFFFFFFFFFFFFFFFFFFFFFFFFFFFFFFFFFFFFFFFFFFFFFFFFFFFFFFF NOT AND EQ SWAP1 POP SWAP2 SWAP1 POP JUMP JUMPDEST PUSH0 PUSH0 PUSH2 0x187D DUP4 PUSH2 0x229A JUMP JUMPDEST SWAP1 POP PUSH0 PUSH20 0xFFFFFFFFFFFFFFFFFFFFFFFFFFFFFFFFFFFFFFFF AND DUP2 PUSH20 0xFFFFFFFFFFFFFFFFFFFFFFFFFFFFFFFFFFFFFFFF AND SUB PUSH2 0x18EF JUMPI DUP3 PUSH1 0x40 MLOAD PUSH32 0x7E27328900000000000000000000000000000000000000000000000000000000 DUP2 MSTORE PUSH1 0x4 ADD PUSH2 0x18E6 SWAP2 SWAP1 PUSH2 0x2BCA JUMP JUMPDEST PUSH1 0x40 MLOAD DUP1 SWAP2 SUB SWAP1 REVERT JUMPDEST DUP1 SWAP2 POP POP SWAP2 SWAP1 POP JUMP JUMPDEST PUSH0 PUSH1 0x4 PUSH0 DUP4 DUP2 MSTORE PUSH1 0x20 ADD SWAP1 DUP2 MSTORE PUSH1 0x20 ADD PUSH0 KECCAK256 PUSH0 SWAP1 SLOAD SWAP1 PUSH2 0x100 EXP SWAP1 DIV PUSH20 0xFFFFFFFFFFFFFFFFFFFFFFFFFFFFFFFFFFFFFFFF AND SWAP1 POP SWAP2 SWAP1 POP JUMP JUMPDEST PUSH0 CALLER SWAP1 POP SWAP1 JUMP JUMPDEST PUSH2 0x1945 DUP4 DUP4 DUP4 PUSH1 0x1 PUSH2 0x22D3 JUMP JUMPDEST POP POP POP JUMP JUMPDEST PUSH0 PUSH0 PUSH2 0x1955 DUP5 PUSH2 0x229A JUMP JUMPDEST SWAP1 POP PUSH0 PUSH20 0xFFFFFFFFFFFFFFFFFFFFFFFFFFFFFFFFFFFFFFFF AND DUP4 PUSH20 0xFFFFFFFFFFFFFFFFFFFFFFFFFFFFFFFFFFFFFFFF AND EQ PUSH2 0x1996 JUMPI PUSH2 0x1995 DUP2 DUP5 DUP7 PUSH2 0x2492 JUMP JUMPDEST JUMPDEST PUSH0 PUSH20 0xFFFFFFFFFFFFFFFFFFFFFFFFFFFFFFFFFFFFFFFF AND DUP2 PUSH20 0xFFFFFFFFFFFFFFFFFFFFFFFFFFFFFFFFFFFFFFFF AND EQ PUSH2 0x1A21 JUMPI PUSH2 0x19D5 PUSH0 DUP6 PUSH0 PUSH0 PUSH2 0x22D3 JUMP JUMPDEST PUSH1 0x1 PUSH1 0x3 PUSH0 DUP4 PUSH20 0xFFFFFFFFFFFFFFFFFFFFFFFFFFFFFFFFFFFFFFFF AND PUSH20 0xFFFFFFFFFFFFFFFFFFFFFFFFFFFFFFFFFFFFFFFF AND DUP2 MSTORE PUSH1 0x20 ADD SWAP1 DUP2 MSTORE PUSH1 0x20 ADD PUSH0 KECCAK256 PUSH0 DUP3 DUP3 SLOAD SUB SWAP3 POP POP DUP2 SWAP1 SSTORE POP JUMPDEST PUSH0 PUSH20 0xFFFFFFFFFFFFFFFFFFFFFFFFFFFFFFFFFFFFFFFF AND DUP6 PUSH20 0xFFFFFFFFFFFFFFFFFFFFFFFFFFFFFFFFFFFFFFFF AND EQ PUSH2 0x1AA0 JUMPI PUSH1 0x1 PUSH1 0x3 PUSH0 DUP8 PUSH20 0xFFFFFFFFFFFFFFFFFFFFFFFFFFFFFFFFFFFFFFFF AND PUSH20 0xFFFFFFFFFFFFFFFFFFFFFFFFFFFFFFFFFFFFFFFF AND DUP2 MSTORE PUSH1 0x20 ADD SWAP1 DUP2 MSTORE PUSH1 0x20 ADD PUSH0 KECCAK256 PUSH0 DUP3 DUP3 SLOAD ADD SWAP3 POP POP DUP2 SWAP1 SSTORE POP JUMPDEST DUP5 PUSH1 0x2 PUSH0 DUP7 DUP2 MSTORE PUSH1 0x20 ADD SWAP1 DUP2 MSTORE PUSH1 0x20 ADD PUSH0 KECCAK256 PUSH0 PUSH2 0x100 EXP DUP2 SLOAD DUP2 PUSH20 0xFFFFFFFFFFFFFFFFFFFFFFFFFFFFFFFFFFFFFFFF MUL NOT AND SWAP1 DUP4 PUSH20 0xFFFFFFFFFFFFFFFFFFFFFFFFFFFFFFFFFFFFFFFF AND MUL OR SWAP1 SSTORE POP DUP4 DUP6 PUSH20 0xFFFFFFFFFFFFFFFFFFFFFFFFFFFFFFFFFFFFFFFF AND DUP3 PUSH20 0xFFFFFFFFFFFFFFFFFFFFFFFFFFFFFFFFFFFFFFFF AND PUSH32 0xDDF252AD1BE2C89B69C2B068FC378DAA952BA7F163C4A11628F55A4DF523B3EF PUSH1 0x40 MLOAD PUSH1 0x40 MLOAD DUP1 SWAP2 SUB SWAP1 LOG4 DUP1 SWAP2 POP POP SWAP4 SWAP3 POP POP POP JUMP JUMPDEST PUSH2 0x1B5D PUSH2 0x1931 JUMP JUMPDEST PUSH20 0xFFFFFFFFFFFFFFFFFFFFFFFFFFFFFFFFFFFFFFFF AND PUSH2 0x1B7B PUSH2 0xF40 JUMP JUMPDEST PUSH20 0xFFFFFFFFFFFFFFFFFFFFFFFFFFFFFFFFFFFFFFFF AND EQ PUSH2 0x1BDA JUMPI PUSH2 0x1B9E PUSH2 0x1931 JUMP JUMPDEST PUSH1 0x40 MLOAD PUSH32 0x118CDAA700000000000000000000000000000000000000000000000000000000 DUP2 MSTORE PUSH1 0x4 ADD PUSH2 0x1BD1 SWAP2 SWAP1 PUSH2 0x29B5 JUMP JUMPDEST PUSH1 0x40 MLOAD DUP1 SWAP2 SUB SWAP1 REVERT JUMPDEST JUMP JUMPDEST PUSH1 0xA PUSH1 0x40 MLOAD DUP1 PUSH1 0x60 ADD PUSH1 0x40 MSTORE DUP1 DUP6 DUP2 MSTORE PUSH1 0x20 ADD DUP5 DUP2 MSTORE PUSH1 0x20 ADD DUP4 DUP2 MSTORE POP SWAP1 DUP1 PUSH1 0x1 DUP2 SLOAD ADD DUP1 DUP3 SSTORE DUP1 SWAP2 POP POP PUSH1 0x1 SWAP1 SUB SWAP1 PUSH0 MSTORE PUSH1 0x20 PUSH0 KECCAK256 SWAP1 PUSH1 0x3 MUL ADD PUSH0 SWAP1 SWAP2 SWAP1 SWAP2 SWAP1 SWAP2 POP PUSH0 DUP3 ADD MLOAD DUP2 PUSH0 ADD SWAP1 DUP2 PUSH2 0x1C32 SWAP2 SWAP1 PUSH2 0x37FE JUMP JUMPDEST POP PUSH1 0x20 DUP3 ADD MLOAD DUP2 PUSH1 0x1 ADD SSTORE PUSH1 0x40 DUP3 ADD MLOAD DUP2 PUSH1 0x2 ADD SWAP1 DUP2 PUSH2 0x1C52 SWAP2 SWAP1 PUSH2 0x37FE JUMP JUMPDEST POP POP POP DUP2 PUSH1 0xB PUSH0 DUP3 DUP3 SLOAD PUSH2 0x1C66 SWAP2 SWAP1 PUSH2 0x3098 JUMP JUMPDEST SWAP3 POP POP DUP2 SWAP1 SSTORE POP PUSH1 0x1 PUSH1 0xA DUP1 SLOAD SWAP1 POP PUSH2 0x1C7F SWAP2 SWAP1 PUSH2 0x329C JUMP JUMPDEST PUSH32 0x310F76BACB85A30C594EEA3308FBF6A30D1E569E2F297BC77AAC281A6CA1F11 DUP5 DUP5 DUP5 PUSH1 0x40 MLOAD PUSH2 0x1CB2 SWAP4 SWAP3 SWAP2 SWAP1 PUSH2 0x2A45 JUMP JUMPDEST PUSH1 0x40 MLOAD DUP1 SWAP2 SUB SWAP1 LOG2 POP POP POP JUMP JUMPDEST DUP1 SELFBALANCE LT ISZERO PUSH2 0x1D06 JUMPI SELFBALANCE DUP2 PUSH1 0x40 MLOAD PUSH32 0xCF47918100000000000000000000000000000000000000000000000000000000 DUP2 MSTORE PUSH1 0x4 ADD PUSH2 0x1CFD SWAP3 SWAP2 SWAP1 PUSH2 0x38CD JUMP JUMPDEST PUSH1 0x40 MLOAD DUP1 SWAP2 SUB SWAP1 REVERT JUMPDEST PUSH0 PUSH0 DUP4 PUSH20 0xFFFFFFFFFFFFFFFFFFFFFFFFFFFFFFFFFFFFFFFF AND DUP4 PUSH1 0x40 MLOAD PUSH2 0x1D2C SWAP1 PUSH2 0x3921 JUMP JUMPDEST PUSH0 PUSH1 0x40 MLOAD DUP1 DUP4 SUB DUP2 DUP6 DUP8 GAS CALL SWAP3 POP POP POP RETURNDATASIZE DUP1 PUSH0 DUP2 EQ PUSH2 0x1D66 JUMPI PUSH1 0x40 MLOAD SWAP2 POP PUSH1 0x1F NOT PUSH1 0x3F RETURNDATASIZE ADD AND DUP3 ADD PUSH1 0x40 MSTORE RETURNDATASIZE DUP3 MSTORE RETURNDATASIZE PUSH0 PUSH1 0x20 DUP5 ADD RETURNDATACOPY PUSH2 0x1D6B JUMP JUMPDEST PUSH1 0x60 SWAP2 POP JUMPDEST POP SWAP2 POP SWAP2 POP DUP2 PUSH2 0x1D7F JUMPI PUSH2 0x1D7E DUP2 PUSH2 0x2555 JUMP JUMPDEST JUMPDEST POP POP POP POP JUMP JUMPDEST PUSH0 PUSH1 0x6 PUSH0 SWAP1 SLOAD SWAP1 PUSH2 0x100 EXP SWAP1 DIV PUSH20 0xFFFFFFFFFFFFFFFFFFFFFFFFFFFFFFFFFFFFFFFF AND SWAP1 POP DUP2 PUSH1 0x6 PUSH0 PUSH2 0x100 EXP DUP2 SLOAD DUP2 PUSH20 0xFFFFFFFFFFFFFFFFFFFFFFFFFFFFFFFFFFFFFFFF MUL NOT AND SWAP1 DUP4 PUSH20 0xFFFFFFFFFFFFFFFFFFFFFFFFFFFFFFFFFFFFFFFF AND MUL OR SWAP1 SSTORE POP DUP2 PUSH20 0xFFFFFFFFFFFFFFFFFFFFFFFFFFFFFFFFFFFFFFFF AND DUP2 PUSH20 0xFFFFFFFFFFFFFFFFFFFFFFFFFFFFFFFFFFFFFFFF AND PUSH32 0x8BE0079C531659141344CD1FD0A4F28419497F9722A3DAAFE3B4186F6B6457E0 PUSH1 0x40 MLOAD PUSH1 0x40 MLOAD DUP1 SWAP2 SUB SWAP1 LOG3 POP POP JUMP JUMPDEST PUSH0 PUSH1 0x7 PUSH0 DUP2 SLOAD PUSH2 0x1E57 SWAP1 PUSH2 0x3935 JUMP JUMPDEST SWAP2 SWAP1 POP DUP2 SWAP1 SSTORE SWAP1 POP PUSH2 0x1E69 DUP4 DUP3 PUSH2 0x2599 JUMP JUMPDEST PUSH0 PUSH1 0xB SLOAD PUSH2 0x1E77 DUP4 DUP7 PUSH2 0x25B6 JUMP JUMPDEST PUSH2 0x1E81 SWAP2 SWAP1 PUSH2 0x397C JUMP JUMPDEST SWAP1 POP PUSH0 PUSH0 SWAP1 POP PUSH0 PUSH0 SWAP1 POP JUMPDEST PUSH1 0xA DUP1 SLOAD SWAP1 POP DUP2 LT ISZERO PUSH2 0x1EFA JUMPI PUSH1 0xA DUP2 DUP2 SLOAD DUP2 LT PUSH2 0x1EAD JUMPI PUSH2 0x1EAC PUSH2 0x3337 JUMP JUMPDEST JUMPDEST SWAP1 PUSH0 MSTORE PUSH1 0x20 PUSH0 KECCAK256 SWAP1 PUSH1 0x3 MUL ADD PUSH1 0x1 ADD SLOAD DUP3 PUSH2 0x1EC8 SWAP2 SWAP1 PUSH2 0x3098 JUMP JUMPDEST SWAP2 POP DUP2 DUP4 LT ISZERO PUSH2 0x1EED JUMPI DUP1 PUSH1 0x9 PUSH0 DUP7 DUP2 MSTORE PUSH1 0x20 ADD SWAP1 DUP2 MSTORE PUSH1 0x20 ADD PUSH0 KECCAK256 DUP2 SWAP1 SSTORE POP PUSH2 0x1EFA JUMP JUMPDEST DUP1 DUP1 PUSH1 0x1 ADD SWAP2 POP POP PUSH2 0x1E8C JUMP JUMPDEST POP DUP3 DUP6 PUSH20 0xFFFFFFFFFFFFFFFFFFFFFFFFFFFFFFFFFFFFFFFF AND PUSH32 0xF2A8E8D2C40E75B74C3DFE5668CD9A6556268C70E6154796F79EBB6FA93B62AB PUSH1 0xA PUSH1 0x9 PUSH0 DUP9 DUP2 MSTORE PUSH1 0x20 ADD SWAP1 DUP2 MSTORE PUSH1 0x20 ADD PUSH0 KECCAK256 SLOAD DUP2 SLOAD DUP2 LT PUSH2 0x1F59 JUMPI PUSH2 0x1F58 PUSH2 0x3337 JUMP JUMPDEST JUMPDEST SWAP1 PUSH0 MSTORE PUSH1 0x20 PUSH0 KECCAK256 SWAP1 PUSH1 0x3 MUL ADD PUSH0 ADD DUP8 PUSH1 0x40 MLOAD PUSH2 0x1F76 SWAP3 SWAP2 SWAP1 PUSH2 0x3A2D JUMP JUMPDEST PUSH1 0x40 MLOAD DUP1 SWAP2 SUB SWAP1 LOG3 POP POP POP POP POP JUMP JUMPDEST PUSH0 PUSH20 0xFFFFFFFFFFFFFFFFFFFFFFFFFFFFFFFFFFFFFFFF AND DUP3 PUSH20 0xFFFFFFFFFFFFFFFFFFFFFFFFFFFFFFFFFFFFFFFF AND SUB PUSH2 0x1FF5 JUMPI DUP2 PUSH1 0x40 MLOAD PUSH32 0x5B08BA1800000000000000000000000000000000000000000000000000000000 DUP2 MSTORE PUSH1 0x4 ADD PUSH2 0x1FEC SWAP2 SWAP1 PUSH2 0x29B5 JUMP JUMPDEST PUSH1 0x40 MLOAD DUP1 SWAP2 SUB SWAP1 REVERT JUMPDEST DUP1 PUSH1 0x5 PUSH0 DUP6 PUSH20 0xFFFFFFFFFFFFFFFFFFFFFFFFFFFFFFFFFFFFFFFF AND PUSH20 0xFFFFFFFFFFFFFFFFFFFFFFFFFFFFFFFFFFFFFFFF AND DUP2 MSTORE PUSH1 0x20 ADD SWAP1 DUP2 MSTORE PUSH1 0x20 ADD PUSH0 KECCAK256 PUSH0 DUP5 PUSH20 0xFFFFFFFFFFFFFFFFFFFFFFFFFFFFFFFFFFFFFFFF AND PUSH20 0xFFFFFFFFFFFFFFFFFFFFFFFFFFFFFFFFFFFFFFFF AND DUP2 MSTORE PUSH1 0x20 ADD SWAP1 DUP2 MSTORE PUSH1 0x20 ADD PUSH0 KECCAK256 PUSH0 PUSH2 0x100 EXP DUP2 SLOAD DUP2 PUSH1 0xFF MUL NOT AND SWAP1 DUP4 ISZERO ISZERO MUL OR SWAP1 SSTORE POP DUP2 PUSH20 0xFFFFFFFFFFFFFFFFFFFFFFFFFFFFFFFFFFFFFFFF AND DUP4 PUSH20 0xFFFFFFFFFFFFFFFFFFFFFFFFFFFFFFFFFFFFFFFF AND PUSH32 0x17307EAB39AB6107E8899845AD3D59BD9653F200F220920489CA2B5937696C31 DUP4 PUSH1 0x40 MLOAD PUSH2 0x20E1 SWAP2 SWAP1 PUSH2 0x286F JUMP JUMPDEST PUSH1 0x40 MLOAD DUP1 SWAP2 SUB SWAP1 LOG3 POP POP POP JUMP JUMPDEST PUSH0 DUP4 PUSH20 0xFFFFFFFFFFFFFFFFFFFFFFFFFFFFFFFFFFFFFFFF AND EXTCODESIZE GT ISZERO PUSH2 0x2293 JUMPI DUP3 PUSH20 0xFFFFFFFFFFFFFFFFFFFFFFFFFFFFFFFFFFFFFFFF AND PUSH4 0x150B7A02 DUP7 DUP7 DUP6 DUP6 PUSH1 0x40 MLOAD DUP6 PUSH4 0xFFFFFFFF AND PUSH1 0xE0 SHL DUP2 MSTORE PUSH1 0x4 ADD PUSH2 0x214C SWAP5 SWAP4 SWAP3 SWAP2 SWAP1 PUSH2 0x3AAD JUMP JUMPDEST PUSH1 0x20 PUSH1 0x40 MLOAD DUP1 DUP4 SUB DUP2 PUSH0 DUP8 GAS CALL SWAP3 POP POP POP DUP1 ISZERO PUSH2 0x2187 JUMPI POP PUSH1 0x40 MLOAD RETURNDATASIZE PUSH1 0x1F NOT PUSH1 0x1F DUP3 ADD AND DUP3 ADD DUP1 PUSH1 0x40 MSTORE POP DUP2 ADD SWAP1 PUSH2 0x2184 SWAP2 SWAP1 PUSH2 0x3B0B JUMP JUMPDEST PUSH1 0x1 JUMPDEST PUSH2 0x2208 JUMPI RETURNDATASIZE DUP1 PUSH0 DUP2 EQ PUSH2 0x21B5 JUMPI PUSH1 0x40 MLOAD SWAP2 POP PUSH1 0x1F NOT PUSH1 0x3F RETURNDATASIZE ADD AND DUP3 ADD PUSH1 0x40 MSTORE RETURNDATASIZE DUP3 MSTORE RETURNDATASIZE PUSH0 PUSH1 0x20 DUP5 ADD RETURNDATACOPY PUSH2 0x21BA JUMP JUMPDEST PUSH1 0x60 SWAP2 POP JUMPDEST POP PUSH0 DUP2 MLOAD SUB PUSH2 0x2200 JUMPI DUP4 PUSH1 0x40 MLOAD PUSH32 0x64A0AE9200000000000000000000000000000000000000000000000000000000 DUP2 MSTORE PUSH1 0x4 ADD PUSH2 0x21F7 SWAP2 SWAP1 PUSH2 0x29B5 JUMP JUMPDEST PUSH1 0x40 MLOAD DUP1 SWAP2 SUB SWAP1 REVERT JUMPDEST DUP1 MLOAD DUP2 PUSH1 0x20 ADD REVERT JUMPDEST PUSH4 0x150B7A02 PUSH1 0xE0 SHL PUSH28 0xFFFFFFFFFFFFFFFFFFFFFFFFFFFFFFFFFFFFFFFFFFFFFFFFFFFFFFFF NOT AND DUP2 PUSH28 0xFFFFFFFFFFFFFFFFFFFFFFFFFFFFFFFFFFFFFFFFFFFFFFFFFFFFFFFF NOT AND EQ PUSH2 0x2291 JUMPI DUP4 PUSH1 0x40 MLOAD PUSH32 0x64A0AE9200000000000000000000000000000000000000000000000000000000 DUP2 MSTORE PUSH1 0x4 ADD PUSH2 0x2288 SWAP2 SWAP1 PUSH2 0x29B5 JUMP JUMPDEST PUSH1 0x40 MLOAD DUP1 SWAP2 SUB SWAP1 REVERT JUMPDEST POP JUMPDEST POP POP POP POP POP JUMP JUMPDEST PUSH0 PUSH1 0x2 PUSH0 DUP4 DUP2 MSTORE PUSH1 0x20 ADD SWAP1 DUP2 MSTORE PUSH1 0x20 ADD PUSH0 KECCAK256 PUSH0 SWAP1 SLOAD SWAP1 PUSH2 0x100 EXP SWAP1 DIV PUSH20 0xFFFFFFFFFFFFFFFFFFFFFFFFFFFFFFFFFFFFFFFF AND SWAP1 POP SWAP2 SWAP1 POP JUMP JUMPDEST DUP1 DUP1 PUSH2 0x230B JUMPI POP PUSH0 PUSH20 0xFFFFFFFFFFFFFFFFFFFFFFFFFFFFFFFFFFFFFFFF AND DUP3 PUSH20 0xFFFFFFFFFFFFFFFFFFFFFFFFFFFFFFFFFFFFFFFF AND EQ ISZERO JUMPDEST ISZERO PUSH2 0x243D JUMPI PUSH0 PUSH2 0x231A DUP5 PUSH2 0x1872 JUMP JUMPDEST SWAP1 POP PUSH0 PUSH20 0xFFFFFFFFFFFFFFFFFFFFFFFFFFFFFFFFFFFFFFFF AND DUP4 PUSH20 0xFFFFFFFFFFFFFFFFFFFFFFFFFFFFFFFFFFFFFFFF AND EQ ISZERO DUP1 ISZERO PUSH2 0x2384 JUMPI POP DUP3 PUSH20 0xFFFFFFFFFFFFFFFFFFFFFFFFFFFFFFFFFFFFFFFF AND DUP2 PUSH20 0xFFFFFFFFFFFFFFFFFFFFFFFFFFFFFFFFFFFFFFFF AND EQ ISZERO JUMPDEST DUP1 ISZERO PUSH2 0x2397 JUMPI POP PUSH2 0x2395 DUP2 DUP5 PUSH2 0x1634 JUMP JUMPDEST ISZERO JUMPDEST ISZERO PUSH2 0x23D9 JUMPI DUP3 PUSH1 0x40 MLOAD PUSH32 0xA9FBF51F00000000000000000000000000000000000000000000000000000000 DUP2 MSTORE PUSH1 0x4 ADD PUSH2 0x23D0 SWAP2 SWAP1 PUSH2 0x29B5 JUMP JUMPDEST PUSH1 0x40 MLOAD DUP1 SWAP2 SUB SWAP1 REVERT JUMPDEST DUP2 ISZERO PUSH2 0x243B JUMPI DUP4 DUP6 PUSH20 0xFFFFFFFFFFFFFFFFFFFFFFFFFFFFFFFFFFFFFFFF AND DUP3 PUSH20 0xFFFFFFFFFFFFFFFFFFFFFFFFFFFFFFFFFFFFFFFF AND PUSH32 0x8C5BE1E5EBEC7D5BD14F71427D1E84F3DD0314C0F7B2291E5B200AC8C7C3B925 PUSH1 0x40 MLOAD PUSH1 0x40 MLOAD DUP1 SWAP2 SUB SWAP1 LOG4 JUMPDEST POP JUMPDEST DUP4 PUSH1 0x4 PUSH0 DUP6 DUP2 MSTORE PUSH1 0x20 ADD SWAP1 DUP2 MSTORE PUSH1 0x20 ADD PUSH0 KECCAK256 PUSH0 PUSH2 0x100 EXP DUP2 SLOAD DUP2 PUSH20 0xFFFFFFFFFFFFFFFFFFFFFFFFFFFFFFFFFFFFFFFF MUL NOT AND SWAP1 DUP4 PUSH20 0xFFFFFFFFFFFFFFFFFFFFFFFFFFFFFFFFFFFFFFFF AND MUL OR SWAP1 SSTORE POP POP POP POP POP JUMP JUMPDEST PUSH2 0x249D DUP4 DUP4 DUP4 PUSH2 0x25EE JUMP JUMPDEST PUSH2 0x2550 JUMPI PUSH0 PUSH20 0xFFFFFFFFFFFFFFFFFFFFFFFFFFFFFFFFFFFFFFFF AND DUP4 PUSH20 0xFFFFFFFFFFFFFFFFFFFFFFFFFFFFFFFFFFFFFFFF AND SUB PUSH2 0x2511 JUMPI DUP1 PUSH1 0x40 MLOAD PUSH32 0x7E27328900000000000000000000000000000000000000000000000000000000 DUP2 MSTORE PUSH1 0x4 ADD PUSH2 0x2508 SWAP2 SWAP1 PUSH2 0x2BCA JUMP JUMPDEST PUSH1 0x40 MLOAD DUP1 SWAP2 SUB SWAP1 REVERT JUMPDEST DUP2 DUP2 PUSH1 0x40 MLOAD PUSH32 0x177E802F00000000000000000000000000000000000000000000000000000000 DUP2 MSTORE PUSH1 0x4 ADD PUSH2 0x2547 SWAP3 SWAP2 SWAP1 PUSH2 0x310A JUMP JUMPDEST PUSH1 0x40 MLOAD DUP1 SWAP2 SUB SWAP1 REVERT JUMPDEST POP POP POP JUMP JUMPDEST PUSH0 DUP2 MLOAD GT ISZERO PUSH2 0x2567 JUMPI DUP1 MLOAD DUP1 DUP3 PUSH1 0x20 ADD REVERT JUMPDEST PUSH1 0x40 MLOAD PUSH32 0xD6BDA27500000000000000000000000000000000000000000000000000000000 DUP2 MSTORE PUSH1 0x4 ADD PUSH1 0x40 MLOAD DUP1 SWAP2 SUB SWAP1 REVERT JUMPDEST PUSH2 0x25B2 DUP3 DUP3 PUSH1 0x40 MLOAD DUP1 PUSH1 0x20 ADD PUSH1 0x40 MSTORE DUP1 PUSH0 DUP2 MSTORE POP PUSH2 0x26AE JUMP JUMPDEST POP POP JUMP JUMPDEST PUSH0 TIMESTAMP PREVRANDAO DUP5 DUP5 PUSH1 0x40 MLOAD PUSH1 0x20 ADD PUSH2 0x25CE SWAP5 SWAP4 SWAP3 SWAP2 SWAP1 PUSH2 0x3B9B JUMP JUMPDEST PUSH1 0x40 MLOAD PUSH1 0x20 DUP2 DUP4 SUB SUB DUP2 MSTORE SWAP1 PUSH1 0x40 MSTORE DUP1 MLOAD SWAP1 PUSH1 0x20 ADD KECCAK256 PUSH0 SHR SWAP1 POP SWAP3 SWAP2 POP POP JUMP JUMPDEST PUSH0 PUSH0 PUSH20 0xFFFFFFFFFFFFFFFFFFFFFFFFFFFFFFFFFFFFFFFF AND DUP4 PUSH20 0xFFFFFFFFFFFFFFFFFFFFFFFFFFFFFFFFFFFFFFFF AND EQ ISZERO DUP1 ISZERO PUSH2 0x26A5 JUMPI POP DUP3 PUSH20 0xFFFFFFFFFFFFFFFFFFFFFFFFFFFFFFFFFFFFFFFF AND DUP5 PUSH20 0xFFFFFFFFFFFFFFFFFFFFFFFFFFFFFFFFFFFFFFFF AND EQ DUP1 PUSH2 0x2666 JUMPI POP PUSH2 0x2665 DUP5 DUP5 PUSH2 0x1634 JUMP JUMPDEST JUMPDEST DUP1 PUSH2 0x26A4 JUMPI POP DUP3 PUSH20 0xFFFFFFFFFFFFFFFFFFFFFFFFFFFFFFFFFFFFFFFF AND PUSH2 0x268C DUP4 PUSH2 0x18F8 JUMP JUMPDEST PUSH20 0xFFFFFFFFFFFFFFFFFFFFFFFFFFFFFFFFFFFFFFFF AND EQ JUMPDEST JUMPDEST SWAP1 POP SWAP4 SWAP3 POP POP POP JUMP JUMPDEST PUSH2 0x26B8 DUP4 DUP4 PUSH2 0x26D1 JUMP JUMPDEST PUSH2 0x26CC PUSH2 0x26C3 PUSH2 0x1931 JUMP JUMPDEST PUSH0 DUP6 DUP6 DUP6 PUSH2 0x20EE JUMP JUMPDEST POP POP POP JUMP JUMPDEST PUSH0 PUSH20 0xFFFFFFFFFFFFFFFFFFFFFFFFFFFFFFFFFFFFFFFF AND DUP3 PUSH20 0xFFFFFFFFFFFFFFFFFFFFFFFFFFFFFFFFFFFFFFFF AND SUB PUSH2 0x2741 JUMPI PUSH0 PUSH1 0x40 MLOAD PUSH32 0x64A0AE9200000000000000000000000000000000000000000000000000000000 DUP2 MSTORE PUSH1 0x4 ADD PUSH2 0x2738 SWAP2 SWAP1 PUSH2 0x29B5 JUMP JUMPDEST PUSH1 0x40 MLOAD DUP1 SWAP2 SUB SWAP1 REVERT JUMPDEST PUSH0 PUSH2 0x274D DUP4 DUP4 PUSH0 PUSH2 0x194A JUMP JUMPDEST SWAP1 POP PUSH0 PUSH20 0xFFFFFFFFFFFFFFFFFFFFFFFFFFFFFFFFFFFFFFFF AND DUP2 PUSH20 0xFFFFFFFFFFFFFFFFFFFFFFFFFFFFFFFFFFFFFFFF AND EQ PUSH2 0x27BF JUMPI PUSH0 PUSH1 0x40 MLOAD PUSH32 0x73C6AC6E00000000000000000000000000000000000000000000000000000000 DUP2 MSTORE PUSH1 0x4 ADD PUSH2 0x27B6 SWAP2 SWAP1 PUSH2 0x29B5 JUMP JUMPDEST PUSH1 0x40 MLOAD DUP1 SWAP2 SUB SWAP1 REVERT JUMPDEST POP POP POP JUMP JUMPDEST PUSH0 PUSH1 0x40 MLOAD SWAP1 POP SWAP1 JUMP JUMPDEST PUSH0 PUSH0 REVERT JUMPDEST PUSH0 PUSH0 REVERT JUMPDEST PUSH0 PUSH32 0xFFFFFFFF00000000000000000000000000000000000000000000000000000000 DUP3 AND SWAP1 POP SWAP2 SWAP1 POP JUMP JUMPDEST PUSH2 0x2809 DUP2 PUSH2 0x27D5 JUMP JUMPDEST DUP2 EQ PUSH2 0x2813 JUMPI PUSH0 PUSH0 REVERT JUMPDEST POP JUMP JUMPDEST PUSH0 DUP2 CALLDATALOAD SWAP1 POP PUSH2 0x2824 DUP2 PUSH2 0x2800 JUMP JUMPDEST SWAP3 SWAP2 POP POP JUMP JUMPDEST PUSH0 PUSH1 0x20 DUP3 DUP5 SUB SLT ISZERO PUSH2 0x283F JUMPI PUSH2 0x283E PUSH2 0x27CD JUMP JUMPDEST JUMPDEST PUSH0 PUSH2 0x284C DUP5 DUP3 DUP6 ADD PUSH2 0x2816 JUMP JUMPDEST SWAP2 POP POP SWAP3 SWAP2 POP POP JUMP JUMPDEST PUSH0 DUP2 ISZERO ISZERO SWAP1 POP SWAP2 SWAP1 POP JUMP JUMPDEST PUSH2 0x2869 DUP2 PUSH2 0x2855 JUMP JUMPDEST DUP3 MSTORE POP POP JUMP JUMPDEST PUSH0 PUSH1 0x20 DUP3 ADD SWAP1 POP PUSH2 0x2882 PUSH0 DUP4 ADD DUP5 PUSH2 0x2860 JUMP JUMPDEST SWAP3 SWAP2 POP POP JUMP JUMPDEST PUSH0 DUP2 MLOAD SWAP1 POP SWAP2 SWAP1 POP JUMP JUMPDEST PUSH0 DUP3 DUP3 MSTORE PUSH1 0x20 DUP3 ADD SWAP1 POP SWAP3 SWAP2 POP POP JUMP JUMPDEST DUP3 DUP2 DUP4 MCOPY PUSH0 DUP4 DUP4 ADD MSTORE POP POP POP JUMP JUMPDEST PUSH0 PUSH1 0x1F NOT PUSH1 0x1F DUP4 ADD AND SWAP1 POP SWAP2 SWAP1 POP JUMP JUMPDEST PUSH0 PUSH2 0x28CA DUP3 PUSH2 0x2888 JUMP JUMPDEST PUSH2 0x28D4 DUP2 DUP6 PUSH2 0x2892 JUMP JUMPDEST SWAP4 POP PUSH2 0x28E4 DUP2 DUP6 PUSH1 0x20 DUP7 ADD PUSH2 0x28A2 JUMP JUMPDEST PUSH2 0x28ED DUP2 PUSH2 0x28B0 JUMP JUMPDEST DUP5 ADD SWAP2 POP POP SWAP3 SWAP2 POP POP JUMP JUMPDEST PUSH0 PUSH1 0x20 DUP3 ADD SWAP1 POP DUP2 DUP2 SUB PUSH0 DUP4 ADD MSTORE PUSH2 0x2910 DUP2 DUP5 PUSH2 0x28C0 JUMP JUMPDEST SWAP1 POP SWAP3 SWAP2 POP POP JUMP JUMPDEST PUSH0 DUP2 SWAP1 POP SWAP2 SWAP1 POP JUMP JUMPDEST PUSH2 0x292A DUP2 PUSH2 0x2918 JUMP JUMPDEST DUP2 EQ PUSH2 0x2934 JUMPI PUSH0 PUSH0 REVERT JUMPDEST POP JUMP JUMPDEST PUSH0 DUP2 CALLDATALOAD SWAP1 POP PUSH2 0x2945 DUP2 PUSH2 0x2921 JUMP JUMPDEST SWAP3 SWAP2 POP POP JUMP JUMPDEST PUSH0 PUSH1 0x20 DUP3 DUP5 SUB SLT ISZERO PUSH2 0x2960 JUMPI PUSH2 0x295F PUSH2 0x27CD JUMP JUMPDEST JUMPDEST PUSH0 PUSH2 0x296D DUP5 DUP3 DUP6 ADD PUSH2 0x2937 JUMP JUMPDEST SWAP2 POP POP SWAP3 SWAP2 POP POP JUMP JUMPDEST PUSH0 PUSH20 0xFFFFFFFFFFFFFFFFFFFFFFFFFFFFFFFFFFFFFFFF DUP3 AND SWAP1 POP SWAP2 SWAP1 POP JUMP JUMPDEST PUSH0 PUSH2 0x299F DUP3 PUSH2 0x2976 JUMP JUMPDEST SWAP1 POP SWAP2 SWAP1 POP JUMP JUMPDEST PUSH2 0x29AF DUP2 PUSH2 0x2995 JUMP JUMPDEST DUP3 MSTORE POP POP JUMP JUMPDEST PUSH0 PUSH1 0x20 DUP3 ADD SWAP1 POP PUSH2 0x29C8 PUSH0 DUP4 ADD DUP5 PUSH2 0x29A6 JUMP JUMPDEST SWAP3 SWAP2 POP POP JUMP JUMPDEST PUSH2 0x29D7 DUP2 PUSH2 0x2995 JUMP JUMPDEST DUP2 EQ PUSH2 0x29E1 JUMPI PUSH0 PUSH0 REVERT JUMPDEST POP JUMP JUMPDEST PUSH0 DUP2 CALLDATALOAD SWAP1 POP PUSH2 0x29F2 DUP2 PUSH2 0x29CE JUMP JUMPDEST SWAP3 SWAP2 POP POP JUMP JUMPDEST PUSH0 PUSH0 PUSH1 0x40 DUP4 DUP6 SUB SLT ISZERO PUSH2 0x2A0E JUMPI PUSH2 0x2A0D PUSH2 0x27CD JUMP JUMPDEST JUMPDEST PUSH0 PUSH2 0x2A1B DUP6 DUP3 DUP7 ADD PUSH2 0x29E4 JUMP JUMPDEST SWAP3 POP POP PUSH1 0x20 PUSH2 0x2A2C DUP6 DUP3 DUP7 ADD PUSH2 0x2937 JUMP JUMPDEST SWAP2 POP POP SWAP3 POP SWAP3 SWAP1 POP JUMP JUMPDEST PUSH2 0x2A3F DUP2 PUSH2 0x2918 JUMP JUMPDEST DUP3 MSTORE POP POP JUMP JUMPDEST PUSH0 PUSH1 0x60 DUP3 ADD SWAP1 POP DUP2 DUP2 SUB PUSH0 DUP4 ADD MSTORE PUSH2 0x2A5D DUP2 DUP7 PUSH2 0x28C0 JUMP JUMPDEST SWAP1 POP PUSH2 0x2A6C PUSH1 0x20 DUP4 ADD DUP6 PUSH2 0x2A36 JUMP JUMPDEST DUP2 DUP2 SUB PUSH1 0x40 DUP4 ADD MSTORE PUSH2 0x2A7E DUP2 DUP5 PUSH2 0x28C0 JUMP JUMPDEST SWAP1 POP SWAP5 SWAP4 POP POP POP POP JUMP JUMPDEST PUSH0 PUSH0 PUSH0 PUSH1 0x60 DUP5 DUP7 SUB SLT ISZERO PUSH2 0x2A9F JUMPI PUSH2 0x2A9E PUSH2 0x27CD JUMP JUMPDEST JUMPDEST PUSH0 PUSH2 0x2AAC DUP7 DUP3 DUP8 ADD PUSH2 0x29E4 JUMP JUMPDEST SWAP4 POP POP PUSH1 0x20 PUSH2 0x2ABD DUP7 DUP3 DUP8 ADD PUSH2 0x29E4 JUMP JUMPDEST SWAP3 POP POP PUSH1 0x40 PUSH2 0x2ACE DUP7 DUP3 DUP8 ADD PUSH2 0x2937 JUMP JUMPDEST SWAP2 POP POP SWAP3 POP SWAP3 POP SWAP3 JUMP JUMPDEST PUSH0 PUSH0 REVERT JUMPDEST PUSH0 PUSH0 REVERT JUMPDEST PUSH0 PUSH0 REVERT JUMPDEST PUSH0 PUSH0 DUP4 PUSH1 0x1F DUP5 ADD SLT PUSH2 0x2AF9 JUMPI PUSH2 0x2AF8 PUSH2 0x2AD8 JUMP JUMPDEST JUMPDEST DUP3 CALLDATALOAD SWAP1 POP PUSH8 0xFFFFFFFFFFFFFFFF DUP2 GT ISZERO PUSH2 0x2B16 JUMPI PUSH2 0x2B15 PUSH2 0x2ADC JUMP JUMPDEST JUMPDEST PUSH1 0x20 DUP4 ADD SWAP2 POP DUP4 PUSH1 0x1 DUP3 MUL DUP4 ADD GT ISZERO PUSH2 0x2B32 JUMPI PUSH2 0x2B31 PUSH2 0x2AE0 JUMP JUMPDEST JUMPDEST SWAP3 POP SWAP3 SWAP1 POP JUMP JUMPDEST PUSH0 PUSH0 PUSH0 PUSH0 PUSH0 PUSH1 0x60 DUP7 DUP9 SUB SLT ISZERO PUSH2 0x2B52 JUMPI PUSH2 0x2B51 PUSH2 0x27CD JUMP JUMPDEST JUMPDEST PUSH0 DUP7 ADD CALLDATALOAD PUSH8 0xFFFFFFFFFFFFFFFF DUP2 GT ISZERO PUSH2 0x2B6F JUMPI PUSH2 0x2B6E PUSH2 0x27D1 JUMP JUMPDEST JUMPDEST PUSH2 0x2B7B DUP9 DUP3 DUP10 ADD PUSH2 0x2AE4 JUMP JUMPDEST SWAP6 POP SWAP6 POP POP PUSH1 0x20 PUSH2 0x2B8E DUP9 DUP3 DUP10 ADD PUSH2 0x2937 JUMP JUMPDEST SWAP4 POP POP PUSH1 0x40 DUP7 ADD CALLDATALOAD PUSH8 0xFFFFFFFFFFFFFFFF DUP2 GT ISZERO PUSH2 0x2BAF JUMPI PUSH2 0x2BAE PUSH2 0x27D1 JUMP JUMPDEST JUMPDEST PUSH2 0x2BBB DUP9 DUP3 DUP10 ADD PUSH2 0x2AE4 JUMP JUMPDEST SWAP3 POP SWAP3 POP POP SWAP3 SWAP6 POP SWAP3 SWAP6 SWAP1 SWAP4 POP JUMP JUMPDEST PUSH0 PUSH1 0x20 DUP3 ADD SWAP1 POP PUSH2 0x2BDD PUSH0 DUP4 ADD DUP5 PUSH2 0x2A36 JUMP JUMPDEST SWAP3 SWAP2 POP POP JUMP JUMPDEST PUSH0 PUSH1 0x20 DUP3 DUP5 SUB SLT ISZERO PUSH2 0x2BF8 JUMPI PUSH2 0x2BF7 PUSH2 0x27CD JUMP JUMPDEST JUMPDEST PUSH0 PUSH2 0x2C05 DUP5 DUP3 DUP6 ADD PUSH2 0x29E4 JUMP JUMPDEST SWAP2 POP POP SWAP3 SWAP2 POP POP JUMP JUMPDEST PUSH0 PUSH2 0x2C18 DUP3 PUSH2 0x2976 JUMP JUMPDEST SWAP1 POP SWAP2 SWAP1 POP JUMP JUMPDEST PUSH2 0x2C28 DUP2 PUSH2 0x2C0E JUMP JUMPDEST DUP2 EQ PUSH2 0x2C32 JUMPI PUSH0 PUSH0 REVERT JUMPDEST POP JUMP JUMPDEST PUSH0 DUP2 CALLDATALOAD SWAP1 POP PUSH2 0x2C43 DUP2 PUSH2 0x2C1F JUMP JUMPDEST SWAP3 SWAP2 POP POP JUMP JUMPDEST PUSH0 PUSH1 0x20 DUP3 DUP5 SUB SLT ISZERO PUSH2 0x2C5E JUMPI PUSH2 0x2C5D PUSH2 0x27CD JUMP JUMPDEST JUMPDEST PUSH0 PUSH2 0x2C6B DUP5 DUP3 DUP6 ADD PUSH2 0x2C35 JUMP JUMPDEST SWAP2 POP POP SWAP3 SWAP2 POP POP JUMP JUMPDEST PUSH0 PUSH0 PUSH0 PUSH0 PUSH0 PUSH0 PUSH1 0x80 DUP8 DUP10 SUB SLT ISZERO PUSH2 0x2C8E JUMPI PUSH2 0x2C8D PUSH2 0x27CD JUMP JUMPDEST JUMPDEST PUSH0 PUSH2 0x2C9B DUP10 DUP3 DUP11 ADD PUSH2 0x2937 JUMP JUMPDEST SWAP7 POP POP PUSH1 0x20 DUP8 ADD CALLDATALOAD PUSH8 0xFFFFFFFFFFFFFFFF DUP2 GT ISZERO PUSH2 0x2CBC JUMPI PUSH2 0x2CBB PUSH2 0x27D1 JUMP JUMPDEST JUMPDEST PUSH2 0x2CC8 DUP10 DUP3 DUP11 ADD PUSH2 0x2AE4 JUMP JUMPDEST SWAP6 POP SWAP6 POP POP PUSH1 0x40 PUSH2 0x2CDB DUP10 DUP3 DUP11 ADD PUSH2 0x2937 JUMP JUMPDEST SWAP4 POP POP PUSH1 0x60 DUP8 ADD CALLDATALOAD PUSH8 0xFFFFFFFFFFFFFFFF DUP2 GT ISZERO PUSH2 0x2CFC JUMPI PUSH2 0x2CFB PUSH2 0x27D1 JUMP JUMPDEST JUMPDEST PUSH2 0x2D08 DUP10 DUP3 DUP11 ADD PUSH2 0x2AE4 JUMP JUMPDEST SWAP3 POP SWAP3 POP POP SWAP3 SWAP6 POP SWAP3 SWAP6 POP SWAP3 SWAP6 JUMP JUMPDEST PUSH2 0x2D20 DUP2 PUSH2 0x2855 JUMP JUMPDEST DUP2 EQ PUSH2 0x2D2A JUMPI PUSH0 PUSH0 REVERT JUMPDEST POP JUMP JUMPDEST PUSH0 DUP2 CALLDATALOAD SWAP1 POP PUSH2 0x2D3B DUP2 PUSH2 0x2D17 JUMP JUMPDEST SWAP3 SWAP2 POP POP JUMP JUMPDEST PUSH0 PUSH0 PUSH1 0x40 DUP4 DUP6 SUB SLT ISZERO PUSH2 0x2D57 JUMPI PUSH2 0x2D56 PUSH2 0x27CD JUMP JUMPDEST JUMPDEST PUSH0 PUSH2 0x2D64 DUP6 DUP3 DUP7 ADD PUSH2 0x29E4 JUMP JUMPDEST SWAP3 POP POP PUSH1 0x20 PUSH2 0x2D75 DUP6 DUP3 DUP7 ADD PUSH2 0x2D2D JUMP JUMPDEST SWAP2 POP POP SWAP3 POP SWAP3 SWAP1 POP JUMP JUMPDEST PUSH0 DUP2 SWAP1 POP SWAP2 SWAP1 POP JUMP JUMPDEST PUSH0 PUSH2 0x2DA2 PUSH2 0x2D9D PUSH2 0x2D98 DUP5 PUSH2 0x2976 JUMP JUMPDEST PUSH2 0x2D7F JUMP JUMPDEST PUSH2 0x2976 JUMP JUMPDEST SWAP1 POP SWAP2 SWAP1 POP JUMP JUMPDEST PUSH0 PUSH2 0x2DB3 DUP3 PUSH2 0x2D88 JUMP JUMPDEST SWAP1 POP SWAP2 SWAP1 POP JUMP JUMPDEST PUSH0 PUSH2 0x2DC4 DUP3 PUSH2 0x2DA9 JUMP JUMPDEST SWAP1 POP SWAP2 SWAP1 POP JUMP JUMPDEST PUSH2 0x2DD4 DUP2 PUSH2 0x2DBA JUMP JUMPDEST DUP3 MSTORE POP POP JUMP JUMPDEST PUSH0 PUSH1 0x20 DUP3 ADD SWAP1 POP PUSH2 0x2DED PUSH0 DUP4 ADD DUP5 PUSH2 0x2DCB JUMP JUMPDEST SWAP3 SWAP2 POP POP JUMP JUMPDEST PUSH0 PUSH0 REVERT JUMPDEST PUSH32 0x4E487B7100000000000000000000000000000000000000000000000000000000 PUSH0 MSTORE PUSH1 0x41 PUSH1 0x4 MSTORE PUSH1 0x24 PUSH0 REVERT JUMPDEST PUSH2 0x2E2D DUP3 PUSH2 0x28B0 JUMP JUMPDEST DUP2 ADD DUP2 DUP2 LT PUSH8 0xFFFFFFFFFFFFFFFF DUP3 GT OR ISZERO PUSH2 0x2E4C JUMPI PUSH2 0x2E4B PUSH2 0x2DF7 JUMP JUMPDEST JUMPDEST DUP1 PUSH1 0x40 MSTORE POP POP POP JUMP JUMPDEST PUSH0 PUSH2 0x2E5E PUSH2 0x27C4 JUMP JUMPDEST SWAP1 POP PUSH2 0x2E6A DUP3 DUP3 PUSH2 0x2E24 JUMP JUMPDEST SWAP2 SWAP1 POP JUMP JUMPDEST PUSH0 PUSH8 0xFFFFFFFFFFFFFFFF DUP3 GT ISZERO PUSH2 0x2E89 JUMPI PUSH2 0x2E88 PUSH2 0x2DF7 JUMP JUMPDEST JUMPDEST PUSH2 0x2E92 DUP3 PUSH2 0x28B0 JUMP JUMPDEST SWAP1 POP PUSH1 0x20 DUP2 ADD SWAP1 POP SWAP2 SWAP1 POP JUMP JUMPDEST DUP3 DUP2 DUP4 CALLDATACOPY PUSH0 DUP4 DUP4 ADD MSTORE POP POP POP JUMP JUMPDEST PUSH0 PUSH2 0x2EBF PUSH2 0x2EBA DUP5 PUSH2 0x2E6F JUMP JUMPDEST PUSH2 0x2E55 JUMP JUMPDEST SWAP1 POP DUP3 DUP2 MSTORE PUSH1 0x20 DUP2 ADD DUP5 DUP5 DUP5 ADD GT ISZERO PUSH2 0x2EDB JUMPI PUSH2 0x2EDA PUSH2 0x2DF3 JUMP JUMPDEST JUMPDEST PUSH2 0x2EE6 DUP5 DUP3 DUP6 PUSH2 0x2E9F JUMP JUMPDEST POP SWAP4 SWAP3 POP POP POP JUMP JUMPDEST PUSH0 DUP3 PUSH1 0x1F DUP4 ADD SLT PUSH2 0x2F02 JUMPI PUSH2 0x2F01 PUSH2 0x2AD8 JUMP JUMPDEST JUMPDEST DUP2 CALLDATALOAD PUSH2 0x2F12 DUP5 DUP3 PUSH1 0x20 DUP7 ADD PUSH2 0x2EAD JUMP JUMPDEST SWAP2 POP POP SWAP3 SWAP2 POP POP JUMP JUMPDEST PUSH0 PUSH0 PUSH0 PUSH0 PUSH1 0x80 DUP6 DUP8 SUB SLT ISZERO PUSH2 0x2F33 JUMPI PUSH2 0x2F32 PUSH2 0x27CD JUMP JUMPDEST JUMPDEST PUSH0 PUSH2 0x2F40 DUP8 DUP3 DUP9 ADD PUSH2 0x29E4 JUMP JUMPDEST SWAP5 POP POP PUSH1 0x20 PUSH2 0x2F51 DUP8 DUP3 DUP9 ADD PUSH2 0x29E4 JUMP JUMPDEST SWAP4 POP POP PUSH1 0x40 PUSH2 0x2F62 DUP8 DUP3 DUP9 ADD PUSH2 0x2937 JUMP JUMPDEST SWAP3 POP POP PUSH1 0x60 DUP6 ADD CALLDATALOAD PUSH8 0xFFFFFFFFFFFFFFFF DUP2 GT ISZERO PUSH2 0x2F83 JUMPI PUSH2 0x2F82 PUSH2 0x27D1 JUMP JUMPDEST JUMPDEST PUSH2 0x2F8F DUP8 DUP3 DUP9 ADD PUSH2 0x2EEE JUMP JUMPDEST SWAP2 POP POP SWAP3 SWAP6 SWAP2 SWAP5 POP SWAP3 POP JUMP JUMPDEST PUSH0 PUSH0 PUSH1 0x40 DUP4 DUP6 SUB SLT ISZERO PUSH2 0x2FB1 JUMPI PUSH2 0x2FB0 PUSH2 0x27CD JUMP JUMPDEST JUMPDEST PUSH0 PUSH2 0x2FBE DUP6 DUP3 DUP7 ADD PUSH2 0x29E4 JUMP JUMPDEST SWAP3 POP POP PUSH1 0x20 PUSH2 0x2FCF DUP6 DUP3 DUP7 ADD PUSH2 0x29E4 JUMP JUMPDEST SWAP2 POP POP SWAP3 POP SWAP3 SWAP1 POP JUMP JUMPDEST PUSH32 0x4E487B7100000000000000000000000000000000000000000000000000000000 PUSH0 MSTORE PUSH1 0x22 PUSH1 0x4 MSTORE PUSH1 0x24 PUSH0 REVERT JUMPDEST PUSH0 PUSH1 0x2 DUP3 DIV SWAP1 POP PUSH1 0x1 DUP3 AND DUP1 PUSH2 0x301D JUMPI PUSH1 0x7F DUP3 AND SWAP2 POP JUMPDEST PUSH1 0x20 DUP3 LT DUP2 SUB PUSH2 0x3030 JUMPI PUSH2 0x302F PUSH2 0x2FD9 JUMP JUMPDEST JUMPDEST POP SWAP2 SWAP1 POP JUMP JUMPDEST PUSH0 PUSH1 0x60 DUP3 ADD SWAP1 POP PUSH2 0x3049 PUSH0 DUP4 ADD DUP7 PUSH2 0x29A6 JUMP JUMPDEST PUSH2 0x3056 PUSH1 0x20 DUP4 ADD DUP6 PUSH2 0x2A36 JUMP JUMPDEST PUSH2 0x3063 PUSH1 0x40 DUP4 ADD DUP5 PUSH2 0x29A6 JUMP JUMPDEST SWAP5 SWAP4 POP POP POP POP JUMP JUMPDEST PUSH32 0x4E487B7100000000000000000000000000000000000000000000000000000000 PUSH0 MSTORE PUSH1 0x11 PUSH1 0x4 MSTORE PUSH1 0x24 PUSH0 REVERT JUMPDEST PUSH0 PUSH2 0x30A2 DUP3 PUSH2 0x2918 JUMP JUMPDEST SWAP2 POP PUSH2 0x30AD DUP4 PUSH2 0x2918 JUMP JUMPDEST SWAP3 POP DUP3 DUP3 ADD SWAP1 POP DUP1 DUP3 GT ISZERO PUSH2 0x30C5 JUMPI PUSH2 0x30C4 PUSH2 0x306B JUMP JUMPDEST JUMPDEST SWAP3 SWAP2 POP POP JUMP JUMPDEST PUSH0 DUP2 MLOAD SWAP1 POP PUSH2 0x30D9 DUP2 PUSH2 0x2921 JUMP JUMPDEST SWAP3 SWAP2 POP POP JUMP JUMPDEST PUSH0 PUSH1 0x20 DUP3 DUP5 SUB SLT ISZERO PUSH2 0x30F4 JUMPI PUSH2 0x30F3 PUSH2 0x27CD JUMP JUMPDEST JUMPDEST PUSH0 PUSH2 0x3101 DUP5 DUP3 DUP6 ADD PUSH2 0x30CB JUMP JUMPDEST SWAP2 POP POP SWAP3 SWAP2 POP POP JUMP JUMPDEST PUSH0 PUSH1 0x40 DUP3 ADD SWAP1 POP PUSH2 0x311D PUSH0 DUP4 ADD DUP6 PUSH2 0x29A6 JUMP JUMPDEST PUSH2 0x312A PUSH1 0x20 DUP4 ADD DUP5 PUSH2 0x2A36 JUMP JUMPDEST SWAP4 SWAP3 POP POP POP JUMP JUMPDEST PUSH0 DUP2 MLOAD SWAP1 POP PUSH2 0x313F DUP2 PUSH2 0x2D17 JUMP JUMPDEST SWAP3 SWAP2 POP POP JUMP JUMPDEST PUSH0 PUSH1 0x20 DUP3 DUP5 SUB SLT ISZERO PUSH2 0x315A JUMPI PUSH2 0x3159 PUSH2 0x27CD JUMP JUMPDEST JUMPDEST PUSH0 PUSH2 0x3167 DUP5 DUP3 DUP6 ADD PUSH2 0x3131 JUMP JUMPDEST SWAP2 POP POP SWAP3 SWAP2 POP POP JUMP JUMPDEST PUSH32 0x53656E6420656E6F7567682045544820666F72206174206C65617374206F6E65 PUSH0 DUP3 ADD MSTORE PUSH32 0x204E465400000000000000000000000000000000000000000000000000000000 PUSH1 0x20 DUP3 ADD MSTORE POP JUMP JUMPDEST PUSH0 PUSH2 0x31CA PUSH1 0x24 DUP4 PUSH2 0x2892 JUMP JUMPDEST SWAP2 POP PUSH2 0x31D5 DUP3 PUSH2 0x3170 JUMP JUMPDEST PUSH1 0x40 DUP3 ADD SWAP1 POP SWAP2 SWAP1 POP JUMP JUMPDEST PUSH0 PUSH1 0x20 DUP3 ADD SWAP1 POP DUP2 DUP2 SUB PUSH0 DUP4 ADD MSTORE PUSH2 0x31F7 DUP2 PUSH2 0x31BE JUMP JUMPDEST SWAP1 POP SWAP2 SWAP1 POP JUMP JUMPDEST PUSH32 0x4E487B7100000000000000000000000000000000000000000000000000000000 PUSH0 MSTORE PUSH1 0x12 PUSH1 0x4 MSTORE PUSH1 0x24 PUSH0 REVERT JUMPDEST PUSH0 PUSH2 0x3235 DUP3 PUSH2 0x2918 JUMP JUMPDEST SWAP2 POP PUSH2 0x3240 DUP4 PUSH2 0x2918 JUMP JUMPDEST SWAP3 POP DUP3 PUSH2 0x3250 JUMPI PUSH2 0x324F PUSH2 0x31FE JUMP JUMPDEST JUMPDEST DUP3 DUP3 DIV SWAP1 POP SWAP3 SWAP2 POP POP JUMP JUMPDEST PUSH0 PUSH2 0x3265 DUP3 PUSH2 0x2918 JUMP JUMPDEST SWAP2 POP PUSH2 0x3270 DUP4 PUSH2 0x2918 JUMP JUMPDEST SWAP3 POP DUP3 DUP3 MUL PUSH2 0x327E DUP2 PUSH2 0x2918 JUMP JUMPDEST SWAP2 POP DUP3 DUP3 DIV DUP5 EQ DUP4 ISZERO OR PUSH2 0x3295 JUMPI PUSH2 0x3294 PUSH2 0x306B JUMP JUMPDEST JUMPDEST POP SWAP3 SWAP2 POP POP JUMP JUMPDEST PUSH0 PUSH2 0x32A6 DUP3 PUSH2 0x2918 JUMP JUMPDEST SWAP2 POP PUSH2 0x32B1 DUP4 PUSH2 0x2918 JUMP JUMPDEST SWAP3 POP DUP3 DUP3 SUB SWAP1 POP DUP2 DUP2 GT ISZERO PUSH2 0x32C9 JUMPI PUSH2 0x32C8 PUSH2 0x306B JUMP JUMPDEST JUMPDEST SWAP3 SWAP2 POP POP JUMP JUMPDEST PUSH32 0x496E76616C696420726172697479204944000000000000000000000000000000 PUSH0 DUP3 ADD MSTORE POP JUMP JUMPDEST PUSH0 PUSH2 0x3303 PUSH1 0x11 DUP4 PUSH2 0x2892 JUMP JUMPDEST SWAP2 POP PUSH2 0x330E DUP3 PUSH2 0x32CF JUMP JUMPDEST PUSH1 0x20 DUP3 ADD SWAP1 POP SWAP2 SWAP1 POP JUMP JUMPDEST PUSH0 PUSH1 0x20 DUP3 ADD SWAP1 POP DUP2 DUP2 SUB PUSH0 DUP4 ADD MSTORE PUSH2 0x3330 DUP2 PUSH2 0x32F7 JUMP JUMPDEST SWAP1 POP SWAP2 SWAP1 POP JUMP JUMPDEST PUSH32 0x4E487B7100000000000000000000000000000000000000000000000000000000 PUSH0 MSTORE PUSH1 0x32 PUSH1 0x4 MSTORE PUSH1 0x24 PUSH0 REVERT JUMPDEST PUSH0 DUP3 SWAP1 POP SWAP3 SWAP2 POP POP JUMP JUMPDEST PUSH0 DUP2 SWAP1 POP DUP2 PUSH0 MSTORE PUSH1 0x20 PUSH0 KECCAK256 SWAP1 POP SWAP2 SWAP1 POP JUMP JUMPDEST PUSH0 PUSH1 0x20 PUSH1 0x1F DUP4 ADD DIV SWAP1 POP SWAP2 SWAP1 POP JUMP JUMPDEST PUSH0 DUP3 DUP3 SHL SWAP1 POP SWAP3 SWAP2 POP POP JUMP JUMPDEST PUSH0 PUSH1 0x8 DUP4 MUL PUSH2 0x33CA PUSH32 0xFFFFFFFFFFFFFFFFFFFFFFFFFFFFFFFFFFFFFFFFFFFFFFFFFFFFFFFFFFFFFFFF DUP3 PUSH2 0x338F JUMP JUMPDEST PUSH2 0x33D4 DUP7 DUP4 PUSH2 0x338F JUMP JUMPDEST SWAP6 POP DUP1 NOT DUP5 AND SWAP4 POP DUP1 DUP7 AND DUP5 OR SWAP3 POP POP POP SWAP4 SWAP3 POP POP POP JUMP JUMPDEST PUSH0 PUSH2 0x3406 PUSH2 0x3401 PUSH2 0x33FC DUP5 PUSH2 0x2918 JUMP JUMPDEST PUSH2 0x2D7F JUMP JUMPDEST PUSH2 0x2918 JUMP JUMPDEST SWAP1 POP SWAP2 SWAP1 POP JUMP JUMPDEST PUSH0 DUP2 SWAP1 POP SWAP2 SWAP1 POP JUMP JUMPDEST PUSH2 0x341F DUP4 PUSH2 0x33EC JUMP JUMPDEST PUSH2 0x3433 PUSH2 0x342B DUP3 PUSH2 0x340D JUMP JUMPDEST DUP5 DUP5 SLOAD PUSH2 0x339B JUMP JUMPDEST DUP3 SSTORE POP POP POP POP JUMP JUMPDEST PUSH0 PUSH0 SWAP1 POP SWAP1 JUMP JUMPDEST PUSH2 0x344A PUSH2 0x343B JUMP JUMPDEST PUSH2 0x3455 DUP2 DUP5 DUP5 PUSH2 0x3416 JUMP JUMPDEST POP POP POP JUMP JUMPDEST JUMPDEST DUP2 DUP2 LT ISZERO PUSH2 0x3478 JUMPI PUSH2 0x346D PUSH0 DUP3 PUSH2 0x3442 JUMP JUMPDEST PUSH1 0x1 DUP2 ADD SWAP1 POP PUSH2 0x345B JUMP JUMPDEST POP POP JUMP JUMPDEST PUSH1 0x1F DUP3 GT ISZERO PUSH2 0x34BD JUMPI PUSH2 0x348E DUP2 PUSH2 0x336E JUMP JUMPDEST PUSH2 0x3497 DUP5 PUSH2 0x3380 JUMP JUMPDEST DUP2 ADD PUSH1 0x20 DUP6 LT ISZERO PUSH2 0x34A6 JUMPI DUP2 SWAP1 POP JUMPDEST PUSH2 0x34BA PUSH2 0x34B2 DUP6 PUSH2 0x3380 JUMP JUMPDEST DUP4 ADD DUP3 PUSH2 0x345A JUMP JUMPDEST POP POP JUMPDEST POP POP POP JUMP JUMPDEST PUSH0 DUP3 DUP3 SHR SWAP1 POP SWAP3 SWAP2 POP POP JUMP JUMPDEST PUSH0 PUSH2 0x34DD PUSH0 NOT DUP5 PUSH1 0x8 MUL PUSH2 0x34C2 JUMP JUMPDEST NOT DUP1 DUP4 AND SWAP2 POP POP SWAP3 SWAP2 POP POP JUMP JUMPDEST PUSH0 PUSH2 0x34F5 DUP4 DUP4 PUSH2 0x34CE JUMP JUMPDEST SWAP2 POP DUP3 PUSH1 0x2 MUL DUP3 OR SWAP1 POP SWAP3 SWAP2 POP POP JUMP JUMPDEST PUSH2 0x350F DUP4 DUP4 PUSH2 0x3364 JUMP JUMPDEST PUSH8 0xFFFFFFFFFFFFFFFF DUP2 GT ISZERO PUSH2 0x3528 JUMPI PUSH2 0x3527 PUSH2 0x2DF7 JUMP JUMPDEST JUMPDEST PUSH2 0x3532 DUP3 SLOAD PUSH2 0x3006 JUMP JUMPDEST PUSH2 0x353D DUP3 DUP3 DUP6 PUSH2 0x347C JUMP JUMPDEST PUSH0 PUSH1 0x1F DUP4 GT PUSH1 0x1 DUP2 EQ PUSH2 0x356A JUMPI PUSH0 DUP5 ISZERO PUSH2 0x3558 JUMPI DUP3 DUP8 ADD CALLDATALOAD SWAP1 POP JUMPDEST PUSH2 0x3562 DUP6 DUP3 PUSH2 0x34EA JUMP JUMPDEST DUP7 SSTORE POP PUSH2 0x35C9 JUMP JUMPDEST PUSH1 0x1F NOT DUP5 AND PUSH2 0x3578 DUP7 PUSH2 0x336E JUMP JUMPDEST PUSH0 JUMPDEST DUP3 DUP2 LT ISZERO PUSH2 0x359F JUMPI DUP5 DUP10 ADD CALLDATALOAD DUP3 SSTORE PUSH1 0x1 DUP3 ADD SWAP2 POP PUSH1 0x20 DUP6 ADD SWAP5 POP PUSH1 0x20 DUP2 ADD SWAP1 POP PUSH2 0x357A JUMP JUMPDEST DUP7 DUP4 LT ISZERO PUSH2 0x35BC JUMPI DUP5 DUP10 ADD CALLDATALOAD PUSH2 0x35B8 PUSH1 0x1F DUP10 AND DUP3 PUSH2 0x34CE JUMP JUMPDEST DUP4 SSTORE POP JUMPDEST PUSH1 0x1 PUSH1 0x2 DUP9 MUL ADD DUP9 SSTORE POP POP POP JUMPDEST POP POP POP POP POP POP POP JUMP JUMPDEST PUSH0 PUSH2 0x35DD DUP4 DUP6 PUSH2 0x2892 JUMP JUMPDEST SWAP4 POP PUSH2 0x35EA DUP4 DUP6 DUP5 PUSH2 0x2E9F JUMP JUMPDEST PUSH2 0x35F3 DUP4 PUSH2 0x28B0 JUMP JUMPDEST DUP5 ADD SWAP1 POP SWAP4 SWAP3 POP POP POP JUMP JUMPDEST PUSH0 PUSH1 0x60 DUP3 ADD SWAP1 POP DUP2 DUP2 SUB PUSH0 DUP4 ADD MSTORE PUSH2 0x3617 DUP2 DUP8 DUP10 PUSH2 0x35D2 JUMP JUMPDEST SWAP1 POP PUSH2 0x3626 PUSH1 0x20 DUP4 ADD DUP7 PUSH2 0x2A36 JUMP JUMPDEST DUP2 DUP2 SUB PUSH1 0x40 DUP4 ADD MSTORE PUSH2 0x3639 DUP2 DUP5 DUP7 PUSH2 0x35D2 JUMP JUMPDEST SWAP1 POP SWAP7 SWAP6 POP POP POP POP POP POP JUMP JUMPDEST PUSH32 0x53656E6420656E6F756768205553445420666F72206174206C65617374206F6E PUSH0 DUP3 ADD MSTORE PUSH32 0x65204E4654000000000000000000000000000000000000000000000000000000 PUSH1 0x20 DUP3 ADD MSTORE POP JUMP JUMPDEST PUSH0 PUSH2 0x369F PUSH1 0x25 DUP4 PUSH2 0x2892 JUMP JUMPDEST SWAP2 POP PUSH2 0x36AA DUP3 PUSH2 0x3645 JUMP JUMPDEST PUSH1 0x40 DUP3 ADD SWAP1 POP SWAP2 SWAP1 POP JUMP JUMPDEST PUSH0 PUSH1 0x20 DUP3 ADD SWAP1 POP DUP2 DUP2 SUB PUSH0 DUP4 ADD MSTORE PUSH2 0x36CC DUP2 PUSH2 0x3693 JUMP JUMPDEST SWAP1 POP SWAP2 SWAP1 POP JUMP JUMPDEST PUSH0 PUSH1 0x60 DUP3 ADD SWAP1 POP PUSH2 0x36E6 PUSH0 DUP4 ADD DUP7 PUSH2 0x29A6 JUMP JUMPDEST PUSH2 0x36F3 PUSH1 0x20 DUP4 ADD DUP6 PUSH2 0x29A6 JUMP JUMPDEST PUSH2 0x3700 PUSH1 0x40 DUP4 ADD DUP5 PUSH2 0x2A36 JUMP JUMPDEST SWAP5 SWAP4 POP POP POP POP JUMP JUMPDEST PUSH32 0x55534454207061796D656E74206661696C656400000000000000000000000000 PUSH0 DUP3 ADD MSTORE POP JUMP JUMPDEST PUSH0 PUSH2 0x373C PUSH1 0x13 DUP4 PUSH2 0x2892 JUMP JUMPDEST SWAP2 POP PUSH2 0x3747 DUP3 PUSH2 0x3708 JUMP JUMPDEST PUSH1 0x20 DUP3 ADD SWAP1 POP SWAP2 SWAP1 POP JUMP JUMPDEST PUSH0 PUSH1 0x20 DUP3 ADD SWAP1 POP DUP2 DUP2 SUB PUSH0 DUP4 ADD MSTORE PUSH2 0x3769 DUP2 PUSH2 0x3730 JUMP JUMPDEST SWAP1 POP SWAP2 SWAP1 POP JUMP JUMPDEST PUSH32 0x4552433732314D657461646174613A206E6F6E6578697374656E7420746F6B65 PUSH0 DUP3 ADD MSTORE PUSH32 0x6E00000000000000000000000000000000000000000000000000000000000000 PUSH1 0x20 DUP3 ADD MSTORE POP JUMP JUMPDEST PUSH0 PUSH2 0x37CA PUSH1 0x21 DUP4 PUSH2 0x2892 JUMP JUMPDEST SWAP2 POP PUSH2 0x37D5 DUP3 PUSH2 0x3770 JUMP JUMPDEST PUSH1 0x40 DUP3 ADD SWAP1 POP SWAP2 SWAP1 POP JUMP JUMPDEST PUSH0 PUSH1 0x20 DUP3 ADD SWAP1 POP DUP2 DUP2 SUB PUSH0 DUP4 ADD MSTORE PUSH2 0x37F7 DUP2 PUSH2 0x37BE JUMP JUMPDEST SWAP1 POP SWAP2 SWAP1 POP JUMP JUMPDEST PUSH2 0x3807 DUP3 PUSH2 0x2888 JUMP JUMPDEST PUSH8 0xFFFFFFFFFFFFFFFF DUP2 GT ISZERO PUSH2 0x3820 JUMPI PUSH2 0x381F PUSH2 0x2DF7 JUMP JUMPDEST JUMPDEST PUSH2 0x382A DUP3 SLOAD PUSH2 0x3006 JUMP JUMPDEST PUSH2 0x3835 DUP3 DUP3 DUP6 PUSH2 0x347C JUMP JUMPDEST PUSH0 PUSH1 0x20 SWAP1 POP PUSH1 0x1F DUP4 GT PUSH1 0x1 DUP2 EQ PUSH2 0x3866 JUMPI PUSH0 DUP5 ISZERO PUSH2 0x3854 JUMPI DUP3 DUP8 ADD MLOAD SWAP1 POP JUMPDEST PUSH2 0x385E DUP6 DUP3 PUSH2 0x34EA JUMP JUMPDEST DUP7 SSTORE POP PUSH2 0x38C5 JUMP JUMPDEST PUSH1 0x1F NOT DUP5 AND PUSH2 0x3874 DUP7 PUSH2 0x336E JUMP JUMPDEST PUSH0 JUMPDEST DUP3 DUP2 LT ISZERO PUSH2 0x389B JUMPI DUP5 DUP10 ADD MLOAD DUP3 SSTORE PUSH1 0x1 DUP3 ADD SWAP2 POP PUSH1 0x20 DUP6 ADD SWAP5 POP PUSH1 0x20 DUP2 ADD SWAP1 POP PUSH2 0x3876 JUMP JUMPDEST DUP7 DUP4 LT ISZERO PUSH2 0x38B8 JUMPI DUP5 DUP10 ADD MLOAD PUSH2 0x38B4 PUSH1 0x1F DUP10 AND DUP3 PUSH2 0x34CE JUMP JUMPDEST DUP4 SSTORE POP JUMPDEST PUSH1 0x1 PUSH1 0x2 DUP9 MUL ADD DUP9 SSTORE POP POP POP JUMPDEST POP POP POP POP POP POP JUMP JUMPDEST PUSH0 PUSH1 0x40 DUP3 ADD SWAP1 POP PUSH2 0x38E0 PUSH0 DUP4 ADD DUP6 PUSH2 0x2A36 JUMP JUMPDEST PUSH2 0x38ED PUSH1 0x20 DUP4 ADD DUP5 PUSH2 0x2A36 JUMP JUMPDEST SWAP4 SWAP3 POP POP POP JUMP JUMPDEST PUSH0 DUP2 SWAP1 POP SWAP3 SWAP2 POP POP JUMP JUMPDEST POP JUMP JUMPDEST PUSH0 PUSH2 0x390C PUSH0 DUP4 PUSH2 0x38F4 JUMP JUMPDEST SWAP2 POP PUSH2 0x3917 DUP3 PUSH2 0x38FE JUMP JUMPDEST PUSH0 DUP3 ADD SWAP1 POP SWAP2 SWAP1 POP JUMP JUMPDEST PUSH0 PUSH2 0x392B DUP3 PUSH2 0x3901 JUMP JUMPDEST SWAP2 POP DUP2 SWAP1 POP SWAP2 SWAP1 POP JUMP JUMPDEST PUSH0 PUSH2 0x393F DUP3 PUSH2 0x2918 JUMP JUMPDEST SWAP2 POP PUSH32 0xFFFFFFFFFFFFFFFFFFFFFFFFFFFFFFFFFFFFFFFFFFFFFFFFFFFFFFFFFFFFFFFF DUP3 SUB PUSH2 0x3971 JUMPI PUSH2 0x3970 PUSH2 0x306B JUMP JUMPDEST JUMPDEST PUSH1 0x1 DUP3 ADD SWAP1 POP SWAP2 SWAP1 POP JUMP JUMPDEST PUSH0 PUSH2 0x3986 DUP3 PUSH2 0x2918 JUMP JUMPDEST SWAP2 POP PUSH2 0x3991 DUP4 PUSH2 0x2918 JUMP JUMPDEST SWAP3 POP DUP3 PUSH2 0x39A1 JUMPI PUSH2 0x39A0 PUSH2 0x31FE JUMP JUMPDEST JUMPDEST DUP3 DUP3 MOD SWAP1 POP SWAP3 SWAP2 POP POP JUMP JUMPDEST PUSH0 DUP2 SLOAD PUSH2 0x39B8 DUP2 PUSH2 0x3006 JUMP JUMPDEST PUSH2 0x39C2 DUP2 DUP7 PUSH2 0x2892 JUMP JUMPDEST SWAP5 POP PUSH1 0x1 DUP3 AND PUSH0 DUP2 EQ PUSH2 0x39DC JUMPI PUSH1 0x1 DUP2 EQ PUSH2 0x39F2 JUMPI PUSH2 0x3A24 JUMP JUMPDEST PUSH1 0xFF NOT DUP4 AND DUP7 MSTORE DUP2 ISZERO ISZERO PUSH1 0x20 MUL DUP7 ADD SWAP4 POP PUSH2 0x3A24 JUMP JUMPDEST PUSH2 0x39FB DUP6 PUSH2 0x336E JUMP JUMPDEST PUSH0 JUMPDEST DUP4 DUP2 LT ISZERO PUSH2 0x3A1C JUMPI DUP2 SLOAD DUP2 DUP10 ADD MSTORE PUSH1 0x1 DUP3 ADD SWAP2 POP PUSH1 0x20 DUP2 ADD SWAP1 POP PUSH2 0x39FD JUMP JUMPDEST DUP1 DUP9 ADD SWAP6 POP POP POP JUMPDEST POP POP POP SWAP3 SWAP2 POP POP JUMP JUMPDEST PUSH0 PUSH1 0x40 DUP3 ADD SWAP1 POP DUP2 DUP2 SUB PUSH0 DUP4 ADD MSTORE PUSH2 0x3A45 DUP2 DUP6 PUSH2 0x39AC JUMP JUMPDEST SWAP1 POP PUSH2 0x3A54 PUSH1 0x20 DUP4 ADD DUP5 PUSH2 0x2860 JUMP JUMPDEST SWAP4 SWAP3 POP POP POP JUMP JUMPDEST PUSH0 DUP2 MLOAD SWAP1 POP SWAP2 SWAP1 POP JUMP JUMPDEST PUSH0 DUP3 DUP3 MSTORE PUSH1 0x20 DUP3 ADD SWAP1 POP SWAP3 SWAP2 POP POP JUMP JUMPDEST PUSH0 PUSH2 0x3A7F DUP3 PUSH2 0x3A5B JUMP JUMPDEST PUSH2 0x3A89 DUP2 DUP6 PUSH2 0x3A65 JUMP JUMPDEST SWAP4 POP PUSH2 0x3A99 DUP2 DUP6 PUSH1 0x20 DUP7 ADD PUSH2 0x28A2 JUMP JUMPDEST PUSH2 0x3AA2 DUP2 PUSH2 0x28B0 JUMP JUMPDEST DUP5 ADD SWAP2 POP POP SWAP3 SWAP2 POP POP JUMP JUMPDEST PUSH0 PUSH1 0x80 DUP3 ADD SWAP1 POP PUSH2 0x3AC0 PUSH0 DUP4 ADD DUP8 PUSH2 0x29A6 JUMP JUMPDEST PUSH2 0x3ACD PUSH1 0x20 DUP4 ADD DUP7 PUSH2 0x29A6 JUMP JUMPDEST PUSH2 0x3ADA PUSH1 0x40 DUP4 ADD DUP6 PUSH2 0x2A36 JUMP JUMPDEST DUP2 DUP2 SUB PUSH1 0x60 DUP4 ADD MSTORE PUSH2 0x3AEC DUP2 DUP5 PUSH2 0x3A75 JUMP JUMPDEST SWAP1 POP SWAP6 SWAP5 POP POP POP POP POP JUMP JUMPDEST PUSH0 DUP2 MLOAD SWAP1 POP PUSH2 0x3B05 DUP2 PUSH2 0x2800 JUMP JUMPDEST SWAP3 SWAP2 POP POP JUMP JUMPDEST PUSH0 PUSH1 0x20 DUP3 DUP5 SUB SLT ISZERO PUSH2 0x3B20 JUMPI PUSH2 0x3B1F PUSH2 0x27CD JUMP JUMPDEST JUMPDEST PUSH0 PUSH2 0x3B2D DUP5 DUP3 DUP6 ADD PUSH2 0x3AF7 JUMP JUMPDEST SWAP2 POP POP SWAP3 SWAP2 POP POP JUMP JUMPDEST PUSH0 DUP2 SWAP1 POP SWAP2 SWAP1 POP JUMP JUMPDEST PUSH2 0x3B50 PUSH2 0x3B4B DUP3 PUSH2 0x2918 JUMP JUMPDEST PUSH2 0x3B36 JUMP JUMPDEST DUP3 MSTORE POP POP JUMP JUMPDEST PUSH0 DUP2 PUSH1 0x60 SHL SWAP1 POP SWAP2 SWAP1 POP JUMP JUMPDEST PUSH0 PUSH2 0x3B6C DUP3 PUSH2 0x3B56 JUMP JUMPDEST SWAP1 POP SWAP2 SWAP1 POP JUMP JUMPDEST PUSH0 PUSH2 0x3B7D DUP3 PUSH2 0x3B62 JUMP JUMPDEST SWAP1 POP SWAP2 SWAP1 POP JUMP JUMPDEST PUSH2 0x3B95 PUSH2 0x3B90 DUP3 PUSH2 0x2995 JUMP JUMPDEST PUSH2 0x3B73 JUMP JUMPDEST DUP3 MSTORE POP POP JUMP JUMPDEST PUSH0 PUSH2 0x3BA6 DUP3 DUP8 PUSH2 0x3B3F JUMP JUMPDEST PUSH1 0x20 DUP3 ADD SWAP2 POP PUSH2 0x3BB6 DUP3 DUP7 PUSH2 0x3B3F JUMP JUMPDEST PUSH1 0x20 DUP3 ADD SWAP2 POP PUSH2 0x3BC6 DUP3 DUP6 PUSH2 0x3B3F JUMP JUMPDEST PUSH1 0x20 DUP3 ADD SWAP2 POP PUSH2 0x3BD6 DUP3 DUP5 PUSH2 0x3B84 JUMP JUMPDEST PUSH1 0x14 DUP3 ADD SWAP2 POP DUP2 SWAP1 POP SWAP6 SWAP5 POP POP POP POP POP JUMP INVALID LOG2 PUSH5 0x6970667358 0x22 SLT KECCAK256 RETURNDATACOPY 0xC6 PUSH9 0x9D734BB72720A4F406 ADDMOD CALLDATACOPY 0xB4 SWAP11 0x21 MLOAD DIV LT 0xD4 NUMBER STOP 0xBF SHL PUSH29 0xBB03103D70C864736F6C634300081D0033697066733A2F2F6261667962 PUSH6 0x69686A6D3576 PUSH8 0x32746C7173793435 PUSH14 0x6C3634746C79777A67616E757078 PUSH25 0x7674726D73707A7569323677687A6B76623675346C792F6C65 PUSH8 0x656E646172792E70 PUSH15 0x67697066733A2F2F62616679626569 PUSH9 0x6A6D35766732746C71 PUSH20 0x7934356D6C3634746C79777A67616E7570787876 PUSH21 0x726D73707A7569323677687A6B76623675346C792F PUSH6 0x7069632E706E PUSH8 0x697066733A2F2F62 PUSH2 0x6679 PUSH3 0x656968 PUSH11 0x6D35766732746C71737934 CALLDATALOAD PUSH14 0x6C3634746C79777A67616E757078 PUSH25 0x7674726D73707A7569323677687A6B76623675346C792F636F PUSH14 0x6D6F6E2E706E67697066733A2F2F PUSH3 0x616679 PUSH3 0x656968 PUSH11 0x6D35766732746C71737934 CALLDATALOAD PUSH14 0x6C3634746C79777A67616E757078 PUSH25 0x7674726D73707A7569323677687A6B76623675346C792F7261 PUSH19 0x652E706E67697066733A2F2F62616679626569 PUSH9 0x6A6D35766732746C71 PUSH20 0x7934356D6C3634746C79777A67616E7570787876 PUSH21 0x726D73707A7569323677687A6B76623675346C792F PUSH14 0x79746869632E706E670000000000 "
		},
		"gasEstimates": {
			"creation": {
				"codeDepositCost": "3078000",
				"executionCost": "infinite",
				"totalCost": "infinite"
			},
			"external": {
				"MINT_PRICE_ETH()": "371",
				"MINT_PRICE_USDT()": "371",
				"addRarity(string,uint256,string)": "infinite",
				"approve(address,uint256)": "infinite",
				"balanceOf(address)": "infinite",
				"cooldownEndTimestamp(uint256)": "infinite",
				"getApproved(uint256)": "infinite",
				"getRarityName(uint256)": "infinite",
				"isApprovedForAll(address,address)": "infinite",
				"isOnCooldown(uint256)": "2848",
				"mintWithETH()": "infinite",
				"mintWithUSDT(uint256)": "infinite",
				"name()": "infinite",
				"owner()": "2605",
				"ownerOf(uint256)": "infinite",
				"rarities(uint256)": "infinite",
				"renounceOwnership()": "infinite",
				"safeTransferFrom(address,address,uint256)": "infinite",
				"safeTransferFrom(address,address,uint256,bytes)": "infinite",
				"setApprovalForAll(address,bool)": "infinite",
				"setCooldown(uint256)": "infinite",
				"supportsInterface(bytes4)": "810",
				"symbol()": "infinite",
				"tokenIdCounter()": "2514",
				"tokenRarity(uint256)": "infinite",
				"tokenURI(uint256)": "infinite",
				"totalWeight()": "2492",
				"transferFrom(address,address,uint256)": "infinite",
				"transferOwnership(address)": "infinite",
				"updateRarity(uint256,string,uint256,string)": "infinite",
				"usdtToken()": "infinite",
				"withdrawETH(address)": "infinite",
				"withdrawUSDT(address)": "infinite"
			},
			"internal": {
				"_addRarity(string memory,uint256,string memory)": "infinite",
				"_performMint(address,bool)": "infinite",
				"_pseudoRandom(uint256,address)": "infinite"
			}
		},
		"methodIdentifiers": {
			"MINT_PRICE_ETH()": "4aa82d6d",
			"MINT_PRICE_USDT()": "80e3204e",
			"addRarity(string,uint256,string)": "43171178",
			"approve(address,uint256)": "095ea7b3",
			"balanceOf(address)": "70a08231",
			"cooldownEndTimestamp(uint256)": "6efd7f33",
			"getApproved(uint256)": "081812fc",
			"getRarityName(uint256)": "fe130072",
			"isApprovedForAll(address,address)": "e985e9c5",
			"isOnCooldown(uint256)": "8bf7f484",
			"mintWithETH()": "8f2aef5b",
			"mintWithUSDT(uint256)": "c156bbbd",
			"name()": "06fdde03",
			"owner()": "8da5cb5b",
			"ownerOf(uint256)": "6352211e",
			"rarities(uint256)": "17b8e1cf",
			"renounceOwnership()": "715018a6",
			"safeTransferFrom(address,address,uint256)": "42842e0e",
			"safeTransferFrom(address,address,uint256,bytes)": "b88d4fde",
			"setApprovalForAll(address,bool)": "a22cb465",
			"setCooldown(uint256)": "4fc3f41a",
			"supportsInterface(bytes4)": "01ffc9a7",
			"symbol()": "95d89b41",
			"tokenIdCounter()": "98bdf6f5",
			"tokenRarity(uint256)": "afb0a369",
			"tokenURI(uint256)": "c87b56dd",
			"totalWeight()": "96c82e57",
			"transferFrom(address,address,uint256)": "23b872dd",
			"transferOwnership(address)": "f2fde38b",
			"updateRarity(uint256,string,uint256,string)": "9d2a74b8",
			"usdtToken()": "a98ad46c",
			"withdrawETH(address)": "690d8320",
			"withdrawUSDT(address)": "59db80f8"
		}
	},
	"abi": [
		{
			"inputs": [
				{
					"internalType": "address",
					"name": "_usdtToken",
					"type": "address"
				}
			],
			"stateMutability": "nonpayable",
			"type": "constructor"
		},
		{
			"inputs": [
				{
					"internalType": "address",
					"name": "sender",
					"type": "address"
				},
				{
					"internalType": "uint256",
					"name": "tokenId",
					"type": "uint256"
				},
				{
					"internalType": "address",
					"name": "owner",
					"type": "address"
				}
			],
			"name": "ERC721IncorrectOwner",
			"type": "error"
		},
		{
			"inputs": [
				{
					"internalType": "address",
					"name": "operator",
					"type": "address"
				},
				{
					"internalType": "uint256",
					"name": "tokenId",
					"type": "uint256"
				}
			],
			"name": "ERC721InsufficientApproval",
			"type": "error"
		},
		{
			"inputs": [
				{
					"internalType": "address",
					"name": "approver",
					"type": "address"
				}
			],
			"name": "ERC721InvalidApprover",
			"type": "error"
		},
		{
			"inputs": [
				{
					"internalType": "address",
					"name": "operator",
					"type": "address"
				}
			],
			"name": "ERC721InvalidOperator",
			"type": "error"
		},
		{
			"inputs": [
				{
					"internalType": "address",
					"name": "owner",
					"type": "address"
				}
			],
			"name": "ERC721InvalidOwner",
			"type": "error"
		},
		{
			"inputs": [
				{
					"internalType": "address",
					"name": "receiver",
					"type": "address"
				}
			],
			"name": "ERC721InvalidReceiver",
			"type": "error"
		},
		{
			"inputs": [
				{
					"internalType": "address",
					"name": "sender",
					"type": "address"
				}
			],
			"name": "ERC721InvalidSender",
			"type": "error"
		},
		{
			"inputs": [
				{
					"internalType": "uint256",
					"name": "tokenId",
					"type": "uint256"
				}
			],
			"name": "ERC721NonexistentToken",
			"type": "error"
		},
		{
			"inputs": [],
			"name": "FailedCall",
			"type": "error"
		},
		{
			"inputs": [
				{
					"internalType": "uint256",
					"name": "balance",
					"type": "uint256"
				},
				{
					"internalType": "uint256",
					"name": "needed",
					"type": "uint256"
				}
			],
			"name": "InsufficientBalance",
			"type": "error"
		},
		{
			"inputs": [
				{
					"internalType": "address",
					"name": "owner",
					"type": "address"
				}
			],
			"name": "OwnableInvalidOwner",
			"type": "error"
		},
		{
			"inputs": [
				{
					"internalType": "address",
					"name": "account",
					"type": "address"
				}
			],
			"name": "OwnableUnauthorizedAccount",
			"type": "error"
		},
		{
			"anonymous": false,
			"inputs": [
				{
					"indexed": true,
					"internalType": "address",
					"name": "owner",
					"type": "address"
				},
				{
					"indexed": true,
					"internalType": "address",
					"name": "approved",
					"type": "address"
				},
				{
					"indexed": true,
					"internalType": "uint256",
					"name": "tokenId",
					"type": "uint256"
				}
			],
			"name": "Approval",
			"type": "event"
		},
		{
			"anonymous": false,
			"inputs": [
				{
					"indexed": true,
					"internalType": "address",
					"name": "owner",
					"type": "address"
				},
				{
					"indexed": true,
					"internalType": "address",
					"name": "operator",
					"type": "address"
				},
				{
					"indexed": false,
					"internalType": "bool",
					"name": "approved",
					"type": "bool"
				}
			],
			"name": "ApprovalForAll",
			"type": "event"
		},
		{
			"anonymous": false,
			"inputs": [
				{
					"indexed": true,
					"internalType": "address",
					"name": "minter",
					"type": "address"
				},
				{
					"indexed": true,
					"internalType": "uint256",
					"name": "tokenId",
					"type": "uint256"
				},
				{
					"indexed": false,
					"internalType": "string",
					"name": "rarity",
					"type": "string"
				},
				{
					"indexed": false,
					"internalType": "bool",
					"name": "paidInETH",
					"type": "bool"
				}
			],
			"name": "Minted",
			"type": "event"
		},
		{
			"anonymous": false,
			"inputs": [
				{
					"indexed": true,
					"internalType": "address",
					"name": "previousOwner",
					"type": "address"
				},
				{
					"indexed": true,
					"internalType": "address",
					"name": "newOwner",
					"type": "address"
				}
			],
			"name": "OwnershipTransferred",
			"type": "event"
		},
		{
			"anonymous": false,
			"inputs": [
				{
					"indexed": true,
					"internalType": "uint256",
					"name": "id",
					"type": "uint256"
				},
				{
					"indexed": false,
					"internalType": "string",
					"name": "name",
					"type": "string"
				},
				{
					"indexed": false,
					"internalType": "uint256",
					"name": "weight",
					"type": "uint256"
				},
				{
					"indexed": false,
					"internalType": "string",
					"name": "uri",
					"type": "string"
				}
			],
			"name": "RarityAdded",
			"type": "event"
		},
		{
			"anonymous": false,
			"inputs": [
				{
					"indexed": true,
					"internalType": "uint256",
					"name": "id",
					"type": "uint256"
				},
				{
					"indexed": false,
					"internalType": "string",
					"name": "name",
					"type": "string"
				},
				{
					"indexed": false,
					"internalType": "uint256",
					"name": "weight",
					"type": "uint256"
				},
				{
					"indexed": false,
					"internalType": "string",
					"name": "uri",
					"type": "string"
				}
			],
			"name": "RarityUpdated",
			"type": "event"
		},
		{
			"anonymous": false,
			"inputs": [
				{
					"indexed": true,
					"internalType": "address",
					"name": "from",
					"type": "address"
				},
				{
					"indexed": true,
					"internalType": "address",
					"name": "to",
					"type": "address"
				},
				{
					"indexed": true,
					"internalType": "uint256",
					"name": "tokenId",
					"type": "uint256"
				}
			],
			"name": "Transfer",
			"type": "event"
		},
		{
			"inputs": [],
			"name": "MINT_PRICE_ETH",
			"outputs": [
				{
					"internalType": "uint256",
					"name": "",
					"type": "uint256"
				}
			],
			"stateMutability": "view",
			"type": "function"
		},
		{
			"inputs": [],
			"name": "MINT_PRICE_USDT",
			"outputs": [
				{
					"internalType": "uint256",
					"name": "",
					"type": "uint256"
				}
			],
			"stateMutability": "view",
			"type": "function"
		},
		{
			"inputs": [
				{
					"internalType": "string",
					"name": "name",
					"type": "string"
				},
				{
					"internalType": "uint256",
					"name": "weight",
					"type": "uint256"
				},
				{
					"internalType": "string",
					"name": "uri",
					"type": "string"
				}
			],
			"name": "addRarity",
			"outputs": [],
			"stateMutability": "nonpayable",
			"type": "function"
		},
		{
			"inputs": [
				{
					"internalType": "address",
					"name": "to",
					"type": "address"
				},
				{
					"internalType": "uint256",
					"name": "tokenId",
					"type": "uint256"
				}
			],
			"name": "approve",
			"outputs": [],
			"stateMutability": "nonpayable",
			"type": "function"
		},
		{
			"inputs": [
				{
					"internalType": "address",
					"name": "owner",
					"type": "address"
				}
			],
			"name": "balanceOf",
			"outputs": [
				{
					"internalType": "uint256",
					"name": "",
					"type": "uint256"
				}
			],
			"stateMutability": "view",
			"type": "function"
		},
		{
			"inputs": [
				{
					"internalType": "uint256",
					"name": "",
					"type": "uint256"
				}
			],
			"name": "cooldownEndTimestamp",
			"outputs": [
				{
					"internalType": "uint256",
					"name": "",
					"type": "uint256"
				}
			],
			"stateMutability": "view",
			"type": "function"
		},
		{
			"inputs": [
				{
					"internalType": "uint256",
					"name": "tokenId",
					"type": "uint256"
				}
			],
			"name": "getApproved",
			"outputs": [
				{
					"internalType": "address",
					"name": "",
					"type": "address"
				}
			],
			"stateMutability": "view",
			"type": "function"
		},
		{
			"inputs": [
				{
					"internalType": "uint256",
					"name": "tokenId",
					"type": "uint256"
				}
			],
			"name": "getRarityName",
			"outputs": [
				{
					"internalType": "string",
					"name": "",
					"type": "string"
				}
			],
			"stateMutability": "view",
			"type": "function"
		},
		{
			"inputs": [
				{
					"internalType": "address",
					"name": "owner",
					"type": "address"
				},
				{
					"internalType": "address",
					"name": "operator",
					"type": "address"
				}
			],
			"name": "isApprovedForAll",
			"outputs": [
				{
					"internalType": "bool",
					"name": "",
					"type": "bool"
				}
			],
			"stateMutability": "view",
			"type": "function"
		},
		{
			"inputs": [
				{
					"internalType": "uint256",
					"name": "tokenId",
					"type": "uint256"
				}
			],
			"name": "isOnCooldown",
			"outputs": [
				{
					"internalType": "bool",
					"name": "",
					"type": "bool"
				}
			],
			"stateMutability": "view",
			"type": "function"
		},
		{
			"inputs": [],
			"name": "mintWithETH",
			"outputs": [],
			"stateMutability": "payable",
			"type": "function"
		},
		{
			"inputs": [
				{
					"internalType": "uint256",
					"name": "amount",
					"type": "uint256"
				}
			],
			"name": "mintWithUSDT",
			"outputs": [],
			"stateMutability": "nonpayable",
			"type": "function"
		},
		{
			"inputs": [],
			"name": "name",
			"outputs": [
				{
					"internalType": "string",
					"name": "",
					"type": "string"
				}
			],
			"stateMutability": "view",
			"type": "function"
		},
		{
			"inputs": [],
			"name": "owner",
			"outputs": [
				{
					"internalType": "address",
					"name": "",
					"type": "address"
				}
			],
			"stateMutability": "view",
			"type": "function"
		},
		{
			"inputs": [
				{
					"internalType": "uint256",
					"name": "tokenId",
					"type": "uint256"
				}
			],
			"name": "ownerOf",
			"outputs": [
				{
					"internalType": "address",
					"name": "",
					"type": "address"
				}
			],
			"stateMutability": "view",
			"type": "function"
		},
		{
			"inputs": [
				{
					"internalType": "uint256",
					"name": "",
					"type": "uint256"
				}
			],
			"name": "rarities",
			"outputs": [
				{
					"internalType": "string",
					"name": "name",
					"type": "string"
				},
				{
					"internalType": "uint256",
					"name": "weight",
					"type": "uint256"
				},
				{
					"internalType": "string",
					"name": "uri",
					"type": "string"
				}
			],
			"stateMutability": "view",
			"type": "function"
		},
		{
			"inputs": [],
			"name": "renounceOwnership",
			"outputs": [],
			"stateMutability": "nonpayable",
			"type": "function"
		},
		{
			"inputs": [
				{
					"internalType": "address",
					"name": "from",
					"type": "address"
				},
				{
					"internalType": "address",
					"name": "to",
					"type": "address"
				},
				{
					"internalType": "uint256",
					"name": "tokenId",
					"type": "uint256"
				}
			],
			"name": "safeTransferFrom",
			"outputs": [],
			"stateMutability": "nonpayable",
			"type": "function"
		},
		{
			"inputs": [
				{
					"internalType": "address",
					"name": "from",
					"type": "address"
				},
				{
					"internalType": "address",
					"name": "to",
					"type": "address"
				},
				{
					"internalType": "uint256",
					"name": "tokenId",
					"type": "uint256"
				},
				{
					"internalType": "bytes",
					"name": "data",
					"type": "bytes"
				}
			],
			"name": "safeTransferFrom",
			"outputs": [],
			"stateMutability": "nonpayable",
			"type": "function"
		},
		{
			"inputs": [
				{
					"internalType": "address",
					"name": "operator",
					"type": "address"
				},
				{
					"internalType": "bool",
					"name": "approved",
					"type": "bool"
				}
			],
			"name": "setApprovalForAll",
			"outputs": [],
			"stateMutability": "nonpayable",
			"type": "function"
		},
		{
			"inputs": [
				{
					"internalType": "uint256",
					"name": "tokenId",
					"type": "uint256"
				}
			],
			"name": "setCooldown",
			"outputs": [],
			"stateMutability": "nonpayable",
			"type": "function"
		},
		{
			"inputs": [
				{
					"internalType": "bytes4",
					"name": "interfaceId",
					"type": "bytes4"
				}
			],
			"name": "supportsInterface",
			"outputs": [
				{
					"internalType": "bool",
					"name": "",
					"type": "bool"
				}
			],
			"stateMutability": "view",
			"type": "function"
		},
		{
			"inputs": [],
			"name": "symbol",
			"outputs": [
				{
					"internalType": "string",
					"name": "",
					"type": "string"
				}
			],
			"stateMutability": "view",
			"type": "function"
		},
		{
			"inputs": [],
			"name": "tokenIdCounter",
			"outputs": [
				{
					"internalType": "uint256",
					"name": "",
					"type": "uint256"
				}
			],
			"stateMutability": "view",
			"type": "function"
		},
		{
			"inputs": [
				{
					"internalType": "uint256",
					"name": "",
					"type": "uint256"
				}
			],
			"name": "tokenRarity",
			"outputs": [
				{
					"internalType": "uint256",
					"name": "",
					"type": "uint256"
				}
			],
			"stateMutability": "view",
			"type": "function"
		},
		{
			"inputs": [
				{
					"internalType": "uint256",
					"name": "tokenId",
					"type": "uint256"
				}
			],
			"name": "tokenURI",
			"outputs": [
				{
					"internalType": "string",
					"name": "",
					"type": "string"
				}
			],
			"stateMutability": "view",
			"type": "function"
		},
		{
			"inputs": [],
			"name": "totalWeight",
			"outputs": [
				{
					"internalType": "uint256",
					"name": "",
					"type": "uint256"
				}
			],
			"stateMutability": "view",
			"type": "function"
		},
		{
			"inputs": [
				{
					"internalType": "address",
					"name": "from",
					"type": "address"
				},
				{
					"internalType": "address",
					"name": "to",
					"type": "address"
				},
				{
					"internalType": "uint256",
					"name": "tokenId",
					"type": "uint256"
				}
			],
			"name": "transferFrom",
			"outputs": [],
			"stateMutability": "nonpayable",
			"type": "function"
		},
		{
			"inputs": [
				{
					"internalType": "address",
					"name": "newOwner",
					"type": "address"
				}
			],
			"name": "transferOwnership",
			"outputs": [],
			"stateMutability": "nonpayable",
			"type": "function"
		},
		{
			"inputs": [
				{
					"internalType": "uint256",
					"name": "id",
					"type": "uint256"
				},
				{
					"internalType": "string",
					"name": "name",
					"type": "string"
				},
				{
					"internalType": "uint256",
					"name": "weight",
					"type": "uint256"
				},
				{
					"internalType": "string",
					"name": "uri",
					"type": "string"
				}
			],
			"name": "updateRarity",
			"outputs": [],
			"stateMutability": "nonpayable",
			"type": "function"
		},
		{
			"inputs": [],
			"name": "usdtToken",
			"outputs": [
				{
					"internalType": "contract IERC20",
					"name": "",
					"type": "address"
				}
			],
			"stateMutability": "view",
			"type": "function"
		},
		{
			"inputs": [
				{
					"internalType": "address payable",
					"name": "to",
					"type": "address"
				}
			],
			"name": "withdrawETH",
			"outputs": [],
			"stateMutability": "nonpayable",
			"type": "function"
		},
		{
			"inputs": [
				{
					"internalType": "address",
					"name": "to",
					"type": "address"
				}
			],
			"name": "withdrawUSDT",
			"outputs": [],
			"stateMutability": "nonpayable",
			"type": "function"
		}
	]
}