{
	"data": {
		"bytecode": {
			"linkReferences": {},
			"object": "6080604052348015600e575f5ffd5b506101ec8061001c5f395ff3fe608060405234801561000f575f5ffd5b5060043610610029575f3560e01c8063aae6a8c71461002d575b5f5ffd5b61004760048036038101906100429190610150565b610049565b005b5f8290508073ffffffffffffffffffffffffffffffffffffffff1662f55d9d836040518263ffffffff1660e01b8152600401610085919061019d565b5f604051808303815f87803b15801561009c575f5ffd5b505af11580156100ae573d5f5f3e3d5ffd5b50505050505050565b5f5ffd5b5f73ffffffffffffffffffffffffffffffffffffffff82169050919050565b5f6100e4826100bb565b9050919050565b6100f4816100da565b81146100fe575f5ffd5b50565b5f8135905061010f816100eb565b92915050565b5f61011f826100bb565b9050919050565b61012f81610115565b8114610139575f5ffd5b50565b5f8135905061014a81610126565b92915050565b5f5f60408385031215610166576101656100b7565b5b5f61017385828601610101565b92505060206101848582860161013c565b9150509250929050565b61019781610115565b82525050565b5f6020820190506101b05f83018461018e565b9291505056fea264697066735822122072e2f4a82f817f39a3b5acd263acd1f2dd701bbdb53a775ca925ee54daff72e664736f6c634300081d0033",
			"opcodes": "PUSH1 0x80 PUSH1 0x40 MSTORE CALLVALUE DUP1 ISZERO PUSH1 0xE JUMPI PUSH0 PUSH0 REVERT JUMPDEST POP PUSH2 0x1EC DUP1 PUSH2 0x1C PUSH0 CODECOPY PUSH0 RETURN INVALID PUSH1 0x80 PUSH1 0x40 MSTORE CALLVALUE DUP1 ISZERO PUSH2 0xF JUMPI PUSH0 PUSH0 REVERT JUMPDEST POP PUSH1 0x4 CALLDATASIZE LT PUSH2 0x29 JUMPI PUSH0 CALLDATALOAD PUSH1 0xE0 SHR DUP1 PUSH4 0xAAE6A8C7 EQ PUSH2 0x2D JUMPI JUMPDEST PUSH0 PUSH0 REVERT JUMPDEST PUSH2 0x47 PUSH1 0x4 DUP1 CALLDATASIZE SUB DUP2 ADD SWAP1 PUSH2 0x42 SWAP2 SWAP1 PUSH2 0x150 JUMP JUMPDEST PUSH2 0x49 JUMP JUMPDEST STOP JUMPDEST PUSH0 DUP3 SWAP1 POP DUP1 PUSH20 0xFFFFFFFFFFFFFFFFFFFFFFFFFFFFFFFFFFFFFFFF AND PUSH3 0xF55D9D DUP4 PUSH1 0x40 MLOAD DUP3 PUSH4 0xFFFFFFFF AND PUSH1 0xE0 SHL DUP2 MSTORE PUSH1 0x4 ADD PUSH2 0x85 SWAP2 SWAP1 PUSH2 0x19D JUMP JUMPDEST PUSH0 PUSH1 0x40 MLOAD DUP1 DUP4 SUB DUP2 PUSH0 DUP8 DUP1 EXTCODESIZE ISZERO DUP1 ISZERO PUSH2 0x9C JUMPI PUSH0 PUSH0 REVERT JUMPDEST POP GAS CALL ISZERO DUP1 ISZERO PUSH2 0xAE JUMPI RETURNDATASIZE PUSH0 PUSH0 RETURNDATACOPY RETURNDATASIZE PUSH0 REVERT JUMPDEST POP POP POP POP POP POP POP JUMP JUMPDEST PUSH0 PUSH0 REVERT JUMPDEST PUSH0 PUSH20 0xFFFFFFFFFFFFFFFFFFFFFFFFFFFFFFFFFFFFFFFF DUP3 AND SWAP1 POP SWAP2 SWAP1 POP JUMP JUMPDEST PUSH0 PUSH2 0xE4 DUP3 PUSH2 0xBB JUMP JUMPDEST SWAP1 POP SWAP2 SWAP1 POP JUMP JUMPDEST PUSH2 0xF4 DUP2 PUSH2 0xDA JUMP JUMPDEST DUP2 EQ PUSH2 0xFE JUMPI PUSH0 PUSH0 REVERT JUMPDEST POP JUMP JUMPDEST PUSH0 DUP2 CALLDATALOAD SWAP1 POP PUSH2 0x10F DUP2 PUSH2 0xEB JUMP JUMPDEST SWAP3 SWAP2 POP POP JUMP JUMPDEST PUSH0 PUSH2 0x11F DUP3 PUSH2 0xBB JUMP JUMPDEST SWAP1 POP SWAP2 SWAP1 POP JUMP JUMPDEST PUSH2 0x12F DUP2 PUSH2 0x115 JUMP JUMPDEST DUP2 EQ PUSH2 0x139 JUMPI PUSH0 PUSH0 REVERT JUMPDEST POP JUMP JUMPDEST PUSH0 DUP2 CALLDATALOAD SWAP1 POP PUSH2 0x14A DUP2 PUSH2 0x126 JUMP JUMPDEST SWAP3 SWAP2 POP POP JUMP JUMPDEST PUSH0 PUSH0 PUSH1 0x40 DUP4 DUP6 SUB SLT ISZERO PUSH2 0x166 JUMPI PUSH2 0x165 PUSH2 0xB7 JUMP JUMPDEST JUMPDEST PUSH0 PUSH2 0x173 DUP6 DUP3 DUP7 ADD PUSH2 0x101 JUMP JUMPDEST SWAP3 POP POP PUSH1 0x20 PUSH2 0x184 DUP6 DUP3 DUP7 ADD PUSH2 0x13C JUMP JUMPDEST SWAP2 POP POP SWAP3 POP SWAP3 SWAP1 POP JUMP JUMPDEST PUSH2 0x197 DUP2 PUSH2 0x115 JUMP JUMPDEST DUP3 MSTORE POP POP JUMP JUMPDEST PUSH0 PUSH1 0x20 DUP3 ADD SWAP1 POP PUSH2 0x1B0 PUSH0 DUP4 ADD DUP5 PUSH2 0x18E JUMP JUMPDEST SWAP3 SWAP2 POP POP JUMP INVALID LOG2 PUSH5 0x6970667358 0x22 SLT KECCAK256 PUSH19 0xE2F4A82F817F39A3B5ACD263ACD1F2DD701BBD 0xB5 GASPRICE PUSH24 0x5CA925EE54DAFF72E664736F6C634300081D003300000000 "
		},
		"gasEstimates": {
			"creation": {
				"codeDepositCost": "98400",
				"executionCost": "145",
				"totalCost": "98545"
			},
			"external": {
				"destroySimpleToken(address,address)": "infinite"
			}
		},
		"methodIdentifiers": {
			"destroySimpleToken(address,address)": "aae6a8c7"
		}
	},
	"abi": [
		{
			"inputs": [
				{
					"internalType": "address",
					"name": "_simpleTokenAddress",
					"type": "address"
				},
				{
					"internalType": "address payable",
					"name": "_to",
					"type": "address"
				}
			],
			"name": "destroySimpleToken",
			"outputs": [],
			"stateMutability": "nonpayable",
			"type": "function"
		}
	]
}